:100000000C9464010C948C010C948C010C948C0164
:100010000C948C010C948C010C948C010C948C012C
:100020000C948C010C948C010C948C010C948C011C
:100030000C948C010C948C010C948C010C948C010C
:100040000C94F10D0C948C010C94610E0C943B0EED
:100050000C948C010C948C010C948C010C948C01EC
:100060000C94930E0C948C010000000024002700D7
:100070002A0000000000250028002B0000000008D6
:10008000000201000003040700000000000000005F
:10009000000000002300260029000000C0C1C1812B
:1000A0000140C30103C00280C241C60106C00780EF
:1000B000C7410500C5C1C4810440CC010CC00D80FE
:1000C000CD410F00CFC1CE810E400A00CAC1CB8105
:1000D0000B40C90109C00880C841D80118C0198067
:1000E000D9411B00DBC1DA811A401E00DEC1DF816D
:1000F0001F40DD011DC01C80DC411400D4C1D5812E
:100100001540D70117C01680D641D20112C0138006
:10011000D3411100D1C1D0811040F00130C03180F5
:10012000F1413300F3C1F28132403600F6C1F7816C
:100130003740F50135C03480F4413C00FCC1FD81FD
:100140003D40FF013FC03E80FE41FA013AC03B8086
:10015000FB413900F9C1F88138402800E8C1E98144
:100160002940EB012BC02A80EA41EE012EC02F80EE
:10017000EF412D00EDC1EC812C40E40124C025802D
:10018000E5412700E7C1E68126402200E2C1E38184
:100190002340E10121C02080E041A00160C06180D6
:1001A000A1416300A3C1A28162406600A6C1A781EC
:1001B0006740A50165C06480A4416C00ACC1AD81FD
:1001C0006D40AF016FC06E80AE41AA016AC06B8006
:1001D000AB416900A9C1A88168407800B8C1B98164
:1001E0007940BB017BC07A80BA41BE017EC07F806E
:1001F000BF417D00BDC1BC817C40B40174C075802D
:10020000B5417700B7C1B68176407200B2C1B38103
:100210007340B10171C07080B041500090C19181B4
:100220005140930153C052809241960156C057806D
:100230009741550095C1948154409C015CC05D80FC
:100240009D415F009FC19E815E405A009AC19B8183
:100250005B40990159C058809841880148C0498045
:1002600089414B008BC18A814A404E008EC18F81EB
:100270004F408D014DC04C808C41440084C185812C
:100280004540870147C046808641820142C0438085
:100290008341410081C18081404000000404040486
:1002A0000404040402020202020203030303030320
:1002B00001020408102040800102040810200102FD
:1002C00004081020B20FDD1B11241FBECFEFD8E0B1
:1002D000DEBFCDBF11E0A0E0B1E0EEE4F2E402C089
:1002E00005900D92AA33B107D9F723E0AAE3B1E054
:1002F00001C01D92AB30B207E1F711E0C3E6D1E0D7
:1003000004C02197FE010E94B61EC236D107C9F76C
:100310000E94D9100C941A210C940000CF92DF9205
:10032000EF92FF920F931F93CF93DF93CDB7DEB77A
:100330002C970FB6F894DEBF0FBECDBF90E080E0E3
:100340002C960FB6F894DEBF0FBECDBFDF91CF91D4
:100350001F910F91FF90EF90DF90CF900895AF9293
:10036000BF92CF92DF92EF92FF920F931F93CF93A2
:10037000DF93CDB7DEB728970FB6F894DEBF0FBE78
:10038000CDBF7C016A01CB0110E000E02091B002FA
:10039000211130C02091AE023091AF024091AA02EB
:1003A0005091AB02D80163E0AA0FBB1F6A95E1F739
:1003B000A40FB51F2017310700F11296AD90BC9025
:1003C0001397F70160817181A616B70679F4149628
:1003D000AD90BC90159762817381A616B70631F473
:1003E0006D917C911197C616D70639F00F5F1F4F9C
:1003F0001896E0CF01E010E019C02F5F3F4F0217C1
:100400001307C0F4F80123E0EE0FFF1F2A95E1F770
:10041000E40FF51F28E0DE01119601900D922A9558
:10042000E1F7EF81F885BC01C70109952091B00281
:1004300021110CC00F5F1F4F2091AE023091AF020F
:100440002F5F3F4F0217130708F4A0CF28960FB66F
:10045000F894DEBF0FBECDBFDF91CF911F910F91FA
:10046000FF90EF90DF90CF90BF90AF900895809570
:10047000E82FF0E0EE0FFF1FE656FF4F85919491B5
:100480009095DB01415068F0ED91E927F0E0EE0F27
:10049000FF1FE656FF4F25913491982F9327822F07
:1004A000F1CF089580918F0190919001891B990B54
:1004B0000895CF92DF92EF92FF92CF93DF93B091A6
:1004C000FB02A0E08111AB2F8091FC0290E0880F2D
:1004D000991FAC0140575F4FC0900103D0900203B9
:1004E000E0900303F090040330E020E0FA01C591AE
:1004F000D491E881B90190E080E0EB23EA130AC0CF
:100500002F5F3F4F6C157D058E059F0578F36FEFCC
:100510007FEFCB01DF91CF91FF90EF90DF90CF90F5
:100520000895833081F028F4813099F08230A9F069
:1005300008958730A9F08830C9F08430B1F48091F3
:1005400080008F7D03C0809180008F778093800032
:10055000089584B58F7784BD089584B58F7DFBCFD2
:100560008091B0008F778093B00008958091B000A3
:100570008F7DF9CFCF93DF93282F30E0F901E45836
:10058000FF4F8491F901E055FD4FD491F901E456F4
:10059000FD4FC491CC23A1F081110E949102EC2F58
:1005A000F0E0EE0FFF1FE057FF4FA591B491EC91E3
:1005B000ED2381E090E009F480E0DF91CF91089590
:1005C00080E090E0FACF1F93CF93DF93282F30E0A5
:1005D000F901E458FF4F8491F901E055FD4FD491A2
:1005E000F901E456FD4FC491CC23A9F0162F8111D7
:1005F0000E949102EC2FF0E0EE0FFF1FEE58FF4F2C
:10060000A591B4918FB7F894EC91111108C0D095D1
:10061000DE23DC938FBFDF91CF911F910895DE2BF6
:10062000F8CFCF93DF93CFEED2E061E088810E94D4
:10063000E30283E290E00197F1F760E08881DF91C7
:10064000CF910C94E302CF93DF9390E0FC01E0554F
:10065000FD4F249184569D4FFC0184918823C9F05D
:1006600090E0880F991FFC01E859FF4FA591B491C4
:10067000FC01EE58FF4FC591D49161110DC09FB799
:10068000F8948C91209582238C9388812823288349
:100690009FBFDF91CF910895623051F49FB7F894D6
:1006A0003C91822F809583238C93E8812E2BEFCF72
:1006B0008FB7F894EC912E2B2C938FBFEACF0F932A
:1006C0001F93CF93DF938091F0020E94BA02892B8F
:1006D000D1F700E0C7E0D0E08091F0020E94BA02BA
:1006E0000C2E01C0880F0A94EAF7082B0E94110310
:1006F000219790F761E08091F0020E94230360E06F
:100700008091F0020E94E3020E94110360E0809158
:10071000F0020E94230310E0C7E0D0E08091F002D5
:100720000E94BA020C2E01C0880F0A94EAF7182B17
:100730000E941103219790F761E08091F0020E94DE
:10074000230361E08091F0020E94E3020E94110302
:10075000902F812FDF91CF911F910F9108950F93CB
:100760001F93CF93DF93082F61E08091EF020E94E7
:10077000E302C3E2D0E0CE010197F1F760E080919F
:10078000F0020E94E302CE010197F1F760E0809150
:10079000EF020E94E302CE010197F1F761E0809140
:1007A000EF020E94E302CE010197F1F761E0809130
:1007B000F0020E94E302CE010197F1F760E0809120
:1007C000EF020E94E3022197F1F7C8E0D0E010E8C1
:1007D000602F61238091F0020E94E3020E941103C6
:1007E00016952197A9F760E08091F0020E942303FB
:1007F0008091F0020E94BA02EC010E94110381E094
:10080000CD2B09F080E0DF91CF911F910F910895DA
:100810003FB7F8948091870190918801A091890158
:10082000B0918A0126B5A89B05C02F3F19F001960B
:10083000A11DB11D3FBFBA2FA92F982F8827BC013A
:10084000CD01620F711D811D911D42E0660F771F62
:10085000881F991F4A95D1F708958F929F92AF9262
:10086000BF92CF92DF92EF92FF924B015C010E9408
:1008700008046B017C010E9408046C197D098E0933
:100880009F09683E734081059105A8F321E0821A13
:100890009108A108B10888EEC80E83E0D81EE11CBB
:1008A000F11C81149104A104B10429F7FF90EF9089
:1008B000DF90CF90BF90AF909F908F900895CF9290
:1008C000DF92EF92FF920F931F93CF93DF93CDB7F9
:1008D000DEB7C054D1400FB6F894DEBF0FBECDBF17
:1008E0002FB7F89480918B0190918C01A0918D018C
:1008F000B0918E012FBF4091FD025091FE02609198
:10090000FF02709100038C019D01041B150B260B47
:10091000370BB901A801403D57406105710590F4BE
:1009200080910503C05CDE4F0FB6F894DEBF0FBEAA
:10093000CDBFDF91CF911F910F91FF90EF90DF908E
:10094000CF9008958093FD029093FE02A093FF0242
:10095000B09300031092F8021092F7021092F60280
:100960001092F5021092F40262E08091F9020E9466
:10097000230361E070E080E090E00E942D0461E0DC
:100980008091F9020E94230360E08091F9020E94A5
:10099000E3028091FA028551823020F58BE291E1E9
:1009A0000197F1F762E08091F9020E9423038091A0
:1009B000060390E08230910538F0880F991F880F68
:1009C000991F05970197F1F7F89480E00E9459026A
:1009D0006F3F7F4F8F4F9F4F61F4109205037894C4
:1009E00080E0A0CF64E170E080E090E00E942D0400
:1009F000D9CF81E00E9459026F3F7F4F8F4F9F4FA9
:100A000061F38E010F5F1F4F6E018FEBC81A8EEFDF
:100A1000D80A780180E00E945902F701608371834F
:100A20008283938381E00E945902F7016483758376
:100A300086839783F8E0EF0EF11CEC14FD0451F768
:100A4000789430E020E0F801C080D180E280F3802B
:100A50004481558166817781FFEFCF16DF06EF066F
:100A6000FF0631F04F3F8FEF58076807780719F4FA
:100A700010920503B5CFF90183E0F595E7958A95C6
:100A8000E1F7EC50FD4F8081880FC416D506E606CD
:100A9000F70610F180832F5F3F4F085F1F4F28320A
:100AA000310589F64091F8022091F4028091F50217
:100AB000280F3327331F8091F602280F311D8091B4
:100AC000F702820F932F911D99274817190681F677
:100AD00081E08093050326CF8160DCCF08950895DF
:100AE000AF92BF92CF92DF92EF92FF920F931F933C
:100AF000CF93DF936C017B018B01040F151FEB017A
:100B00005E01AE18BF08C017D10759F06991D60130
:100B1000ED91FC910190F081E02DC6010995892BA2
:100B200079F7C501DF91CF911F910F91FF90EF9061
:100B3000DF90CF90BF90AF900895FC01538D448D0E
:100B4000252F30E0842F90E0821B930B541710F078
:100B5000CF96089501970895FC01918D828D981785
:100B600061F0A28DAE0FBF2FB11D5D968C91928D5D
:100B70009F5F9F73928F90E008958FEF9FEF08958E
:100B8000FC01918D828D981731F0828DE80FF11D57
:100B9000858D90E008958FEF9FEF0895FC01918D72
:100BA000228D892F90E0805C9F4F821B91098F736B
:100BB0009927089581E092E00E94CE0521E0892BDB
:100BC00009F420E0822F089580E090E0892B29F03D
:100BD0000E94DA0581110C9400000895FC01A48D97
:100BE000A80FB92FB11DA35ABF4F2C91848D90E04F
:100BF00001968F739927848FA689B7892C93A08932
:100C0000B1898C91837080648C93938D848D9813BB
:100C100006C00288F389E02D80818F7D808308954E
:100C2000EF92FF920F931F93CF93DF93EC0181E03C
:100C3000888F9B8D8C8D98131AC0E889F9898081E3
:100C400085FF15C09FB7F894EE89FF896083E88916
:100C5000F98980818370806480839FBF81E090E008
:100C6000DF91CF911F910F91FF90EF900895F62E95
:100C70000B8D10E00F5F1F4F0F731127E02E8C8D2F
:100C80008E110CC00FB607FCFACFE889F989808174
:100C900085FFF5CFCE010E94EE05F1CFEB8DEC0F75
:100CA000FD2FF11DE35AFF4FF0829FB7F8940B8F91
:100CB000EA89FB8980818062CFCFCF93DF93EC01FB
:100CC000888D8823B9F0AA89BB89E889F9898C9134
:100CD00085FD03C0808186FD0DC00FB607FCF7CFF0
:100CE0008C9185FFF2CF808185FFEDCFCE010E94F0
:100CF000EE05E9CFDF91CF91089520915B01260F9A
:100D00003327331F21323105ECF42091FB01FC0124
:100D100090E080E0243069F082E00895A0915B01CA
:100D20002191AC01455C5E4FA40FB52FB11D2C93F2
:100D30000196861798F380915B01680F60935B01C1
:100D400080E0089581E008951092FB0181E0809396
:100D5000DA011092D50161E082E10E94E30261E0D4
:100D600083E10E94E302E9EBF0E080818E7F8083E3
:100D700080818D7F808388E48093B80085E48093B0
:100D8000BC000895CF93DF9391E090933A018823BC
:100D9000B9F0C091B800D091BA008091BC008A7BB4
:100DA0008093BC0060E082E10E94E30260E083E1A6
:100DB0000E94E3020E94A406D093BA00C093B80038
:100DC000DF91CF910895CF92DF92EF92FF920F9330
:100DD0001F93CF93DF93D82FC62F613208F098C0AE
:100DE0000E9408046B017C018091FB0181116BC0A2
:100DF00081E08093FB018093DA019FEF9093D9010A
:100E00001092D8019C0F9093D7018093D6018091C6
:100E1000D601DD0FD82BD093D6018091D50181303A
:100E200009F078C01092D5010E9408046B017C0182
:100E30008091D6018093BB008091FD019091FE01CD
:100E4000A091FF01B0910002892B8A2B8B2BA1F07E
:100E50000E9408040091FD011091FE012091FF0104
:100E6000309100026C197D098E099F09061717073A
:100E70002807390708F448C08091BC0083FDD8CF0B
:100E800085EC8093BC000E9408046B017C0180917A
:100E9000FB01813009F440C08091D8018C1710F417
:100EA000C091D801E5EBF1E0ABEDB1E080E08C134F
:100EB00055C08C2FDF91CF911F910F91FF90EF9034
:100EC000DF90CF9008958091FD019091FE01A09157
:100ED000FF01B0910002892B8A2B8B2B09F484CF60
:100EE0000E9408040091FD011091FE012091FF0174
:100EF000309100026C197D098E099F0906171707AA
:100F00002807390708F070CF8091FC010E94C206C3
:100F1000C0E0CFCF85EEB5CF8091FD019091FE016D
:100F2000A091FF01B0910002892B8A2B8B2B09F431
:100F3000AECF0E9408040091FD011091FE012091A6
:100F4000FF01309100026C197D098E099F09061777
:100F500017072807390708F09ACFD6CF91919D93AC
:100F60008F5FA5CF8F929F92AF92BF92CF92DF9269
:100F7000EF92FF920F931F93CF93DF93D091B40121
:100F8000D13208F0D7C0182FC091B3010E940804D5
:100F90006B017C018091FB0181116BC082E0809329
:100FA000FB011093DA018FEF8093D9011092D801E1
:100FB000D093D701A3E9B1E0E5EBF1E080E0D813ED
:100FC00091C01092D6018091D601CC0FC82BC0934E
:100FD000D6018091D501813009F088C01092D501E9
:100FE0000E9408046B017C018091D6018093BB00B4
:100FF0008091FD019091FE01A091FF01B09100024E
:10100000892B8A2B8B2BA1F00E9408040091FD01F3
:101010001091FE012091FF01309100026C197D09B1
:101020008E099F09061717072807390708F442C0D9
:101030008091BC0083FDD8CF85EC8093BC000E94DA
:1010400008046B017C018091FB01823009F450C0DF
:101050008091D9018F3F09F46FC08091D90180320E
:1010600009F46CC08091D901803309F469C084E02F
:1010700026C08091FD019091FE01A091FF01B091E9
:101080000002892B8A2B8B2B09F484CF0E94080441
:101090008090FD019090FE01A090FF01B0900002B1
:1010A0006C197D098E099F0986169706A806B90650
:1010B00008F070CF8091FC010E94C20685E010927A
:1010C00092011092B40110929101DF91CF911F9182
:1010D0000F91FF90EF90DF90CF90BF90AF909F90D7
:1010E0008F9008959D9191938F5F69CF85EEA5CFE5
:1010F0008091FD019091FE01A091FF01B09100024D
:10110000892B8A2B8B2B09F49ECF0E940804009117
:10111000FD011091FE012091FF01309100026C1938
:101120007D098E099F09061717072807390708F058
:101130008ACFC0CF81E0C3CF80E0C1CF82E0BFCFF4
:1011400083E0BDCF0895E091900180918F01E81771
:1011500030F4F0E0E552FE4F808190E008958FEF8B
:101160009FEF08959091900180918F012FEF3FEFB5
:10117000981748F4E92FF0E0E552FE4F208130E067
:101180009F5F90939001C9010895CF92DF92EF92F3
:10119000FF920F931F93CF93DF937C01CB018A01C2
:1011A00020919101222389F0EB016B01C40ED51E21
:1011B000CC15DD0569F06991D701ED91FC910190A5
:1011C000F081E02DC7010995F3CF642F0E947D06C1
:1011D000C801DF91CF911F910F91FF90EF90DF90A9
:1011E000CF900895CF93DF931F92CDB7DEB7698379
:1011F000209191012223F9F02091B401203258F07E
:1012000021E030E0FC013383228390E080E00F9006
:10121000DF91CF91089580919201E82FF0E0ED5693
:10122000FE4F998190838F5F809392018093B401E8
:1012300081E090E0ECCF61E0CE0101960E947D0656
:10124000F7CFCF93C82F8091EE0291E09093910158
:101250008093B301109292011092B40163E08EE981
:1012600092E00E94F2086C2F8EE992E00E94F20850
:1012700081E0CF910C94B20790E080E00895FC01EA
:10128000AB01608171818281938122813381CA01A6
:10129000820F931F0895CF93DF938091B70281113E
:1012A00022C0DA014091B5025091B6028091B1029C
:1012B0009091B202FC0130E020E0C081D181CA17D8
:1012C000DB0729F4C281D3816C177D0731F02F5FD2
:1012D0003F4F36964217530780F7BA016F5F7F4F33
:1012E0002617370718F090E080E00BC0421753072D
:1012F000D0F366E0629FA001639F500D1124840F1C
:10130000951FDF91CF910895EF92FF920F931F9356
:10131000CF937A01AB01BC0188EB92E00E944B09AC
:101320008C01C0E0009761F0C091BF02CC2379F03E
:1013300050E040E0B7010E94AF01F801958384833B
:101340008C2FCF911F910F91FF90EF900895FC018A
:10135000F582E482C1E0F4CF0F931F93AB0103E069
:1013600010E020E030E0B8011F910F910C94840947
:10137000AB01BC0188EB92E00E944B09009759F049
:10138000FC01648175812091BF02222331F041E08C
:1013900050E00C94AF0170E060E0CB0108952F9213
:1013A0003F924F925F926F927F928F929F92AF92F5
:1013B000BF92CF92DF92EF92FF920F931F93CF9342
:1013C000DF935C012A01EB017901E60EF71E22246E
:1013D000239410E000E0312CCE15DF05B9F1650152
:1013E000C00ED11E832CF601808190E0032C02C038
:1013F000959587950A94E2F750E040E080FF02C09F
:1014000040E05FEFCE01B2010E948409CE01B2013B
:101410000E94B809F601208130E002C03595279579
:101420008A94E2F720FD0FC030E020E08217930796
:1014300009F0212C3394F8E03F1203C00F5F1F4FD7
:10144000312C2196C9CF20E03FEFF0CF822DDF91E4
:10145000CF911F910F91FF90EF90DF90CF90BF90B1
:10146000AF909F908F907F906F905F904F903F9044
:101470002F9008956F927F928F929F92AF92BF921A
:10148000CF92DF92EF92FF920F931F93CF93DF9350
:1014900000D000D0CDB7DEB73C0149835A836B83BF
:1014A0007C834901D12CCC24C394ED2CF12CE8147D
:1014B000F90430F58701000F111F060D171DF80103
:1014C000A080B180BA24AB24BA24B701CE01019622
:1014D0000E943F09A5010E948409B701CE0101962F
:1014E0000E943F090E94B809F8012081318132270A
:1014F000232732278217930709F0C12CD394D5CF25
:101500008C2D0F900F900F900F90DF91CF911F9126
:101510000F91FF90EF90DF90CF90BF90AF909F9092
:101520008F907F906F900895FC0165A570E090E02A
:1015300080E0089560E070E0CB010895CF93DF93E1
:10154000CDB7DEB72A970FB6F894DEBF0FBECDBF7A
:1015500023E030E038872F839A87898770E060E046
:10156000CE0107960E943F09AB01BC0188EB92E0D7
:101570000E944B09892B09F077C070E060E0CE0132
:1015800007960E943F0969837A838B839C838091AD
:10159000B1029091B202892B09F452C08091B3023A
:1015A0009091B4029C01215031094091B5025091B3
:1015B000B60242175307F0F0019626E0289FB001CB
:1015C000299F700D11248091B1029091B2020E9466
:1015D0001D20009709F448C02091B3023091B40255
:1015E0002F5F3F4F3093B4022093B3029093B20227
:1015F0008093B1028091B702811140C08091B50201
:101600009091B60201969093B6028093B5024091F4
:10161000B5025091B60286E0849F9001859F300DFF
:101620001124A091B102B091B202A20FB31F1E8289
:101630001D82FE01319601900D928A95E1F714C04A
:101640008091B3029091B40226E0AC01249FC001C6
:10165000259F900D11240E94F81E9093B202809352
:10166000B102892B09F09ACF81E02A960FB6F8943F
:10167000DEBF0FBECDBFDF91CF9108951092B702AC
:10168000C6CF0F931F938091D402811104C080E0D4
:101690001F910F9108950E9408040091D5021091A6
:1016A000D6022091D7023091D802601B710B820BB9
:1016B000930B613472448F40910548F3E091D90255
:1016C000F091DA02309759F050E040E070E060E0CD
:1016D00084EE90E009951092DA021092D90280917E
:1016E000DD029091DE020E94941F1092DE021092A1
:1016F000DD021092DC021092DB021092D40281E033
:10170000C7CFCF93DF93C82FD62F8091BA02909185
:10171000BB020E94941F82E090E09093BD028093F0
:10172000BC020E94F81EFC019093BB028093BA0297
:1017300081E0309721F0C058C083D18383E080934B
:10174000BE02DF91CF9108958F929F92AF92BF9288
:10175000DF92EF92FF920F931F93CF93DF9300D00E
:1017600000D0CDB7DEB7FA013197ED37F10508F0BB
:1017700064C0FC01E095F095E417F50708F45DC03E
:10178000D22E7A014B015C01BC01A40188EB92E0EE
:101790000E944B09892B09F453C08091BA029091A1
:1017A000BB020E94941F87010F5F1F4F000F111F84
:1017B0001093BD020093BC02C8010E94F81EFC01F8
:1017C0009093BB028093BA0284E090E0309729F1B5
:1017D000D0820250018389829A82AB82BC828F01BF
:1017E0000E5F1F4FB12CA12CB501CE0101960E94B6
:1017F0003F090E94B809982789279827F801819303
:1018000091938F01FFEFAF1ABF0AEA14FB0461F74F
:1018100083E08093BE0290E080E00F900F900F90E5
:101820000F90DF91CF911F910F91FF90EF90DF907C
:10183000BF90AF909F908F90089583E090E0EDCFA0
:1018400082E090E0EACF2F923F924F925F926F92A8
:101850007F928F929F92AF92BF92DF92EF92FF9210
:101860000F931F93CF93DF93FA013197E03DF74039
:1018700008F091C08C01FC01E095F095E417F507A4
:1018800008F489C0D22E1A012B013C01BC01A2012F
:1018900088EB92E00E944B09892B09F47CC080916F
:1018A000BA029091BB020E94941FC10123E0969559
:1018B00087952A95E1F7910127703327232B09F0AB
:1018C0004EC002969093BD028093BC02E090BC0291
:1018D000F090BD02C7010E94F81EEC019093BB027C
:1018E0008093BA0284E090E0209709F442C0D88245
:1018F0008EEF8E0D8983EC0EFD1EF701319710825D
:10190000260C371CF12CE12CD12C812C912C54016C
:1019100083940215130541F1C801B2010E94B80970
:10192000F7013296EC0FFD1FB501A4010D2C04C088
:10193000440F551F661F771F0A94D2F72081811527
:101940009F4F79F4242B2083D39488E0D81204C0CD
:101950003FEFE31AF30AD12C0F5F1F4FDACF039644
:10196000B1CF40952423EFCF83E08093BE0290E077
:1019700080E0DF91CF911F910F91FF90EF90DF906A
:10198000BF90AF909F908F907F906F905F904F909F
:101990003F902F90089583E090E0EBCFCF92DF92BD
:1019A000EF92FF92CF93DF938091EE02C1E0C0935C
:1019B00091018093B301109292011092B40161E001
:1019C0008EE992E00E94F20880E00E94B207811145
:1019D000CDC062E08091EE020E94E3061092900179
:1019E00080938F01823069F0C9E3D0E381E00E94E7
:1019F000B207CE01DF91CF91FF90EF90DF90CF90B3
:101A000008958EE992E00E94B208D82E8EE992E005
:101A10000E94B2087C018091EE02C09391018093F4
:101A2000B301109292011092B40163E08EE992E04A
:101A30000E94F20880E00E94B207C82F811111C0F5
:101A400061E08091EE020E94E30610929001809383
:101A50008F01813009F058C08EE992E00E94B208EF
:101A6000D82F81E00E94B207C111BECF20E03D2DEA
:101A70002E293F29032E000C440B550BD4FF4FC0D9
:101A800092E055954795379527959A95D1F7A4E615
:101A9000B0E00E94BC1E20E230E040E050E00E9436
:101AA000971E283883E13807410551057CF1CA01AA
:101AB000B90168587341810991096093E6027093F6
:101AC000E7028093E8029093E9020E94111D20E052
:101AD00030E040E251E40E94671C6B017C0120E091
:101AE00030E0A9010E94F51D20E030E040E05FE316
:101AF00087FD35C0C701B6010E94E41B0E944C1D42
:101B00000E94D91CEB0172CFC4E0ABCF68E873E14F
:101B100080E090E0621B730B840B950BCECF84E0CA
:101B200055954795379527958A95D1F7A4E6B0E066
:101B30000E94BC1E20E130E040E050E00E94971E71
:101B4000CA01B90160567940810991096093EA029E
:101B50007093EB028093EC029093ED02B6CFC70135
:101B6000B6010E94E31B0E94501CCACFC9E3D0E318
:101B700040CF85ED8093BC008091FD019091FE01E6
:101B8000A091FF01B09100020796A11DB11D23E0B5
:101B9000B695A795979587952A95D1F72091BC0082
:101BA00024FD03C01092FB0108954091FD01509166
:101BB000FE016091FF0170910002452B462B472BDF
:101BC00069F30097A105B10541F02AE22A95F1F7E2
:101BD00000C00197A109B109E1CF8091FC010C94EB
:101BE000C2061F920F920FB60F9211242F933F93AC
:101BF0008F939F93AF93BF9380918B0190918C01B2
:101C0000A0918D01B0918E013091860123E0230FC8
:101C10002D3758F50196A11DB11D209386018093A3
:101C20008B0190938C01A0938D01B0938E018091D4
:101C3000870190918801A0918901B0918A01019654
:101C4000A11DB11D8093870190938801A093890104
:101C5000B0938A01BF91AF919F918F913F912F9146
:101C60000F900FBE0F901F90189526E8230F029635
:101C7000A11DB11DD2CF1F920F920FB60F9211244A
:101C80002F933F934F935F936F937F938F939F9384
:101C9000AF93BF93EF93FF9381E092E00E94EE0534
:101CA000FF91EF91BF91AF919F918F917F916F9134
:101CB0005F914F913F912F910F900FBE0F901F900A
:101CC00018951F920F920FB60F9211242F938F9396
:101CD0009F93EF93FF93E0911102F09112028081A4
:101CE000E0911702F091180282FD1BC09081809153
:101CF0001A028F5F8F7320911B02821741F0E091CF
:101D00001A02F0E0EF5FFD4F958F80931A02FF916A
:101D1000EF919F918F912F910F900FBE0F901F9079
:101D200018958081F4CF1F920F920FB60F92112455
:101D30002F933F934F935F936F937F938F939F93D3
:101D4000AF93BF93EF93FF938091B900887F803664
:101D500009F44AC0F0F5883209F4A7C018F58031BB
:101D600009F49BC0B8F4882309F4F9C0883009F459
:101D700094C0FF91EF91BF91AF919F918F917F910F
:101D80006F915F914F913F912F910F900FBE0F90E8
:101D90001F901895883109F488C0803251F78093DC
:101DA000D90114C0803409F49DC040F48033B9F3E4
:101DB0008833F9F68093D90185ECB0C0803509F4F9
:101DC00085C0883509F496C0883499F60E94B90D0B
:101DD000D0CF883909F48CC038F5883729F050F411
:101DE000883611F0803729F683E08093FB0110924A
:101DF0007D0157C0883809F47BC0803919F08038DC
:101E000009F0B7CF80917D01803208F071C0E09178
:101E10007D0181E08E0F80937D018091BB00F0E019
:101E2000E35AFE4F80833DC0803B39F0E0F4803AB6
:101E300009F479C0883A09F09CCF84E08093FB01D3
:101E400010925C0110925B01E0918001F0918101A0
:101E5000099580915B0181110FC081E080935B0146
:101E600010923B0109C0803C09F4A6CF883C09F4DC
:101E7000A3CF883B09F07DCFE0915C0181E08E0F1C
:101E800080935C01F0E0E55CFE4F80818093BB00B5
:101E900090915C0180915B0129C08091D601809373
:101EA000BB0085EC8093BC0064CF9091D8018091F9
:101EB000D701981758F5E091D80181E08E0F8093F3
:101EC000D801F0E0EB54FE4F8081E9CFE091D801DA
:101ED00081E08E0F8093D8018091BB00F0E0EB543D
:101EE000FE4F80839091D8018091D7019817C8F256
:101EF00085E8D8CFE091D80181E08E0F8093D8019A
:101F00008091BB00F0E0EB54FE4F80838091DA01BA
:101F100081115CCF81E08093D50184EA8093BC007D
:101F20001092FB0126CF85EC8093BC001092FB0140
:101F300080917D01803230F4E0917D01F0E0E35A40
:101F4000FE4F108260917D0170E0E0917E01F09182
:101F50007F018DE591E0099510927D010ACF1092E5
:101F6000D90134CF109204021092030288EE93E05C
:101F7000A0E0B0E08093050290930602A0930702D0
:101F8000B09308022AE031E030930202209301026C
:101F900025EC30E030930E0220930D0224EC30E06B
:101FA0003093100220930F0220EC30E030931202A5
:101FB0002093110221EC30E030931402209313029D
:101FC00022EC30E0309316022093150226EC30E02C
:101FD000309318022093170210921A0210921B02DB
:101FE00010921C0210921D021092A1021092A002E7
:101FF0008093A2029093A302A093A402B093A5029F
:102000008CE191E090939F0280939E021092B40223
:102010001092B3021092B6021092B50281E0809342
:10202000B70286E090E00E94F81E9093B20280937F
:10203000B102892B31F081E090E09093B40280935B
:10204000B3021092AD021092AC021092AF02109245
:10205000AE0281E08093B00288E090E00E94F81E1A
:102060009093AB028093AA02892B31F081E090E03B
:102070009093AD028093AC0288E08093F9028BE0EC
:102080008093FA02E8EBF2E0E491E093FB02E4EAE9
:10209000F2E0E491E093FC0280E89EE3A0E0B0E08F
:1020A0008093010390930203A0930303B09304036E
:1020B0001092F10281E090E09093F3028093F2029B
:1020C00089E08093EF028AE08093F00280E48093BD
:1020D000EE0283E099EDA0E0B0E08093E6029093F9
:1020E000E702A093E802B093E90287E594E0A0E05C
:1020F000B0E08093EA029093EB02A093EC02B093DD
:10210000ED021092BB021092BA021092BD02109220
:10211000BC021092BE0281E08093BF021092C10205
:102120001092C0022EE831E03093C3022093C20225
:102130003093C5022093C4022FEF3FEF3093C902C2
:102140002093C8028093CA021092CF021092D0024C
:102150001092D1021092D2021092D3021092D502A4
:102160001092D6021092D7021092D8021092DA0280
:102170001092D9021092DC021092DB021092DE0261
:102180001092DD021092E0021092DF021092E20241
:102190001092E1028DE790E09093E4028093E302D5
:1021A0001092E5028EE291E09093B9028093B8021A
:1021B0000895CF93DF93CDB7DEB7CA54D1090FB6D8
:1021C000F894DEBF0FBECDBF789484B5826084BD25
:1021D00084B5816084BD85B5826085BD85B581602B
:1021E00085BD80916E00816080936E0010928100A9
:1021F0008091810082608093810080918100816064
:102200008093810080918000816080938000809124
:10221000B10084608093B1008091B00081608093B0
:10222000B00080917A00846080937A0080917A0077
:10223000826080937A0080917A00816080937A0036
:1022400080917A00806880937A001092C100E091BA
:102250001102F091120282E08083E0910D02F09170
:102260000E021082E0910F02F09110028FEC808339
:1022700010921902E0911502F091160286E0808317
:10228000E0911302F0911402808180618083E091DB
:102290001302F0911402808188608083E091130220
:1022A000F0911402808180688083E0911302F091A4
:1022B000140280818F7D808344E050E062E371E00E
:1022C00081E092E00E94700561E08091EF020E943F
:1022D000230361E08091F0020E94230361E080917A
:1022E000F0020E94E30262E08091F9020E9423035F
:1022F0002FB7F89480918B0190918C01A0918D0162
:10230000B0918E012FBF805D9740A109B1098093E4
:10231000FD029093FE02A093FF02B093000387E3B7
:10232000809306031092900110928F0110929201F7
:102330001092B4010E94A4068EE695E0909381016C
:10234000809380018FE695E090937F0180937E01DA
:1023500087EA9FE0A0E0B0E08093CB029093CC02AC
:10236000A093CD02B093CE0281E092E09093C70299
:102370008093C60283E08093D40290E080E00E94C4
:102380009E0A81E090E00E949E0A82E090E00E9416
:102390009E0A83E090E00E949E0A84E090E00E9402
:1023A0009E0A85E090E00E949E0A68EE73E080E05D
:1023B00090E00E942D0442E050E067E371E081E08C
:1023C00092E00E9470052FB7F89480918B01909154
:1023D0008C01A0918D01B0918E012FBF409182019F
:1023E000509183016091840170918501841B950B4C
:1023F000A60BB70B893E9340A105B10508F49EC119
:102400000E945F04882341F08091FA028C3009F425
:1024100068C038F48B3001F160E070E080EC9FE739
:1024200043C085518230C0F7F090F6026F2D70E006
:10243000762F662766277F778091F702682B90E0DA
:1024400080E00E940F1D2DEC3CEC4CEC5DE30E9403
:10245000FA1DF7FE29C063C06091F60270E090E0BB
:1024600080E00E940F1D6B017C011091F70217FFA5
:102470000AC0AC019B0160E070E080E89FEB0E9425
:10248000E31B6B017C011F70612F70E090E080E026
:102490000E94111D2DEC3CEC4CEC5DE30E94FA1DFA
:1024A000A70196010E94E41B20E030E040E251E4E5
:1024B0000E94FA1D4B015C010E945F04882351F0C9
:1024C0008091FA028B3030F08D3058F18551823096
:1024D00008F478C1C12CD12C80ECE82E8FE7F82EBF
:1024E0003EC01091F602612F70E090E080E00E9403
:1024F0000F1D6B017C016091F7026F7070E090E03E
:1025000080E00E94111D2DEC3CEC4CEC5DE30E9440
:10251000FA1DA70196010E94E41B17FFC5CF905832
:10252000C3CF6091F50270E090E080E00E94111D41
:102530002DEC3CEC4CEC5DE30E94FA1D6B017C0140
:102540006091F40270E090E080E00E94111D9B0118
:10255000AC01C701B6010E94E41B6B017C01C501FF
:10256000B4010E94D91C90E080E00E94AC0920E0F8
:1025700030E040E251E4C701B6010E94FA1D0E941A
:10258000D91C81E090E00E94AC0983E00E94AF0377
:10259000882309F430C10E945F032091F202309138
:1025A000F302BC0190E080E0232B09F01DC10E94E2
:1025B0000F1D2AE037ED43E25DE30E94FA1D2DEC8A
:1025C0003CEC4EE152E40E94E31B20E030E040E2AC
:1025D00051E40E94FA1D2B013C0185E00E94AF03EB
:1025E000C12CD12C7601882391F10E945F032091A8
:1025F000F2023091F302BC0190E080E0232B09F05D
:10260000FEC00E940F1D4B015C012DEB32E546E13F
:102610005FE30E94FA1D25EC3EEF42E050E40E9489
:10262000E31B6B017C01A5019401C501B4010E946B
:10263000FA1D2BE335E246ED59EB0E94FA1D9B0192
:10264000AC01C701B6010E94E41B6B017C01C30110
:10265000B2010E94D91C82E090E00E94AC0920E007
:1026600030E040E251E4C701B6010E94FA1D0E9429
:10267000D91C83E090E00E94AC0981E10E9421090D
:1026800062E370E080E090E00E942D040E94CE0C96
:102690006091E6027091E7028091E8029091E90270
:1026A0000E94111D20E030E048EC52E40E94671CBB
:1026B00020E030E040E251E40E94FA1D0E94D91C63
:1026C00084E090E00E94AC0981E00E94210962E36D
:1026D00070E080E090E00E942D040E94CE0C60919A
:1026E000EA027091EB028091EC029091ED020E945F
:1026F000111D20E030E048EC52E40E94671C20E00D
:1027000030E040E251E40E94FA1D0E94D91C85E0AD
:1027100090E00E94AC092FB7F89480918B019091C2
:102720008C01A0918D01B0918E012FBF8093820109
:1027300090938301A0938401B09385018091C60298
:102740009091C702DC01ED91FC910084F185E02DB0
:1027500009952091BC023091BD0228173907C8F4B1
:102760008091C6029091C702DC01ED91FC9100843A
:10277000F185E02D09959093BD028093BC020E94E3
:1027800008046093CF027093D0028093D10290939B
:10279000D2028091D3022091BC023091BD02232B42
:1027A00009F04AC081110E94410BE0E0F0E0EF2BFC
:1027B00009F409CE0E94DA05882309F404CE0E94A8
:1027C000000001CE6091F4027091F5027627672730
:1027D000762790E080E00E940F1D2DEC3CEC4CEC45
:1027E0005DE30E94FA1DB9CE0E940F1D2AE037ED6D
:1027F00043E25CE3E2CE60E070E0CB01E6CE0E9413
:102800000F1D4B015C012DEB32E546E15DE30E94BB
:10281000FA1D25EC3EEF42E050E40E94E31B6B0101
:102820007C01A5019401C501B4010E94FA1D26EFA7
:1028300034E246ED55EB01CF882309F469C00E94CC
:1028400008040091CF021091D0022091D102309162
:10285000D202601B710B820B930B0091CB02109183
:10286000CC022091CD023091CE0260177107820711
:10287000930708F49ACF8091C6029091C702DC01B9
:10288000ED91FC910284F385E02D09958093E5029A
:102890002091BC023091BD02215031093093BD021C
:1028A0002093BC029091D302992329F09091D402F5
:1028B000992309F459C711E0811159C78091BA02CF
:1028C0009091BB020E94941F8091BC029091BD0226
:1028D0000E94F81E9093BB028093BA0200E0892BFD
:1028E00009F06EC010E08091BC029091BD021817F3
:1028F000190608F00EC18091C6029091C702DC0152
:10290000ED91FC910284F385E02D09951F5FEBCFDB
:102910000E9408046B017C010E9408040091CF0210
:102920001091D0022091D1023091D202601B710B24
:10293000820B930B0091CB021091CC022091CD021F
:102940003091CE02601771078207930708F093CF8A
:102950008091C6029091C702DC01ED91FC91008448
:10296000F185E02D09952091BC023091BD02281718
:102970003907C8F48091C6029091C702DC01ED913D
:10298000FC910084F185E02D09959093BD02809320
:10299000BC020E9408046093CF027093D00280931F
:1029A000D1029093D2020E9408046C197D098E090D
:1029B0009F09613A76488140910508F4ADCFF5CE84
:1029C000E02EF12C8091BC029091BD02E816F90630
:1029D000A8F48091C6029091C702DC01ED91FC91B0
:1029E0000284F385E02D09952091BA023091BB0253
:1029F000E20EF31EF70180830F5FE2CF6091BA020F
:102A00007091BB02AC0142505109FB01E40FF51F6C
:102A1000E080860F971FFC0131978081FE2CE82E05
:102A20005093BD024093BC028091E5020E943702A0
:102A3000E816F90609F063C0F7EEF093BE02E091E4
:102A4000C002F091C1022091BA023091BB023097CE
:102A500009F4B0C68091E5029091D30241E0942739
:102A60008A839983AE014F5F5F4F6091BC02C901B9
:102A700009958093BE02112309F43EC04090BA022A
:102A80005090BB028091D30281114AC08091BE0256
:102A9000875E823008F033C0F2019081A180B2805D
:102AA000BA24AB24BA248181282F30E0838094801B
:102AB000982489249824EFEFE90FE73108F04FC6F6
:102AC000F0E0EB59FA4E0C94B61EF31738180617BF
:102AD0008118CA189A16AF1BAF1BAF1BAF1BAF1BD9
:102AE000AF1BAF1BAF1B2C195517AF1BAF1BAF1B79
:102AF000CF19121A991A151B883E09F4BFCF80917D
:102B0000BA029091BB020E94941F1092BB021092D5
:102B1000BA021092BD021092BC028091D30242CE42
:102B2000D201EC919E2F9F77A091DD02B091DE0241
:102B30008C9198133FC08091BE02875E8230C0F4B2
:102B4000A090DB02B090DC024091DF025091E002E5
:102B50006091E1027091E202E7FF05C0F20181811C
:102B60008093BE0205C0E91749F1F2EEF093BE0270
:102B7000E091D902F091DA02309761F08091BE02C3
:102B800050E040E070E060E090E009951092DA02D9
:102B90001092D9028091DD029091DE020E94941F72
:102BA0001092DE021092DD021092DC021092DB0223
:102BB0001092D40281E08093BE02A1CF1092BE0297
:102BC00013962D913C91322723273227E150E7318C
:102BD00008F0ACC0F0E0E151FA4E0C94B61E261697
:102BE000261606160616B815B815961696169616D3
:102BF00096169616961696169616B815B815961633
:102C0000961696165F16B815B8150616D2011196C7
:102C1000EC91C901880F991FE817190609F0A5CF93
:102C2000C2010296A114B10471F0FC01D50121503A
:102C3000310908F49DCF8191919198278927982790
:102C40008D939D93F4CF0E943A0A92CFC90113E06D
:102C5000969587951A95E1F7E82FD901A770BB27BC
:102C6000AB2B11F0E1E0E80FD20111968C918E139D
:102C70007CCFA114B104F1F0F5012A0D3B1D50E009
:102C800040E060E0E217F30709F472CFD201A40F2D
:102C9000B51F12968C9190E0062E02C095958795EF
:102CA0000A94E2F7817081936F5F683059F74F5F44
:102CB0005F4FE7CFC20102960E94CF0959CFF201C0
:102CC000818199EF980F9F3E10F083E049CF420138
:102CD000F2E08F0E911C480E511C8414950408F0EC
:102CE00047CFD40111968C911197863071F74C9192
:102CF00089EF840F8F3E48F750E0C401840F951F81
:102D00004816590610F3B4016E5F7F4FC5010E944B
:102D1000DA20F401808190E00196880E991ED4019A
:102D20008C918150990BA80EB91ED7CFB1EEB093FC
:102D3000BE021ECFE091C202F091C302B3E07B2E2F
:102D4000612CC72C79826A82EA2CBC82AB82082D66
:102D50009E828D82D12CFC801E812F8138854985F1
:102D60005A856B857C8586E090E00995BC01892BAE
:102D7000B9F423E030E029963FAF2EAF29972B9688
:102D8000BFAEAEAE2B97A4012B966CAD7DAD8EADD4
:102D90009FAD2B970E948409811107C062E070E00B
:102DA00086E090E00E94810B51C343E050E02596FD
:102DB0005FAF4EAF25972796BFAEAEAE279727964B
:102DC0006CAD7DAD8EAD9FAD27970E94B80964E0D4
:102DD00070E08816990621F752E05093BE02E09108
:102DE000C402F091C50279826A82BC82AB829E8263
:102DF0008D82D62CFC801E812F81388549855A858D
:102E00006B857C8586E090E0099520C3E091C20245
:102E1000F091C302A3E07A2E612CC72C79826A82DA
:102E2000EA2CBC82AB82082D9E828D82D12CFC8044
:102E30001E812F81388549855A856B857C8583E085
:102E400090E00995009721F0BC0183E090E0AACFC3
:102E500083E090E021969FAF8EAF21972396BFAE7F
:102E6000AEAE239723E030E0A40123966CAD7DAD98
:102E70008EAD9FAD23970E94A40B009729F7E09198
:102E8000C402F091C50279826A82BC82AB829E82C2
:102E90008D82D62CFC801E812F81388549855A85EC
:102EA0006B857C8583E090E0AFCFE091C202F0912A
:102EB000C30283E0C82E89831A82EA2CBC82AB82CB
:102EC000082D9E828D82D12CFC801E812F81388519
:102ED00049855A856B857C8580E190E00995BC0128
:102EE000892BB1F4C40101978D37910578F4C501A0
:102EF000809590958815990548F0D20115962C91EA
:102F0000C401880F991F2817190629F063E070E0A3
:102F100080E190E047CF712C612C03E010E01A8330
:102F20000983BC82AB82B301CE0101960E943F09A6
:102F3000AB01BC0188EB92E00E944B09892B19F48C
:102F400062E070E0E5CFBFEF6B1A7B0A861497044E
:102F500031F7E3E0F0E0FCAFEBAFBEAEADAE940115
:102F60004BAD5CAD6DAD7EADC20106960E943A0AD6
:102F700064E070E0882361F28091BA029091BB0214
:102F80000E94941F85E090E09093BD028093BC0264
:102F90000E94F81EFC019093BB028093BA02892B19
:102FA00031F020E12083B182A2821382648283E027
:102FB0008093BE02E091C402F091C502C82E8983BD
:102FC0001A82EA2CBC82AB82062D7E826D82D12CC5
:102FD000FC801E812F81388549855A856B857C85CB
:102FE00080E190E011CFE091C202F091C3021A8219
:102FF0001982EA2CBC82AB82082D9E828D82C12C64
:10300000DA80FC801E812F81388549855A856B8541
:103010007C8581E090E00995009721F0BC0181E07A
:1030200090E0C0CE18AE1FAABAAEA9AE21E030E043
:10303000A4016FA978AD89AD9AAD0E94230C0097C9
:1030400069F7E091C402F091C5021A821982BC822C
:10305000AB829E828D82C12CDA80FC801E812F8102
:10306000388549855A856B857C8581E090E0CCCE9A
:10307000E091C202F091C30277247394612CC72CB3
:1030800079826A82EA2CBC82AB82082D9E828D8274
:10309000D12CFC801E812F81388549855A856B850E
:1030A0007C8582E090E00995009721F0BC0182E0E8
:1030B00090E078CE41E050E05CAB4BABBEAAADAA4D
:1030C00022E030E0A4016BA97CA98DA99EA90E94F1
:1030D000230C009759F7E091C402F091C502798260
:1030E0006A82BC82AB829E828D82D62CFC801E813D
:1030F0002F81388549855A856B857C8582E090E0F3
:1031000083CEE091C202F091C30272E0772E612C6F
:10311000C72C79826A82EA2CBC82AB82082D9E82FF
:103120008D82D12CFC801E812F81388549855A855E
:103130006B857C8584E090E00995009721F0BC01C7
:1031400084E090E02FCE82E090E098AB8FA7BAAAFF
:10315000A9AA24E030E0A4016FA578A989A99AA9B9
:103160000E94A40B009759F7E091C402F091C502A8
:1031700079826A82BC82AB829E828D82D62CFC8050
:103180001E812F81388549855A856B857C8584E031
:1031900090E03ACEE091C202F091C3021A82198205
:1031A000EA2CBC82AB82082D9E828D82C12CDA80F3
:1031B000FC801E812F81388549855A856B857C85E9
:1031C00085E090E00995BC01892B39F581149FEFCA
:1031D000990629F063E070E081149104F1F41CA6D3
:1031E0001BA6BEA6ADA6A4016BA57CA58DA59EA51C
:1031F0000E94840962E070E0882379F018A61FA27B
:10320000BAA6A9A66FA178A589A59AA50E94B80912
:103210008816990629F064E070E085E090E0C2CD60
:10322000A2E0A093BE02E091C402F091C5021A820E
:103230001982EA2CBC82AB82082D9E828D82C12C21
:10324000DA80FC801E812F81388549855A856B85FF
:103250007C8585E090E0D8CDE091C202F091C30278
:103260001A821982EA2CBC82AB82082D9E828D8242
:10327000C12CDA80FC801E812F81388549855A85D2
:103280006B857C858FE090E00995BC01892BF9F472
:10329000C40163E0969587956A95E1F794012770DC
:1032A0003327232B09F00196940121503109203D49
:1032B000374058F49501209530952815390528F0A8
:1032C000F20125812817190629F063E070E08FE0EC
:1032D00090E068CDD12CC12C1A821982BC82AB82BD
:1032E000B601CE0101960E943F09AB01BC0188EBFB
:1032F00092E00E944B09892B19F462E070E0E7CF5D
:10330000FFEFCF1ADF0A8C149D0431F71CA21BA219
:10331000BEA2ADA294014BA15CA16DA17EA1C20190
:1033200006960E94CF09811103C064E070E0CFCF00
:103330008091BA029091BB020E94941F85E090E0B8
:103340009093BD028093BC020E94F81EFC019093F2
:10335000BB028093BA02892B31F02FE02083B18227
:10336000A282D382C48283E08093BE02E091C40231
:10337000F091C5021A821982EA2CBC82AB820C2D14
:10338000DE82CD82C12CDA80FC801E812F813885BF
:1033900049855A856B857C858FE090E035CD99EF26
:1033A000980F63E070E09F3E90F5F201329667E07F
:1033B0000E948B1E92E040E063817481762767272C
:1033C00076272581368132272327322750815630B0
:1033D00019F46031774218F062E070E018C02F5F96
:1033E0003F4F220F920F37964F5F8413E5CFE92EA0
:1033F000F12CC7010E94F81E9093BB028093BA0281
:10340000892B41F4C2010E94941F64E070E084E1C2
:1034100090E0C8CCF092BD02E092BC02C2010E94D2
:10342000941FDACF895063E070E0833F48F4C20113
:103430000296420E531E8415950528F462E070E052
:1034400085E190E0AFCC82E08093BE02B090E502CF
:10345000B11003C081E08093BE028091BE02813032
:1034600009F44DCBC090BA02D090BB02E090BC02F0
:10347000F090BD024E2DB6018B2D0E943702A82E72
:10348000992E8091C8029091C90297FD08C0609161
:10349000CA020E94E3028BE99FE00197F1F7809155
:1034A000C6029091C702DC01ED91FC910190F08180
:1034B000E02D6B2D09958091C6029091C702A7015E
:1034C0005527DC01ED91FC910280F381E02DB601DE
:1034D00009958091C6029091C702DC01ED91FC91A3
:1034E0000190F081E02D692D09958091C60290919F
:1034F000C702DC01ED91FC910190F081E02D6A2D75
:1035000009958091C6029091C702DC01ED91FC9172
:103510000680F781E02D09958091C8029091C9023B
:1035200097FDEDCA6091CA0291E069270E94E3020B
:10353000E6CAD20115966D907C9076246724762495
:10354000E091C202F091C30253E0552E412CC52CEC
:1035500059824A82EA2CBC82AB82082D9E828D82DF
:10356000262D78866F82D12CFC801E813885498576
:103570005A856B857C8586E190E00995BC01892B95
:10358000A9F5E3E0F0E0F8A3EF8FBAA2A9A26F8D4E
:1035900078A189A19AA10E94B8097301E826F926A9
:1035A000E820F920E624F72423E030E03C8F2B8F3D
:1035B000BE8EAD8EA7016B8D7C8D8D8D9E8D0E94F4
:1035C000840962E070E0882389F043E050E0588F7E
:1035D0004F8BBA8EA98E6F89788D898D9A8D0E94B6
:1035E000B809E816F90629F064E070E086E190E099
:1035F000D9CB52E05093BE02E091C402F091C502D3
:1036000059824A82EA2CBC82AB829E828D82262D10
:1036100078866F82D42CFC801E81388549855A8536
:103620006B857C8586E190E0EFCBD20115968D917C
:103630009C911697F82FE92FFE87ED8717966D90CE
:103640007C90762467247624E091C202F091C30234
:1036500043E0342E212CC32C39822A82EA2CBC82EE
:10366000AB82082D9E828D82232D3F8228864D8538
:103670008D859E859A878987662D7C866B86D12C61
:10368000FC801E8130E05A857C8587E190E00995B9
:10369000009711F0BC011BC0C40101978D37910543
:1036A000A0F4C30101978D37910578F4C501809589
:1036B00090958815990548F0D20119962C91C3016F
:1036C000880F991F2817190629F063E070E087E139
:1036D00090E068CBE3E0F0E0FC8BEB8B2D853E8542
:1036E0003E8B2D8B93014B895C896D897E89C2014C
:1036F0000A960E943A0A64E070E0882341F343E0AE
:1037000050E0588B4F87BA8AA98A27E130E0A4019C
:103710006F85788989899A890E94A40B009709F09E
:10372000B9CFE091C402F091C50239822A82BC82ED
:10373000AB829E828D82232D3F8228864D858D858A
:103740009E859A878987662D7C866B86D22CFC8025
:103750001E81322D5A857C8587E190E055CB61E052
:1037600070E0892F90E01ECB882339F010E0909113
:10377000D402891302C01111A1C88091C002909196
:10378000C10210E0892B09F099C88091BC02909188
:10379000BD021817190608F0BCC98091C6029091A5
:1037A000C702DC01ED91FC910284F385E02D0995BF
:1037B0001F5FEBCF111162C9A2C98091BA0290912B
:1037C000BB020C94941F5058BB27AA270E94FB1BD6
:1037D0000C94A31D0E94951D38F00E949C1D20F0A2
:1037E00039F49F3F19F426F40C94921D0EF4E095E1
:1037F000E7FB0C94631DE92F0E94B41D58F3BA1720
:10380000620773078407950720F079F4A6F50C94F6
:10381000EE1D0EF4E0950B2EBA2FA02D0B01B90171
:1038200090010C01CA01A0011124FF27591B99F036
:10383000593F50F4503E68F11A16F040A22F232F42
:10384000342F4427585FF3CF469537952795A79592
:10385000F0405395C9F77EF41F16BA0B620B730B39
:10386000840BBAF09150A1F0FF0FBB1F661F771FAA
:10387000881FC2F70EC0BA0F621F731F841F48F45F
:10388000879577956795B795F7959E3F08F0B0CFE8
:103890009395880F08F09927EE0F979587950895CF
:1038A0000E94D61D90F09F3748F4911116F40C94A5
:1038B000EF1D60E070E080E89FE3089526F01B169E
:1038C000611D711D811D0C94691D0C94841D0E9445
:1038D0007B1C0C94A31D0E949C1D58F00E94951DFA
:1038E00040F029F45F3F29F00C94631D51110C94B2
:1038F000EF1D0C94921D0E94B41D68F39923B1F33F
:10390000552391F3951B550BBB27AA276217730705
:10391000840738F09F5F5F4F220F331F441FAA1F99
:10392000A9F335D00E2E3AF0E0E832D09150504055
:10393000E695001CCAF72BD0FE2F29D0660F771F03
:10394000881FBB1F261737074807AB07B0E809F0E9
:10395000BB0B802DBF01FF2793585F4F3AF09E3F6E
:10396000510578F00C94631D0C94EF1D5F3FE4F358
:10397000983ED4F3869577956795B795F7959F5FB1
:10398000C9F7880F911D9695879597F90895E1E0FD
:10399000660F771F881FBB1F621773078407BA075C
:1039A00020F0621B730B840BBA0BEE1F88F7E095B7
:1039B00008950E94E01C6894B1110C94EF1D0895C5
:1039C0000E94BC1D88F09F5798F0B92F9927B751D6
:1039D000B0F0E1F0660F771F881F991F1AF0BA95B3
:1039E000C9F714C0B13091F00E94EE1DB1E0089506
:1039F0000C94EE1D672F782F8827B85F39F0B93FF8
:103A0000CCF3869577956795B395D9F73EF4909565
:103A10008095709561957F4F8F4F9F4F0895E894E3
:103A200009C097FB3EF490958095709561957F4F06
:103A30008F4F9F4F9923A9F0F92F96E9BB279395B4
:103A4000F695879577956795B795F111F8CFFAF4C4
:103A5000BB0F11F460FF1BC06F5F7F4F8F4F9F4FF5
:103A600016C0882311F096E911C0772321F09EE853
:103A7000872F762F05C0662371F096E8862F70E0B9
:103A800060E02AF09A95660F771F881FDAF7880F93
:103A90009695879597F908950E94D61D90F09F37C7
:103AA00048F4911116F00C94EF1D60E070E080E88E
:103AB0009FEB089526F41B16611D711D811D0C944A
:103AC000691D0C94841D97F99F6780E870E060E0A1
:103AD0000895882371F4772321F09850872B762F4F
:103AE00007C0662311F499270DC09051862B70E012
:103AF00060E02AF09A95660F771F881FDAF7880F23
:103B00009695879597F908959F3F31F0915020F44D
:103B1000879577956795B795880F911D96958795A9
:103B200097F908959FEF80EC089500240A941616E3
:103B3000170618060906089500240A94121613069B
:103B4000140605060895092E0394000C11F4882329
:103B500052F0BB0F40F4BF2B11F460FF04C06F5F45
:103B60007F4F8F4F9F4F089557FD9058440F551F1B
:103B700059F05F3F71F04795880F97FB991F61F0EF
:103B80009F3F79F087950895121613061406551F66
:103B9000F2CF4695F1DF08C0161617061806991FD2
:103BA000F1CF869571056105089408950E94BC1DAA
:103BB000A0F0BEE7B91788F4BB279F3860F416164B
:103BC000B11D672F782F8827985FF7CF8695779557
:103BD0006795B11D93959639C8F30895E894BB276E
:103BE00066277727CB0197F908950E94671E08F48E
:103BF0008FEF08950E940D1E0C94A31D0E94951D29
:103C000038F00E949C1D20F0952311F00C94631D48
:103C10000C94921D11240C94EF1D0E94B41D70F39E
:103C2000959FC1F3950F50E0551F629FF001729F61
:103C3000BB27F00DB11D639FAA27F00DB11DAA1F70
:103C4000649F6627B00DA11D661F829F2227B00DBD
:103C5000A11D621F739FB00DA11D621F839FA00D48
:103C6000611D221F749F3327A00D611D231F849F98
:103C7000600D211D822F762F6A2F11249F575040EF
:103C80009AF0F1F088234AF0EE0FFF1FBB1F661F6A
:103C9000771F881F91505040A9F79E3F510580F033
:103CA0000C94631D0C94EF1D5F3FE4F3983ED4F336
:103CB000869577956795B795F795E7959F5FC1F7D7
:103CC000FE2B880F911D9695879597F90895990F6A
:103CD0000008550FAA0BE0E8FEEF16161706E807D6
:103CE000F907C0F012161306E407F50798F0621BF7
:103CF000730B840B950B39F40A2661F0232B242BCC
:103D0000252B21F408950A2609F4A140A6958FEFEA
:103D1000811D811D0895991B79E004C0991F961794
:103D200008F0961B881F7A95C9F780950895052E8F
:103D300097FB1EF400940E94AE1E57FD07D00E9410
:103D4000C71E07FC03D04EF40C94AE1E5095409550
:103D5000309521953F4F4F4F5F4F08959095809537
:103D6000709561957F4F8F4F9F4F0895EE0FFF1F06
:103D70000590F491E02D09940E94E91EA59F900DF5
:103D8000B49F900DA49F800D911D11240895A1E270
:103D90001A2EAA1BBB1BFD010DC0AA1FBB1FEE1FC5
:103DA000FF1FA217B307E407F50720F0A21BB30B10
:103DB000E40BF50B661F771F881F991F1A9469F78C
:103DC00060957095809590959B01AC01BD01CF01E8
:103DD0000895A29FB001B39FC001A39F700D811DE4
:103DE0001124911DB29F700D811D1124911D089504
:103DF0000F931F93CF93DF938230910510F482E0ED
:103E000090E0E0910903F0910A0330E020E0B0E097
:103E1000A0E0309799F42115310509F44AC0281B18
:103E2000390B24303105D8F58A819B8161157105E4
:103E300089F1FB0193838283FE0111C0408151818E
:103E40000281138148175907E0F04817590799F480
:103E5000109761F012960C93129713961C9332965A
:103E6000CF01DF91CF911F910F9108950093090326
:103E700010930A03F4CF2115310551F0421753076F
:103E800038F0A901DB019A01BD01DF01F801C1CFC2
:103E9000EF01F9CF90930A0380930903CDCFFE0180
:103EA000E20FF31F819391932250310939832883C4
:103EB000D7CF2091070330910803232B41F42091A1
:103EC00002013091030130930803209307032091EE
:103ED0000001309101012115310541F42DB73EB7A4
:103EE0004091040150910501241B350BE09107031B
:103EF000F0910803E217F307A0F42E1B3F0B2817DD
:103F0000390778F0AC014E5F5F4F2417350748F052
:103F10004E0F5F1F509308034093070381939193C3
:103F20009FCFF0E0E0E09CCFCF93DF930097E9F0E4
:103F3000FC01329713821282A0910903B0910A0307
:103F4000ED0130E020E01097A1F420813181820F53
:103F5000931F20910703309108032817390709F0B0
:103F600061C0F0930803E0930703DF91CF910895B8
:103F7000EA01CE17DF07E8F54A815B819E01411512
:103F80005105B1F7E901FB83EA8349915991C40FC7
:103F9000D51FEC17FD0761F4808191810296840F93
:103FA000951FE90199838883828193819B838A830A
:103FB000F0E0E0E012968D919C9113970097B9F58F
:103FC0002D913C911197CD010296820F931F209164
:103FD0000703309108032817390739F6309751F550
:103FE00010920A0310920903B0930803A0930703E9
:103FF000BCCFD383C28340815181840F951FC817E2
:10400000D90761F44E5F5F4F88819981480F591F2E
:10401000518340838A819B8193838283211531055B
:1040200009F0B0CFF0930A03E09309039ECFFD019E
:10403000DC01C0CF13821282D7CFB0E0A0E0E3E270
:10404000F0E20C94E5208C01009751F4CB010E9422
:10405000F81E8C01C801CDB7DEB7E0E10C94012158
:10406000FC01E60FF71F9C0122503109E217F3070C
:1040700008F49DC0D901CD91DC911197C617D707DF
:1040800098F0C530D10530F3CE0104978617970715
:1040900008F3C61BD70B2297C193D1936D937C93E2
:1040A000CF010E94941FD6CF5B01AC1ABD0A4C0110
:1040B0008C0E9D1EA0910903B0910A03512C412C36
:1040C000F12CE12C109731F58091070390910803B2
:1040D0008815990509F05CC04616570608F058C0C7
:1040E0008091000190910101009741F48DB79EB736
:1040F0004091040150910501841B950BE817F907C5
:1041000008F055C0F0930803E0930703F9017183A9
:104110006083A0CF8D919C91119712966C9012970D
:1041200013967C901397A815B90559F56C0142E0D8
:10413000C40ED11CCA14DB0420F1AC014A195B097E
:10414000DA011296159780F0628273825183408360
:10415000D9016D937C93E114F10471F0D7011396AA
:10416000FC93EE93129776CF22968C0F9D1FF90148
:1041700091838083F301EFCFF0930A03E093090367
:1041800069CF4816590608F42C017D01D3019ACF56
:10419000CB010E94F81E7C01009749F0AE01B801E6
:1041A0000E94DA20C8010E94941F870153CF10E0BB
:1041B00000E050CFFB01DC0102C001900D924150A4
:1041C0005040D8F708952F923F924F925F926F928E
:1041D0007F928F929F92AF92BF92CF92DF92EF9297
:1041E000FF920F931F93CF93DF93CDB7DEB7CA1B18
:1041F000DB0B0FB6F894DEBF0FBECDBF09942A8843
:10420000398848885F846E847D848C849B84AA84EA
:10421000B984C884DF80EE80FD800C811B81AA8177
:10422000B981CE0FD11D0FB6F894DEBF0FBECDBF42
:10423000ED01089511E0C3E6D1E004C0FE010E9443
:0E424000B61E2196C436D107C9F7F894FFCFF9
:10424E0000000B03800000000000100670059D05A5
:10425E005D06CE05AC05C00500000000F208C508DD
:10426E003C09A2085202B208A308000000004B0944
:0A427E00940A696E6974000D0A00CD
:00000001FF
