:100000000C9491010C94B9010C94B9010C94B901B0
:100010000C94B9010C94B9010C94B9010C944308E7
:100020000C94B9010C94B9010C94B9010C94B90168
:100030000C94B9010C94B9010C94B9010C94B90158
:100040000C94A1070C94B9010C9411080C94EB07C3
:100050000C94B9010C94B9010C94B9010C94B90138
:100060000C94B9010C94B90108000000BE92244917
:10007000123EABAAAA2ABECDCCCC4C3E00000080DA
:10008000BEABAAAAAA3E00000000BF000000803F4D
:100090000000000000084178D3BB4387D1133D190D
:1000A0000E3CC3BD4282AD2B3E68EC8276BED98F3A
:1000B000E1A93E4C80EFFFBE01C4FF7F3F0000007E
:1000C0000000000000080002010000030407000017
:1000D0000000000000000000C0C1C1810140C30158
:1000E00003C00280C241C60106C00780C7410500A7
:1000F000C5C1C4810440CC010CC00D80CD410F00AE
:10010000CFC1CE810E400A00CAC1CB810B40C901CC
:1001100009C00880C841D80118C01980D9411B0006
:10012000DBC1DA811A401E00DEC1DF811F40DD0124
:100130001DC01C80DC411400D4C1D5811540D701FD
:1001400017C01680D641D20112C01380D3411100CE
:10015000D1C1D0811040F00130C03180F141330075
:10016000F3C1F28132403600F6C1F7813740F50124
:1001700035C03480F4413C00FCC1FD813D40FF01AD
:100180003FC03E80FE41FA013AC03B80FB4139004E
:10019000F9C1F88138402800E8C1E9812940EB0124
:1001A0002BC02A80EA41EE012EC02F80EF412D00A6
:1001B000EDC1EC812C40E40124C02580E5412700FD
:1001C000E7C1E68126402200E2C1E3812340E1014C
:1001D00021C02080E041A00160C06180A141630096
:1001E000A3C1A28162406600A6C1A7816740A501A4
:1001F00065C06480A4416C00ACC1AD816D40AF01AD
:100200006FC06E80AE41AA016AC06B80AB416900CD
:10021000A9C1A88168407800B8C1B9817940BB0103
:100220007BC07A80BA41BE017EC07F80BF417D0025
:10023000BDC1BC817C40B40174C07580B5417700FC
:10024000B7C1B68176407200B2C1B3817340B101CB
:1002500071C07080B041500090C1918151409301B4
:1002600053C052809241960156C057809741550025
:1002700095C1948154409C015CC05D809D415F00AC
:100280009FC19E815E405A009AC19B815B4099014B
:1002900059C058809841880148C0498089414B0025
:1002A0008BC18A814A404E008EC18F814F408D01A3
:1002B0004DC04C808C41440084C1858145408701FC
:1002C00047C046808641820142C04380834141004D
:1002D00081C1808140400000000000002400270010
:1002E0002A00000000002300260029000000000072
:1002F000250028002B000404040404040404020262
:100300000202020203030303030301020408102094
:10031000408001020408102001020408102068082F
:10032000EB1311241FBECFEFD8E0DEBFCDBF11E02D
:10033000A0E0B1E0E6E0F2E302C005900D92A03249
:10034000B107D9F722E0A0E2B1E001C01D92A932C5
:10035000B207E1F711E0C0E9D1E004C02197FE0146
:100360000E94B416CF38D107C9F70E949A090C949D
:10037000F6180C940000CF92DF92EF92FF920F9349
:100380001F93CF93DF93CDB7DEB72C970FB6F894BA
:10039000DEBF0FBECDBF90E080E02C960FB6F89484
:1003A000DEBF0FBECDBFDF91CF911F910F91FF90A8
:1003B000EF90DF90CF900895AF92BF92CF92DF92EF
:1003C000EF92FF920F931F93CF93DF93CDB7DEB7DA
:1003D00028970FB6F894DEBF0FBECDBF7C016A012F
:1003E000CB0110E000E02091D401211130C0209118
:1003F000D2013091D3014091CE015091CF01D8016B
:1004000063E0AA0FBB1F6A95E1F7A40FB51F201781
:10041000310700F11296AD90BC901397F7016081FF
:100420007181A616B70679F41496AD90BC90159715
:1004300062817381A616B70631F46D917C91119794
:10044000C616D70639F00F5F1F4F1896E0CF01E0B0
:1004500010E019C02F5F3F4F02171307C0F4F801D7
:1004600023E0EE0FFF1F2A95E1F7E40FF51F28E0C8
:10047000DE01119601900D922A95E1F7EF81F88542
:10048000BC01C70109952091D40121110CC00F5F57
:100490001F4F2091D2013091D3012F5F3F4F0217A0
:1004A000130708F4A0CF28960FB6F894DEBF0FBE4E
:1004B000CDBFDF91CF911F910F91FF90EF90DF9013
:1004C000CF90BF90AF9008958095E82FF0E0EE0FA9
:1004D000FF1FEA52FF4F859194919095DB014150A7
:1004E00068F0ED91E927F0E0EE0FFF1FEA52FF4FB1
:1004F00025913491982F9327822FF1CF089590E082
:10050000FC01EE53FF4F2491FC01E65FFC4F349158
:10051000FC01EA50FD4FE491EE23C9F0222339F0AB
:10052000233001F1A8F4213019F1223029F1F0E053
:10053000EE0FFF1FE451FD4FA591B4918FB7F894D2
:10054000EC91611126C030953E233C938FBF0895F6
:100550002730A9F02830C9F0243049F78091800075
:100560008F7D03C0809180008F7780938000DFCFE4
:1005700084B58F7784BDDBCF84B58F7DFBCF809131
:10058000B0008F778093B000D2CF8091B0008F7D84
:10059000F9CF3E2BDACF8E3008F08E508770806412
:1005A00080937C0080917A00806480937A008091AF
:1005B0007A0086FDFCCF80917800909179000895B3
:1005C0003FB7F89480912D0190912E01A0912F01B9
:1005D000B091300126B5A89B05C02F3F19F00196B8
:1005E000A11DB11D3FBFBA2FA92F982F8827BC018D
:1005F000CD01620F711D811D911D42E0660F771FB5
:10060000881F991F4A95D1F70895AF92BF92CF9254
:10061000DF92EF92FF920F931F93CF93DF936C01C2
:100620007B018B01040F151FEB015E01AE18BF08A3
:10063000C017D10759F06991D601ED91FC91019055
:10064000F081E02DC6010995892B79F7C501DF916D
:10065000CF911F910F91FF90EF90DF90CF90BF90BF
:10066000AF900895FC01538D448D252F30E0842FE9
:1006700090E0821B930B541710F0CF9608950197CA
:100680000895FC01918D828D981761F0A28DAE0FB7
:10069000BF2FB11D5D968C91928D9F5F9F73928F3E
:1006A00090E008958FEF9FEF0895FC01918D828D6A
:1006B000981731F0828DE80FF11D858D90E0089537
:1006C0008FEF9FEF0895FC01918D228D892F90E08F
:1006D000805C9F4F821B91098F739927089581E356
:1006E00091E00E94630321E0892B09F420E0822F2E
:1006F000089580E090E0892B29F00E946F0381111A
:100700000C9400000895FC01A48DA80FB92FB11D11
:10071000A35ABF4F2C91848D90E001968F73992737
:10072000848FA689B7892C93A089B1898C91837015
:1007300080648C93938D848D981306C00288F3890E
:10074000E02D80818F7D80830895EF92FF920F933B
:100750001F93CF93DF93EC0181E0888F9B8D8C8D6D
:1007600098131AC0E889F989808185FF15C09FB761
:10077000F894EE89FF896083E889F9898081837024
:10078000806480839FBF81E090E0DF91CF911F91D3
:100790000F91FF90EF900895F62E0B8D10E00F5FF4
:1007A0001F4F0F731127E02E8C8D8E110CC00FB6CA
:1007B00007FCFACFE889F989808185FFF5CFCE0162
:1007C0000E948303F1CFEB8DEC0FFD2FF11DE35A57
:1007D000FF4FF0829FB7F8940B8FEA89FB898081E5
:1007E0008062CFCFCF93DF93EC01888D8823B9F05F
:1007F000AA89BB89E889F9898C9185FD03C080812C
:1008000086FD0DC00FB607FCF7CF8C9185FFF2CFA8
:10081000808185FFEDCFCE010E948303E9CFDF9178
:10082000CF910895FC01AB01608171818281938138
:1008300022813381CA01820F931F0895CF93DF93E2
:100840008091DB01811122C0DA014091D9015091E0
:10085000DA018091D5019091D601FC0130E020E0D1
:10086000C081D181CA17DB0729F4C281D3816C17FB
:100870007D0731F02F5F3F4F36964217530780F7C1
:10088000BA016F5F7F4F2617370718F090E080E0BE
:100890000BC042175307D0F366E0629FA001639F2D
:1008A000500D1124840F951FDF91CF910895EF9281
:1008B000FF920F931F93CF937A01AB01BC018FEE90
:1008C00091E00E941E048C01C0E0009761F0C0918D
:1008D000F601CC2379F050E040E0B7010E94DC0142
:1008E000F801958384838C2FCF911F910F91FF90F6
:1008F000EF900895FC01F582E482C1E0F4CF0F93FC
:100900001F93AB0103E010E020E030E0B8011F913D
:100910000F910C945704AB01BC018FEE91E00E9443
:100920001E04009759F0FC01648175812091F60145
:10093000222331F041E050E00C94DC0170E060E0F3
:10094000CB0108952F923F924F925F926F927F92C8
:100950008F929F92AF92BF92CF92DF92EF92FF92CF
:100960000F931F93CF93DF935C012A01EB01790171
:10097000E60EF71E2224239410E000E0312CCE1561
:10098000DF05B9F16501C00ED11E832CF60180810F
:1009900090E0032C02C0959587950A94E2F750E009
:1009A00040E080FF02C040E05FEFCE01B2010E9454
:1009B0005704CE01B2010E948B04F601208130E081
:1009C00002C0359527958A94E2F720FD0FC030E0EC
:1009D00020E08217930709F0212C3394F8E03F12AE
:1009E00003C00F5F1F4F312C2196C9CF20E03FEF8E
:1009F000F0CF822DDF91CF911F910F91FF90EF905B
:100A0000DF90CF90BF90AF909F908F907F906F902E
:100A10005F904F903F902F9008956F927F928F92AA
:100A20009F92AF92BF92CF92DF92EF92FF920F937D
:100A30001F93CF93DF9300D000D0CDB7DEB73C013A
:100A400049835A836B837C834901D12CCC24C39482
:100A5000ED2CF12CE814F90430F58701000F111F7B
:100A6000060D171DF801A080B180BA24AB24BA246A
:100A7000B701CE0101960E941204A5010E945704FD
:100A8000B701CE0101960E9412040E948B04F80166
:100A9000208131813227232732278217930709F0DB
:100AA000C12CD394D5CF8C2D0F900F900F900F9019
:100AB000DF91CF911F910F91FF90EF90DF90CF903A
:100AC000BF90AF909F908F907F906F900895FC01A2
:100AD00065A570E090E080E0089560E070E0CB01F3
:100AE0000895CF93DF93CDB7DEB72A970FB6F8946A
:100AF000DEBF0FBECDBF6F83788789879A878985D0
:100B00009A85019609F486C070E060E0CE010796F0
:100B10000E941204AB01BC018FEE91E00E941E0402
:100B2000892B09F077C070E060E0CE0107960E9443
:100B3000120469837A838B839C838091D501909181
:100B4000D601892BA1F48091D7019091D80126E09C
:100B5000AC01249FC001259F900D11240E94D41642
:100B60009093D6018093D501892B09F453C08091CD
:100B7000D7019091D8019C01215031094091D901B0
:100B80005091DA0142175307E8F0019626E0289FBA
:100B9000B001299F700D11248091D5019091D6014B
:100BA0000E94F9170097B1F12091D7013091D80137
:100BB0002F5F3F4F3093D8012093D7019093D601F8
:100BC0008093D5018091DB0181110AC08091D90108
:100BD0009091DA0101969093DA018093D90102C0D5
:100BE0001092DB014091D9015091DA0186E0849F97
:100BF0009001859F300D1124A091D501B091D601AF
:100C0000A20FB31F1E821D82FE01319601900D922C
:100C10008A95E1F781E02A960FB6F894DEBF0FBE01
:100C2000CDBFDF91CF9108950F931F9380910B0259
:100C3000811104C080E01F910F9108950E94E0028D
:100C400000910C0210910D0220910E0230910F02C2
:100C5000601B710B820B930B613472448F409105C2
:100C600048F3E0911002F0911102309759F050E0F2
:100C700040E070E060E084EE90E00995109211028F
:100C80001092100280911402909115020E94701728
:100C90001092150210921402109213021092120276
:100CA00010920B0281E0C7CFCF93DF93C82FD62FCE
:100CB0008091F1019091F2010E94701782E090E022
:100CC0009093F4018093F3010E94D416FC01909359
:100CD000F2018093F10181E0309721F0C058C08388
:100CE000D18383E08093F501DF91CF9108958F92B6
:100CF0009F92AF92BF92DF92EF92FF920F931F935A
:100D0000CF93DF9300D000D0CDB7DEB7FA01319793
:100D1000ED37F10508F064C0FC01E095F095E417AB
:100D2000F50708F45DC0D22E7A014B015C01BC01CD
:100D3000A4018FEE91E00E941E04892B09F453C098
:100D40008091F1019091F2010E94701787010F5F6D
:100D50001F4F000F111F1093F4010093F301C801FE
:100D60000E94D416FC019093F2018093F10184E07B
:100D700090E0309729F1D0820250018389829A82D3
:100D8000AB82BC828F010E5F1F4FB12CA12CB5012D
:100D9000CE0101960E9412040E948B049827892795
:100DA0009827F801819391938F01FFEFAF1ABF0A43
:100DB000EA14FB0461F783E08093F50190E080E0A2
:100DC0000F900F900F900F90DF91CF911F910F9187
:100DD000FF90EF90DF90BF90AF909F908F9008951D
:100DE00083E090E0EDCF82E090E0EACF2F923F9257
:100DF0004F925F926F927F928F929F92AF92BF922B
:100E0000DF92EF92FF920F931F93CF93DF93FA013C
:100E10003197E03DF74008F091C08C01FC01E0956E
:100E2000F095E417F50708F489C0D22E1A012B01BA
:100E30003C01BC01A2018FEE91E00E941E04892BAF
:100E400009F47CC08091F1019091F2010E94701729
:100E5000C10123E0969587952A95E1F791012770C6
:100E60003327232B09F04EC002969093F401809310
:100E7000F301E090F301F090F401C7010E94D41651
:100E8000EC019093F2018093F10184E090E02097CF
:100E900009F442C0D8828EEF8E0D8983EC0EFD1EC0
:100EA000F70131971082260C371CF12CE12CD12C44
:100EB000812C912C540183940215130541F1C80132
:100EC000B2010E948B04F7013296EC0FFD1FB501B1
:100ED000A4010D2C04C0440F551F661F771F0A94F0
:100EE000D2F7208181159F4F79F4242B2083D3944E
:100EF00088E0D81204C03FEFE31AF30AD12C0F5F49
:100F00001F4FDACF0396B1CF40952423EFCF83E074
:100F10008093F50190E080E0DF91CF911F910F91D8
:100F2000FF90EF90DF90BF90AF909F908F907F9059
:100F30006F905F904F903F902F90089583E090E0E6
:100F4000EBCF1F920F920FB60F9211242F933F9366
:100F50008F939F93AF93BF938091290190912A0122
:100F6000A0912B01B0912C013091280123E0230F97
:100F70002D3758F50196A11DB11D209328018093AE
:100F8000290190932A01A0932B01B0932C01809109
:100F90002D0190912E01A0912F01B0913001019669
:100FA000A11DB11D80932D0190932E01A0932F01BF
:100FB000B0933001BF91AF919F918F913F912F914D
:100FC0000F900FBE0F901F90189526E8230F0296E2
:100FD000A11DB11DD2CF1F920F920FB60F921124F7
:100FE0002F933F934F935F936F937F938F939F9331
:100FF000AF93BF93EF93FF9381E391E00E9483034C
:10100000FF91EF91BF91AF919F918F917F916F91E0
:101010005F914F913F912F910F900FBE0F901F90B6
:1010200018951F920F920FB60F9211242F938F9342
:101030009F93EF93FF93E0914101F09142018081F2
:10104000E0914701F091480182FD1BC090818091A1
:101050004A018F5F8F7320914B01821741F0E0911D
:101060004A01F0E0EF5CFE4F958F80934A01FF91BB
:10107000EF919F918F912F910F900FBE0F901F9026
:1010800018958081F4CF1F920F920FB60F92112402
:101090002F933F934F935F936F937F938F939F9380
:1010A000AF93BF93EF93FF93F0E0E0E00995FF91DA
:1010B000EF91BF91AF919F918F917F916F915F91D0
:1010C0004F913F912F910F900FBE0F901F90189549
:1010D000109234011092330188EE93E0A0E0B0E06A
:1010E0008093350190933601A0933701B093380176
:1010F0008AE091E0909332018093310185EC90E099
:1011000090933E0180933D0184EC90E090934001E8
:1011100080933F0180EC90E09093420180934101E5
:1011200081EC90E0909344018093430182EC90E045
:10113000909346018093450186EC90E0909348019E
:101140008093470110924A0110924B0110924C017A
:1011500010924D011092D8011092D7011092DA012D
:101160001092D90181E08093DB0186E090E00E943B
:10117000D4169093D6018093D501892B31F081E06C
:1011800090E09093D8018093D7011092D1011092F2
:10119000D0011092D3011092D20181E08093D4014A
:1011A00088E090E00E94D4169093CF018093CE0106
:1011B000892B31F081E090E09093D1018093D001B0
:1011C00081E080931D022BE63DE030931F022093C7
:1011D0001E0299E19093200240E050E060E87FE336
:1011E00040932102509322026093230270932402C1
:1011F0001092F2011092F1011092F4011092F30199
:101200001092F5018093F6011092F8011092F70107
:101210002BEB31E03093FA012093F9013093FC017C
:101220002093FB012FEF3FEF309300022093FF014B
:101230008093010210920602109207021092080297
:101240001092090210920A0210920C0210920D02E2
:1012500010920E0210920F021092110210921002C0
:1012600010921302109212021092150210921402A0
:101270001092170210921602109219021092180280
:101280008DE790E090931B0280931A0210921C024B
:101290008CE191E09093F0018093EF01E2E1F3E0C3
:1012A00024912093E001E3E1F3E0E491E093E10194
:1012B0008EEF92E0FC013491E32FF0E0EE0FFF1F80
:1012C000E451FD4F459154915093E3014093E20165
:1012D000EFEFF2E0E491F0E0EE0FFF1FEE51FD4F73
:1012E000459154915093E5014093E401FC018491B0
:1012F000E82FF0E0EE0FFF1FE852FD4FA591B491EB
:10130000B093E701A093E6011092EE0181EC9CE21C
:101310009093E9018093E801EC912E2B2C93E091BE
:10132000E201F091E30190818091E00180958923B1
:1013300080830895CF93DF93CDB7DEB7CA54D10928
:101340000FB6F894DEBF0FBECDBF789484B582602F
:1013500084BD84B5816084BD85B5826085BD85B559
:10136000816085BD80916E00816080936E001092D7
:101370008100809181008260809381008091810052
:1013800081608093810080918000816080938000E3
:101390008091B10084608093B1008091B000816041
:1013A0008093B00080917A00846080937A0080916D
:1013B0007A00826080937A0080917A0081608093C5
:1013C0007A0080917A00806880937A001092C10040
:1013D000E0914101F091420182E08083E0913D0182
:1013E000F0913E011082E0913F01F09140018FECBD
:1013F000808310924901E0914501F091460186E019
:101400008083E0914301F091440180818061808379
:10141000E0914301F0914401808188608083E091F4
:101420004301F0914401808180688083E091430111
:10143000F091440180818F7D808387EA9FE0A0E066
:10144000B0E08093020290930302A0930402B09351
:10145000050281E391E09093FE018093FD0181E01C
:1014600080930B0263E070E080E090E00E947105E1
:1014700063E070E081E090E00E94710563E070E05D
:1014800082E090E00E9471050E94E0022B013C0185
:10149000B8EE8B2EB3E09B2EA12CB12C0E94E00263
:1014A0006419750986099709683E7340810591059D
:1014B000A8F321E0821A9108A108B10838EE430E82
:1014C00033E0531E611C711C81149104A104B1040A
:1014D00029F7A3E03A2E212C2FB7F8948091290107
:1014E00090912A01A0912B01B0912C012FBF409126
:1014F0002401509125016091260170912701841BE0
:10150000950BA60BB70B893E9340A105B10508F4D6
:10151000FCC08EE00E94CB02BC01990F880B990B96
:101520000E94081520E030E040EA50E40E94E415F3
:1015300020E030EC4FE754E40E945E1420E030E0FD
:1015400048EC52E40E94E4150E94D01490E080E040
:101550000E947F0414E1F12CE12C80911D020E9475
:10156000CB02E80EF91E1150C1F7B70190E080E000
:101570000E94061520E030E040EA51E40E945E142B
:101580009B01AC0160E070EC8FE794E40E945E1474
:1015900020E030E040E85FE30E94F1139B01AC01E2
:1015A0006091210270912202809123029091240285
:1015B0000E945E140E949C152B013C016091200248
:1015C00070E090E080E00E94081523E333E948E8EA
:1015D00053E40E94F2139B01AC0160E070E080E8EC
:1015E0009FE30E945E144B015C0160911E027091AA
:1015F0001F0290E080E00E9406159B01AC01C30130
:10160000B2010E945E149B01AC01C501B4010E94AD
:10161000F2139B01AC0160E070E080E89FE30E9460
:101620005E1423E333E948E853E40E94F11320E019
:1016300030E040E251E40E94E4150E94D01481E0C1
:1016400090E00E947F04E091E601F091E701808143
:101650009091E001892B8083E091E201F091E30118
:1016600080819091E001892B80838BE290E001974B
:10167000F1F7E091E201F091E30190818091E001C6
:101680008095892380838091EE01882351F0E09139
:10169000E601F091E70190818091E0018095892336
:1016A0008083E091E401F091E50180819091E10176
:1016B000892309F46EC090E080E0BC0190E080E0F6
:1016C00029E330E040E050E00E949216AAE0B0E04A
:1016D0000E94BA160E9406150E94D01482E090E083
:1016E0000E947F042FB7F8948091290190912A01DC
:1016F000A0912B01B0912C012FBF809324019093D6
:101700002501A0932601B09327018091FD019091BE
:10171000FE01DC01ED91FC910084F185E02D09953D
:101720002091F3013091F40128173907C8F4809112
:10173000FD019091FE01DC01ED91FC910084F185A9
:10174000E02D09959093F4018093F3010E94E0024B
:101750006093060270930702809308029093090237
:1017600080910A022091F3013091F401232B09F0BA
:1017700082C081110E941406E0E0F0E0EF2B09F432
:10178000ABCE0E946F03882309F4A6CE0E9400000E
:10179000A3CE0E94E002AB01BC018091E8019091D0
:1017A000E901B0E0A0E08855994EAF4FBF4F840FDC
:1017B000951FA61FB71F8093EA019093EB01A0939A
:1017C000EC01B093ED01E091E401F091E50180813D
:1017D0009091E101892381F40E94E0020091EA01E5
:1017E0001091EB012091EC013091ED0106171707E4
:1017F0002807390740F75FCF0E94E0022091E801F7
:101800003091E901620F731F811D911D6093EA0100
:101810007093EB018093EC019093ED01E091E40172
:10182000F091E50180819091E101892381F00E948E
:10183000E0020091EA011091EB012091EC0130915E
:10184000ED01061717072807390740F734CF0E9424
:10185000E0022091E8013091E901A90145505109C8
:101860002091EA013091EB01DA01A21BB30BCD010B
:10187000860F971F22CF882309F469C00E94E002D7
:10188000009106021091070220910802309109028E
:10189000601B710B820B930B0091020210910302EB
:1018A00020910402309105026017710782079307A7
:1018B00008F462CF8091FD019091FE01DC01ED9171
:1018C000FC910284F385E02D099580931C02209100
:1018D000F3013091F401215031093093F401209348
:1018E000F30190910A02992329F090910B02992318
:1018F00009F448C711E0811148C78091F101909126
:10190000F2010E9470178091F3019091F4010E94FE
:10191000D4169093F2018093F10100E0892B09F035
:101920006EC010E08091F3019091F4011817190630
:1019300008F00EC18091FD019091FE01DC01ED9156
:10194000FC910284F385E02D09951F5FEBCF0E9487
:10195000E0024B015C010E94E0020091060210913E
:1019600007022091080230910902601B710B820B63
:10197000930B009102021091030220910402309116
:101980000502601771078207930708F093CF8091D3
:10199000FD019091FE01DC01ED91FC910084F18547
:1019A000E02D09952091F3013091F40128173907B2
:1019B000C8F48091FD019091FE01DC01ED91FC9154
:1019C0000084F185E02D09959093F4018093F30153
:1019D0000E94E0026093060270930702809308025F
:1019E000909309020E94E002681979098A099B090B
:1019F000613A76488140910508F4ADCFBDCEE02E26
:101A0000F12C8091F3019091F401E816F906A8F405
:101A10008091FD019091FE01DC01ED91FC91028429
:101A2000F385E02D09952091F1013091F201E20E4C
:101A3000F31EF70180830F5FE2CF6091F101709197
:101A4000F201AC0142505109FB01E40FF51FE080A7
:101A5000860F971FFC0131978081FE2CE82E509352
:101A6000F4014093F30180911C020E946402E81685
:101A7000F90609F063C0F7EEF093F501E091F70184
:101A8000F091F8012091F1013091F201309709F4C1
:101A90009FC680911C0290910A0241E094278A839C
:101AA0009983AE014F5F5F4F6091F301C9010995C2
:101AB0008093F501112309F43EC04090F10150904C
:101AC000F20180910A0281114AC08091F501875E7E
:101AD000823008F033C0F2019081A180B280BA2434
:101AE000AB24BA248181282F30E08380948098240D
:101AF00089249824EFEFE90FE73108F03EC6F0E0C3
:101B0000EC57F24F0C94B41607104C101F0F9510A1
:101B1000DE10B70EBD13BD13BD13BD13BD13BD1332
:101B2000BD13BD1340116A0FBD13BD13BD13E511E5
:101B30002812AF122713883E09F4BFCF8091F1011C
:101B40009091F2010E9470171092F2011092F1012F
:101B50001092F4011092F30180910A020ACED20190
:101B6000EC919E2F9F77A0911402B09115028C9159
:101B7000981385C08091F501875E823008F05DC0C2
:101B8000A0901202B09013024091160250911702D9
:101B90006091180270911902E7FF05C0F20181817E
:101BA0008093F5014AC0E91711F082EEF9CF109247
:101BB000F50113962D913C91322723273227E150CE
:101BC000E73108F0D2C0F0E0E851F24F0C94B416BF
:101BD000430E430EFF0DFF0D1D0E1D0EB50EB50E6F
:101BE000B50EB50EB50EB50EB50EB50E1D0E1D0E0D
:101BF000B50EB50EB50E7C0E1D0E1D0EFF0DD201DD
:101C00001196EC91C901880F991FE817190609F080
:101C1000CCCFC2010296A114B10469F0FC01D50138
:101C20002150310950F08191919198278927982767
:101C30008D939D93F5CF0E940D05E0911002F091D8
:101C40001102309761F08091F50150E040E070E0C2
:101C500060E090E0099510921102109210028091BC
:101C60001402909115020E947017109215021092A2
:101C70001402109213021092120210920B02B1E0A1
:101C8000B093F5015BCFC901E3E096958795EA959E
:101C9000E1F7E82FD901A770BB27AB2B11F0E1E0EA
:101CA000E80FD20111968C918E137FCFA114B1044D
:101CB000F1F0F5012A0D3B1D50E040E060E0E21735
:101CC000F30709F4BACFD201A40FB51F12968C9175
:101CD00090E0062E02C0959587950A94E2F78170F0
:101CE00081936F5F683059F74F5F5F4FE7CFC20155
:101CF00002960E94A204A1CFF201818199EF980F70
:101D00009F3E20F0F3E0F093F50197CF420122E0EF
:101D1000820E911C480E511C8414950408F08DCF3E
:101D2000D40111968C911197863061F74C9189EF0F
:101D3000840F8F3E38F750E0C401840F951F48167A
:101D4000590600F3B4016E5F7F4FC5010E94B618BB
:101D5000F401808190E00196880E991ED4018C9147
:101D60008150990BA80EB91ED7CF81EE19CFE09103
:101D7000F901F091FA01C32C39822A82EA2CBC8243
:101D8000AB82082D9E828D82D22CFC801E812F81F9
:101D9000388549855A856B857C8586E090E0099574
:101DA000BC01892BB9F423E030E029963FAF2EAF78
:101DB00029972B96BFAEAEAE2B97A4012B966CAD98
:101DC0007DAD8EAD9FAD2B970E945704811107C04A
:101DD00062E070E086E090E00E9454064DC343E06C
:101DE00050E025965FAF4EAF25972796BFAEAEAEBB
:101DF000279727966CAD7DAD8EAD9FAD27970E943E
:101E00008B0464E070E08816990621F752E0509345
:101E1000F501E091FB01F091FC0139822A82BC823C
:101E2000AB829E828D82FC801E812F813885498500
:101E30005A856B857C8586E090E009951DC3E0910D
:101E4000F901F091FA01C32C39822A82EA2CBC8272
:101E5000AB82082D9E828D82D22CFC801E812F8128
:101E6000388549855A856B857C8583E090E00995A6
:101E7000009721F0BC0183E090E0AECF83E090E0DA
:101E800021969FAF8EAF21972396BFAEAEAE23971C
:101E900023E030E0A40123966CAD7DAD8EAD9FAD07
:101EA00023970E947706009729F7E091FB01F091B4
:101EB000FC0139822A82BC82AB829E828D82FC80A8
:101EC0001E812F81388549855A856B857C8583E005
:101ED00090E0B3CFE091F901F091FA01C32C39827F
:101EE0002A82EA2CBC82AB82082D9E828D82D22C63
:101EF000FC801E812F81388549855A856B857C85BC
:101F000080E190E00995BC01892BB1F4C4010197EF
:101F10008D37910578F4C5018095909588159905C0
:101F200048F0D20115962C91C401880F991F2817EB
:101F3000190629F063E070E080E190E04DCF712C4C
:101F4000612C39822A82BC82AB82B301CE01019618
:101F50000E941204AB01BC018FEE91E00E941E04AE
:101F6000892B19F462E070E0E7CFBFEF6B1A7B0AB0
:101F70008614970431F7E3E0F0E0FCAFEBAFBEAEC0
:101F8000ADAE94014BAD5CAD6DAD7EADC2010696BC
:101F90000E940D0564E070E0882371F28091F101E8
:101FA0009091F2010E94701725E030E03093F40127
:101FB0002093F30185E090E00E94D416FC019093F9
:101FC000F2018093F101892B31F080E18083B182AD
:101FD000A2821382648233E03093F501E091FB0129
:101FE000F091FC01C32C39822A82EA2CBC82AB829C
:101FF000062D7E826D82D22CFC801E812F81388539
:1020000049855A856B857C8580E190E016CFE0910B
:10201000F901F091FA011A821982EA2CBC82AB8292
:10202000082D9E828D82C12CDA80FC801E812F813A
:10203000388549855A856B857C8581E090E00995D6
:10204000009721F0BC0181E090E0C6CE18AE1FAA37
:10205000BAAEA9AE21E030E0A4016FA978AD89AD98
:102060009AAD0E94F606009769F7E091FB01F091A6
:10207000FC011A821982BC82AB829E828D82C12CA5
:10208000DA80FC801E812F81388549855A856B85D1
:102090007C8581E090E0D1CEE091F901F091FA01E8
:1020A00077247394612CC72C79826A82EA2CBC82D3
:1020B000AB82082D9E828D82D12CFC801E812F81C7
:1020C000388549855A856B857C8582E090E0099545
:1020D000009721F0BC0182E090E07ECE41E050E02C
:1020E0005CAB4BABBEAAADAA22E030E0A4016BA969
:1020F0007CA98DA99EA90E94F606009759F7E09148
:10210000FB01F091FC0179826A82BC82AB829E82E3
:102110008D82D62CFC801E812F81388549855A8579
:102120006B857C8582E090E088CEE091F901F091AA
:10213000FA0152E0752E612CC72C79826A82EA2C52
:10214000BC82AB82082D9E828D82D12CFC801E81A8
:102150002F81388549855A856B857C8584E090E0A0
:102160000995009721F0BC0184E090E035CE82E033
:1021700090E098AB8FA7BAAAA9AA24E030E0A40106
:102180006FA578A989A99AA90E947706009759F79F
:10219000E091FB01F091FC0179826A82BC82AB8202
:1021A0009E828D82D62CFC801E812F8138854985A8
:1021B0005A856B857C8584E090E03FCEE091F90103
:1021C000F091FA011A821982EA2CBC82AB82082DA6
:1021D0009E828D82C12CDA80FC801E812F81388501
:1021E00049855A856B857C8585E090E00995BC0121
:1021F000892B39F581149FEF990629F063E070E08F
:1022000081149104F1F41CA61BA6BEA6ADA6A401E0
:102210006BA57CA58DA59EA50E94570462E070E089
:10222000882379F018A61FA2BAA6A9A66FA178A53F
:1022300089A59AA50E948B048816990629F064E066
:1022400070E085E090E0C8CDA2E0A093F501E091B8
:10225000FB01F091FC011A821982EA2CBC82AB824C
:10226000082D9E828D82C12CDA80FC801E812F81F8
:10227000388549855A856B857C8585E090E0DDCD84
:10228000E091F901F091FA011A821982EA2CBC82DC
:10229000AB82082D9E828D82C12CDA80FC801E814B
:1022A0002F81388549855A856B857C858FE090E044
:1022B0000995BC01892BF9F4C40143E096958795F3
:1022C0004A95E1F7940127703327232B09F00196F3
:1022D000940121503109203D374058F49501209553
:1022E00030952815390528F0F2012581281719069F
:1022F00029F063E070E08FE090E06ECDD12CC12C2E
:102300001A821982BC82AB82B601CE0101960E946C
:102310001204AB01BC018FEE91E00E941E04892BD8
:1023200019F462E070E0E7CFFFEFCF1ADF0A8C14F8
:102330009D0431F71CA21BA2BEA2ADA294014BA129
:102340005CA16DA17EA1C20106960E94A20481112A
:1023500003C064E070E0CFCF8091F1019091F20171
:102360000E94701725E030E03093F4012093F301D0
:1023700085E090E00E94D416FC019093F2018093D6
:10238000F101892B31F03FE03083B182A282D38208
:10239000C48243E04093F501E091FB01F091FC0120
:1023A0001A821982EA2CBC82AB820C2DDE82CD828D
:1023B000C12CDA80FC801E812F81388549855A85A1
:1023C0006B857C858FE090E038CD99EF980F63E0C6
:1023D00070E09F3E90F5F201329667E00E9486160B
:1023E00092E040E063817481762767277627258114
:1023F00036813227232732275081563019F4603135
:10240000774218F062E070E018C02F5F3F4F220F54
:10241000920F37964F5F8413E5CFE92EF12CC70159
:102420000E94D4169093F2018093F101892B41F41C
:10243000C2010E94701764E070E084E190E0CCCCAF
:10244000F092F401E092F301C2010E947017DACF1A
:10245000895063E070E0833F48F4C2010296420E67
:10246000531E8415950528F462E070E085E190E044
:10247000B3CC82E08093F50170901C02711003C010
:1024800091E09093F5018091F501813009F456CBEC
:102490008090F1019090F201A090F301B090F401CE
:1024A0004A2DB401872D0E946402682E592E809116
:1024B000FF019091000297FD08C0609101020E9407
:1024C0007F028BE99FE00197F1F78091FD019091E8
:1024D000FE01DC01ED91FC910190F081E02D672D72
:1024E00009958091FD019091FE01A5015527DC0120
:1024F000ED91FC910280F381E02DB401099580916A
:10250000FD019091FE01DC01ED91FC910190F081C3
:10251000E02D652D09958091FD019091FE01DC0172
:10252000ED91FC910190F081E02D662D099580914F
:10253000FD019091FE01DC01ED91FC910680F78197
:10254000E02D09958091FF019091000297FDF6CA58
:1025500060910102B1E06B270E947F02EFCAD201B5
:1025600015966D907C90762467247624E091F9018D
:10257000F091FA01C32C39822A82EA2CBC82AB8208
:10258000082D9E828D82262D78866F82D22CFC802B
:102590001E81388549855A856B857C8586E190E06A
:1025A0000995BC01892BA9F5E3E0F0E0F8A3EF8FD2
:1025B000BAA2A9A26F8D78A189A19AA10E948B04C9
:1025C0007301E826F926E820F920E624F72423E021
:1025D00030E03C8F2B8FBE8EAD8EA7016B8D7C8D36
:1025E0008D8D9E8D0E94570462E070E0882389F0F3
:1025F00043E050E0588F4F8BBA8EA98E6F89788D4B
:10260000898D9A8D0E948B04E816F90629F064E002
:1026100070E086E190E0E0CB52E05093F501E0916C
:10262000FB01F091FC0139822A82EA2CBC82AB8248
:102630009E828D82262D78866F82FC801E81388551
:1026400049855A856B857C8586E190E0F6CBD20181
:1026500015968D919C911697F82FE92FFE87ED879F
:1026600017966D907C90762467247624E091F9018A
:10267000F091FA01C32C39822A82EA2CBC82AB8207
:10268000082D9E828D82232D3F8228864D858D8543
:102690009E859A878987662D7C866B86D22CFC80E6
:1026A0001E81322D5A857C8587E190E0099500973F
:1026B00011F0BC011BC0C40101978D379105A0F436
:1026C000C30101978D37910578F4C50180959095E8
:1026D0008815990548F0D20119962C91C301880FED
:1026E000991F2817190629F063E070E087E190E050
:1026F00073CBE3E0F0E0FC8BEB8B2D853E853E8BCE
:102700002D8B93014B895C896D897E89C2010A9664
:102710000E940D0564E070E0882341F343E050E03F
:10272000588B4F87BA8AA98A27E130E0A4016F85C8
:10273000788989899A890E947706009709F0B9CF2C
:10274000E091FB01F091FC0139822A82BC82AB82CC
:102750009E828D82232D3F8228864D858D859E8584
:102760009A878987662D7C866B86FC801E81322D38
:102770005A857C8587E190E060CB61E070E0892F2D
:1027800090E02ACB882339F010E090910B02891356
:1027900002C01111B2C88091F7019091F80110E0C8
:1027A000892B09F0AAC88091F3019091F4011817C0
:1027B000190608F0CDC98091FD019091FE01DC0160
:1027C000ED91FC910284F385E02D09951F5FEBCF1D
:1027D000111173C9B3C98091F1019091F2010C9468
:1027E00070175058BB27AA270E9409140C945A1539
:1027F0000E944C1538F00E94531520F039F49F3F89
:1028000019F426F40C9449150EF4E095E7FB0C94AA
:102810004315E92F0E946B1558F3BA176207730727
:102820008407950720F079F4A6F50C948D150EF425
:10283000E0950B2EBA2FA02D0B01B90190010C01D0
:10284000CA01A0011124FF27591B99F0593F50F4E8
:10285000503E68F11A16F040A22F232F342F442740
:10286000585FF3CF469537952795A795F040539538
:10287000C9F77EF41F16BA0B620B730B840BBAF008
:102880009150A1F0FF0FBB1F661F771F881FC2F773
:102890000EC0BA0F621F731F841F48F48795779587
:1028A0006795B795F7959E3F08F0B0CF9395880F41
:1028B00008F09927EE0F9795879508950E94721456
:1028C0000C945A150E94531558F00E944C1540F074
:1028D00029F45F3F29F00C94431551110C948E1587
:1028E0000C9449150E946B1568F39923B1F3552395
:1028F00091F3951B550BBB27AA2762177307840713
:1029000038F09F5F5F4F220F331F441FAA1FA9F3A8
:1029100035D00E2E3AF0E0E832D091505040E69596
:10292000001CCAF72BD0FE2F29D0660F771F881FF7
:10293000BB1F261737074807AB07B0E809F0BB0BEA
:10294000802DBF01FF2793585F4F3AF09E3F5105FE
:1029500078F00C9443150C948E155F3FE4F3983E89
:10296000D4F3869577956795B795F7959F5FC9F7E7
:10297000880F911D9695879597F90895E1E0660F68
:10298000771F881FBB1F621773078407BA0720F0E1
:10299000621B730B840BBA0BEE1F88F7E09508954A
:1029A0000E94D7146894B1110C948E1508950E945A
:1029B000731588F09F5798F0B92F9927B751B0F049
:1029C000E1F0660F771F881F991F1AF0BA95C9F7B3
:1029D00014C0B13091F00E948D15B1E008950C94AF
:1029E0008D15672F782F8827B85F39F0B93FCCF362
:1029F000869577956795B395D9F73EF49095809530
:102A0000709561957F4F8F4F9F4F0895E89409C04F
:102A100097FB3EF490958095709561957F4F8F4F11
:102A20009F4F9923A9F0F92F96E9BB279395F69527
:102A3000879577956795B795F111F8CFFAF4BB0FA5
:102A400011F460FF1BC06F5F7F4F8F4F9F4F16C009
:102A5000882311F096E911C0772321F09EE8872F93
:102A6000762F05C0662371F096E8862F70E060E04F
:102A70002AF09A95660F771F881FDAF7880F9695C8
:102A8000879597F9089597F99F6780E870E060E06F
:102A900008959FEF80EC089500240A9416161706F7
:102AA00018060906089500240A941216130614063F
:102AB00005060895092E0394000C11F4882352F0A2
:102AC000BB0F40F4BF2B11F460FF04C06F5F7F4F5A
:102AD0008F4F9F4F089557FD9058440F551F59F041
:102AE0005F3F71F04795880F97FB991F61F09F3FFB
:102AF00079F087950895121613061406551FF2CF24
:102B00004695F1DF08C0161617061806991FF1CF73
:102B100086957105610508940895E894BB2766279A
:102B20007727CB0197F9089516F00C9451160C9461
:102B3000491568940C9443150E947315A8F39923C2
:102B4000C1F3AEF3DF93CF931F930F93FF92C92F7F
:102B5000DD2788232AF02197660F771F881FDAF771
:102B600020E030E040E85FEB9FE3883920F0803ED2
:102B700038F021968F770E94F213E8E6F0E004C067
:102B80000E94F213E5E9F0E00E945F168B01BE019E
:102B9000EC01FB2E6F5771097595771F880B990B08
:102BA0000E94081528E132E741E35FE30E94F71530
:102BB000AF2D9801AE01FF900F911F91CF91DF9142
:102BC0000E9409140C945A150E94F7150C945A157A
:102BD0000E944C1538F00E94531520F0952311F0F7
:102BE0000C9443150C94491511240C948E150E94D5
:102BF0006B1570F3959FC1F3950F50E0551F629FC1
:102C0000F001729FBB27F00DB11D639FAA27F00D45
:102C1000B11DAA1F649F6627B00DA11D661F829F6C
:102C20002227B00DA11D621F739FB00DA11D621F51
:102C3000839FA00D611D221F749F3327A00D611D6E
:102C4000231F849F600D211D822F762F6A2F112450
:102C50009F5750409AF0F1F088234AF0EE0FFF1F83
:102C6000BB1F661F771F881F91505040A9F79E3FDA
:102C7000510580F00C9443150C948E155F3FE4F3DE
:102C8000983ED4F3869577956795B795F795E79530
:102C90009F5FC1F7FE2B880F911D9695879597F939
:102CA00008959F3F31F0915020F48795779567956F
:102CB000B795880F911D9695879597F90895DF939D
:102CC000CF931F930F93FF92EF92DF927B018C01C2
:102CD000689406C0DA2EEF010E94F715FE01E89411
:102CE000A5912591359145915591A6F3EF010E944B
:102CF0000914FE019701A801DA9469F7DF90EF90BB
:102D0000FF900F911F91CF91DF910895991B79E06A
:102D100004C0991F961708F0961B881F7A95C9F76B
:102D200080950895A1E21A2EAA1BBB1BFD010DC0C0
:102D3000AA1FBB1FEE1FFF1FA217B307E407F5076B
:102D400020F0A21BB30BE40BF50B661F771F881F47
:102D5000991F1A9469F760957095809590959B01DD
:102D6000AC01BD01CF010895EE0FFF1F0590F49156
:102D7000E02D09940E94C516A59F900DB49F900D5B
:102D8000A49F800D911D11240895A29FB001B39FAF
:102D9000C001A39F700D811D1124911DB29F700D64
:102DA000811D1124911D08950F931F93CF93DF93DD
:102DB0008230910510F482E090E0E0912702F091DA
:102DC000280230E020E0B0E0A0E0309799F421152F
:102DD000310509F44AC0281B390B24303105D8F5D8
:102DE0008A819B816115710589F1FB01938382833F
:102DF000FE0111C04081518102811381481759079A
:102E0000E0F04817590799F4109761F012960C9367
:102E1000129713961C933296CF01DF91CF911F9199
:102E20000F9108950093270210932802F4CF2115E3
:102E3000310551F04217530738F0A901DB019A011F
:102E4000BD01DF01F801C1CFEF01F9CF9093280256
:102E500080932702CDCFFE01E20FF31F8193919360
:102E60002250310939832883D7CF20912502309110
:102E70002602232B41F4209102013091030130936B
:102E80002602209325022091000130910101211595
:102E9000310541F42DB73EB7409104015091050131
:102EA000241B350BE0912502F0912602E217F3076F
:102EB000A0F42E1B3F0B2817390778F0AC014E5FAA
:102EC0005F4F2417350748F04E0F5F1F50932602BF
:102ED00040932502819391939FCFF0E0E0E09CCF57
:102EE000CF93DF930097E9F0FC01329713821282AF
:102EF000A0912702B0912802ED0130E020E0109768
:102F0000A1F420813181820F931F209125023091FD
:102F100026022817390709F061C0F0932602E093D2
:102F20002502DF91CF910895EA01CE17DF07E8F57A
:102F30004A815B819E0141155105B1F7E901FB838F
:102F4000EA8349915991C40FD51FEC17FD0761F42D
:102F5000808191810296840F951FE901998388836E
:102F6000828193819B838A83F0E0E0E012968D91C9
:102F70009C9113970097B9F52D913C911197CD0134
:102F80000296820F931F2091250230912602281766
:102F9000390739F6309751F510922802109227021E
:102FA000B0932602A0932502BCCFD383C283408175
:102FB0005181840F951FC817D90761F44E5F5F4F89
:102FC00088819981480F591F518340838A819B8151
:102FD000938382832115310509F0B0CFF093280245
:102FE000E09327029ECFFD01DC01C0CF1382128245
:102FF000D7CFB0E0A0E0EFEFF7E10C94C1188C015F
:10300000009751F4CB010E94D4168C01C801CDB7B2
:10301000DEB7E0E10C94DD18FC01E60FF71F9C0120
:1030200022503109E217F30708F49DC0D901CD9170
:10303000DC911197C617D70798F0C530D10530F34A
:10304000CE0104978617970708F3C61BD70B229764
:10305000C193D1936D937C93CF010E947017D6CF0B
:103060005B01AC1ABD0A4C018C0E9D1EA09127027B
:10307000B0912802512C412CF12CE12C109731F504
:1030800080912502909126028815990509F05CC06F
:103090004616570608F058C0809100019091010132
:1030A000009741F48DB79EB74091040150910501FE
:1030B000841B950BE817F90708F055C0F09326021A
:1030C000E0932502F90171836083A0CF8D919C91DB
:1030D000119712966C90129713967C901397A815DF
:1030E000B90559F56C0142E0C40ED11CCA14DB04C9
:1030F00020F1AC014A195B09DA011296159780F0AC
:103100006282738251834083D9016D937C93E11471
:10311000F10471F0D7011396FC93EE93129776CFDA
:1031200022968C0F9D1FF90191838083F301EFCFCD
:10313000F0932802E093270269CF4816590608F455
:103140002C017D01D3019ACFCB010E94D4167C01C2
:10315000009749F0AE01B8010E94B618C8010E945C
:103160007017870153CF10E000E050CFFB01DC0166
:1031700002C001900D9241505040D8F708952F920F
:103180003F924F925F926F927F928F929F92AF92F7
:10319000BF92CF92DF92EF92FF920F931F93CF9344
:1031A000DF93CDB7DEB7CA1BDB0B0FB6F894DEBFDB
:1031B0000FBECDBF09942A88398848885F846E8401
:1031C0007D848C849B84AA84B984C884DF80EE804B
:1031D000FD800C811B81AA81B981CE0FD11D0FB654
:1031E000F894DEBF0FBECDBFED01089511E0C0E938
:1031F000D1E004C0FE010E94B4162196C139D10766
:06320000C9F7F894FFCFAE
:1032060000002902800000000000A5030503320328
:10321600F203630341035503000000001E04670523
:00000001FF
