:100000000C9464010C948C010C948C010C948C0164
:100010000C948C010C948C010C948C010C948C012C
:100020000C948C010C948C010C948C010C948C011C
:100030000C948C010C948C010C948C010C948C010C
:100040000C94E3080C948C010C9453090C942D0926
:100050000C948C010C948C010C948C010C948C01EC
:100060000C9485090C948C010000000024002700EA
:100070002A000000C0C1C1810140C30103C0028049
:10008000C241C60106C00780C7410500C5C1C48181
:100090000440CC010CC00D80CD410F00CFC1CE81FA
:1000A0000E400A00CAC1CB810B40C90109C00880BB
:1000B000C841D80118C01980D9411B00DBC1DA81C1
:1000C0001A401E00DEC1DF811F40DD011DC01C8003
:1000D000DC411400D4C1D5811540D70117C016806A
:1000E000D641D20112C01380D3411100D1C1D081B9
:1000F0001040F00130C03180F1413300F3C1F28192
:1001000032403600F6C1F7813740F50135C0348002
:10011000F4413C00FCC1FD813D40FF013FC03E80F9
:10012000FE41FA013AC03B80FB413900F9C1F88138
:1001300038402800E8C1E9812940EB012BC02A8022
:10014000EA41EE012EC02F80EF412D00EDC1EC8180
:100150002C40E40124C02580E5412700E7C1E68169
:1001600026402200E2C1E3812340E10121C020803A
:10017000E041A00160C06180A1416300A3C1A281F0
:1001800062406600A6C1A7816740A50165C0648082
:10019000A4416C00ACC1AD816D40AF016FC06E80F9
:1001A000AE41AA016AC06B80AB416900A9C1A881B8
:1001B00068407800B8C1B9817940BB017BC07A80C2
:1001C000BA41BE017EC07F80BF417D00BDC1BC8100
:1001D0007C40B40174C07580B5417700B7C1B68169
:1001E00076407200B2C1B3817340B10171C07080BA
:1001F000B041500090C191815140930153C0528051
:100200009241960156C057809741550095C19481FF
:1002100054409C015CC05D809D415F009FC19E81F8
:100220005E405A009AC19B815B40990159C0588039
:100230009841880148C0498089414B008BC18A811F
:100240004A404E008EC18F814F408D014DC04C8081
:100250008C41440084C185814540870147C0468068
:100260008641820142C043808341410081C1808137
:1002700040400000000000080002010000030407E5
:100280000000000000000000000000002300260025
:1002900029000102040810204080010204081020F7
:1002A00001020408102000000000250028002B0097
:1002B000040404040404040402020202020203030C
:1002C00003030303A00A3C1711241FBECFEFD8E09D
:1002D000DEBFCDBF11E0A0E0B1E0EAE8F7E302C085
:1002E00005900D92A032B107D9F722E0A0E2B1E06B
:1002F00001C01D92A13AB207E1F711E0C3E6D1E0D7
:1003000004C02197FE010E948919C236D107C9F79E
:100310000E94EE0B0C94B81B0C940000CF92DF925D
:10032000EF92FF920F931F93CF93DF93CDB7DEB77A
:100330002C970FB6F894DEBF0FBECDBF90E080E0E3
:100340002C960FB6F894DEBF0FBECDBFDF91CF91D4
:100350001F910F91FF90EF90DF90CF900895AF9293
:10036000BF92CF92DF92EF92FF920F931F93CF93A2
:10037000DF93CDB7DEB728970FB6F894DEBF0FBE78
:10038000CDBF7C016A01CB0110E000E02091460264
:10039000211130C020914402309145024091400229
:1003A00050914102D80163E0AA0FBB1F6A95E1F7A3
:1003B000A40FB51F2017310700F11296AD90BC9025
:1003C0001397F70160817181A616B70679F4149628
:1003D000AD90BC90159762817381A616B70631F473
:1003E0006D917C911197C616D70639F00F5F1F4F9C
:1003F0001896E0CF01E010E019C02F5F3F4F0217C1
:100400001307C0F4F80123E0EE0FFF1F2A95E1F770
:10041000E40FF51F28E0DE01119601900D922A9558
:10042000E1F7EF81F885BC01C701099520914602EB
:1004300021110CC00F5F1F4F2091440230914502E3
:100440002F5F3F4F0217130708F4A0CF28960FB66F
:10045000F894DEBF0FBECDBFDF91CF911F910F91FA
:10046000FF90EF90DF90CF90BF90AF900895809570
:10047000E82FF0E0EE0FFF1FEE58FF4F85919491AB
:100480009095DB01415068F0ED91E927F0E0EE0F27
:10049000FF1FEE58FF4F25913491982F9327822FFD
:1004A000F1CF0895833081F028F4813099F08230C3
:1004B000A9F008958730A9F08830C9F08430B1F4EC
:1004C000809180008F7D03C0809180008F77809322
:1004D0008000089584B58F7784BD089584B58F7D9D
:1004E000FBCF8091B0008F778093B000089580910A
:1004F000B0008F7DF9CF1F93CF93DF93282F30E08B
:10050000F901EC58FD4F8491F901EE56FD4FD4915D
:10051000F901E055FD4FC491CC23A9F0162F8111AC
:100520000E945202EC2FF0E0EE0FFF1FEA55FD4F44
:10053000A591B4918FB7F894EC91111108C0D095A2
:10054000DE23DC938FBFDF91CF911F910895DE2BC7
:10055000F8CF8F929F92AF92BF92CF92DF92EF929D
:10056000FF920F931F93CF93DF9381E080939A02C2
:1005700060E08AE00E947B0200E110E0D0E0C0E091
:100580003CE7E32E32E0F32E4AE9C42E42E0D42EBB
:1005900058EBA52E52E0B52E61E089E00E947B0267
:1005A000CC0FDD1FF7018491F6019490F501849042
:1005B000882079F081110E945202E82DF0E0EE0FC0
:1005C000FF1FE857FD4FA591B4918C91982209F037
:1005D000C16060E089E00E947B0201501109E1F6F0
:1005E00061E08AE00E947B02CF3FDC07C9F0C2FDD8
:1005F00017C083E0D695C7958A95E1F7D0939C0202
:10060000C0939B0281E0DF91CF911F910F91FF90EA
:10061000EF90DF90CF90BF90AF909F908F90089514
:1006200080E0F1CFCF93DF9390E0FC01EE56FD4FD9
:10063000249180559D4FFC0184918823C9F090E05E
:10064000880F991FFC01E859FF4FA591B491FC0157
:10065000EA55FD4FC591D49161110DC09FB7F89433
:100660008C91209582238C938881282328839FBF97
:10067000DF91CF910895623051F49FB7F8943C9187
:10068000822F809583238C93E8812E2BEFCF8FB719
:10069000F894EC912E2B2C938FBFEACF82309105EA
:1006A00038F0880F991F880F991F05970197F1F768
:1006B00008953FB7F89480919F019091A001A09177
:1006C000A101B091A20126B5A89B05C02F3F19F04A
:1006D0000196A11DB11D3FBFBA2FA92F982F8827C2
:1006E000BC01CD01620F711D811D911D42E0660F9D
:1006F000771F881F991F4A95D1F70895AF92BF922F
:10070000CF92DF92EF92FF920F931F93CF93DF93DD
:100710006C017B018B01040F151FEB015E01AE180C
:10072000BF08C017D10759F06991D601ED91FC912E
:100730000190F081E02DC6010995892B79F7C5015B
:10074000DF91CF911F910F91FF90EF90DF90CF90AD
:10075000BF90AF900895FC01538D448D252F30E05C
:10076000842F90E0821B930B541710F0CF960895BE
:1007700001970895FC01918D828D981761F0A28DEB
:10078000AE0FBF2FB11D5D968C91928D9F5F9F73B1
:10079000928F90E008958FEF9FEF0895FC01918D67
:1007A000828D981731F0828DE80FF11D858D90E0D4
:1007B00008958FEF9FEF0895FC01918D228D892F71
:1007C00090E0805C9F4F821B91098F739927089559
:1007D00083EA91E00E94DC0321E0892B09F420E008
:1007E000822F089580E090E0892B29F00E94E80391
:1007F00081110C9400000895FC01A48DA80FB92F5D
:10080000B11DA35ABF4F2C91848D90E001968F7338
:100810009927848FA689B7892C93A089B1898C9157
:10082000837080648C93938D848D981306C00288A6
:10083000F389E02D80818F7D80830895EF92FF9270
:100840000F931F93CF93DF93EC0181E0888F9B8DF3
:100850008C8D98131AC0E889F989808185FF15C0AD
:100860009FB7F894EE89FF896083E889F9898081D0
:100870008370806480839FBF81E090E0DF91CF919F
:100880001F910F91FF90EF900895F62E0B8D10E0C1
:100890000F5F1F4F0F731127E02E8C8D8E110CC030
:1008A0000FB607FCFACFE889F989808185FFF5CF7B
:1008B000CE010E94FC03F1CFEB8DEC0FFD2FF11D5B
:1008C000E35AFF4FF0829FB7F8940B8FEA89FB89B8
:1008D00080818062CFCFCF93DF93EC01888D882316
:1008E000B9F0AA89BB89E889F9898C9185FD03C093
:1008F000808186FD0DC00FB607FCF7CF8C9185FF78
:10090000F2CF808185FFEDCFCE010E94FC03E9CFBD
:10091000DF91CF91089520914701260F3327331F90
:1009200021323105ECF420916B01FC0190E080E074
:10093000243069F082E00895A09147012191AC0133
:10094000495D5E4FA40FB52FB11D2C9301968617FC
:1009500098F380914701680F6093470180E0089504
:1009600081E0089508958FEF9FEF08958FEF9FEF37
:1009700008958091200190E09195819591090895C5
:10098000CF93DF93CB01EA01642F0E948B04CE0149
:10099000DF91CF910895CF93DF931F92CDB7DEB74C
:1009A000698361E0CE0101960E948B0481E090E0B2
:1009B0000F90DF91CF91089590E080E00895FC01C1
:1009C000AB01608171818281938122813381CA016F
:1009D000820F931F0895CF93DF9380914D02811171
:1009E00022C0DA0140914B0250914C0280914702A3
:1009F00090914802FC0130E020E0C081D181CA170B
:100A0000DB0729F4C281D3816C177D0731F02F5F9A
:100A10003F4F36964217530780F7BA016F5F7F4FFB
:100A20002617370718F090E080E00BC042175307F5
:100A3000D0F366E0629FA001639F500D1124840FE4
:100A4000951FDF91CF910895EF92FF920F931F931F
:100A5000CF937A01AB01BC018EE492E00E94EB04DB
:100A60008C01C0E0009761F0C0915502CC2379F071
:100A700050E040E0B7010E94AF01F8019583848304
:100A80008C2FCF911F910F91FF90EF900895FC0153
:100A9000F582E482C1E0F4CF0F931F93AB0103E032
:100AA00010E020E030E0B8011F910F910C94240574
:100AB000AB01BC018EE492E00E94EB04009759F078
:100AC000FC016481758120915502222331F041E0BF
:100AD00050E00C94AF0170E060E0CB0108952F92DC
:100AE0003F924F925F926F927F928F929F92AF92BE
:100AF000BF92CF92DF92EF92FF920F931F93CF930B
:100B0000DF935C012A01EB017901E60EF71E222436
:100B1000239410E000E0312CCE15DF05B9F165011A
:100B2000C00ED11E832CF601808190E0032C02C000
:100B3000959587950A94E2F750E040E080FF02C067
:100B400040E05FEFCE01B2010E942405CE01B20168
:100B50000E945805F601208130E002C035952795A6
:100B60008A94E2F720FD0FC030E020E0821793075F
:100B700009F0212C3394F8E03F1203C00F5F1F4FA0
:100B8000312C2196C9CF20E03FEFF0CF822DDF91AD
:100B9000CF911F910F91FF90EF90DF90CF90BF907A
:100BA000AF909F908F907F906F905F904F903F900D
:100BB0002F9008956F927F928F929F92AF92BF92E3
:100BC000CF92DF92EF92FF920F931F93CF93DF9319
:100BD00000D000D0CDB7DEB73C0149835A836B8388
:100BE0007C834901D12CCC24C394ED2CF12CE81446
:100BF000F90430F58701000F111F060D171DF801CC
:100C0000A080B180BA24AB24BA24B701CE010196EA
:100C10000E94DF04A5010E942405B701CE010196C0
:100C20000E94DF040E945805F8012081318132279B
:100C3000232732278217930709F0C12CD394D5CFED
:100C40008C2D0F900F900F900F90DF91CF911F91EF
:100C50000F91FF90EF90DF90CF90BF90AF909F905B
:100C60008F907F906F900895FC0165A570E090E0F3
:100C700080E0089560E070E0CB010895CF93DF93AA
:100C8000CDB7DEB72A970FB6F894DEBF0FBECDBF43
:100C90006F83788789879A8789859A85019609F471
:100CA00086C070E060E0CE0107960E94DF04AB01D1
:100CB000BC018EE492E00E94EB04892B09F077C01E
:100CC00070E060E0CE0107960E94DF0469837A83BA
:100CD0008B839C838091470290914802892BA1F4D9
:100CE0008091490290914A0226E0AC01249FC00104
:100CF000259F900D11240E948F1990934802809394
:100D00004702892B09F453C08091490290914A020D
:100D10009C012150310940914B0250914C024217E5
:100D20005307E8F0019626E0289FB001299F700D37
:100D3000112480914702909148020E94B41A0097B2
:100D4000B1F12091490230914A022F5F3F4F309319
:100D50004A0220934902909348028093470280916F
:100D60004D0281110AC080914B0290914C02019674
:100D700090934C0280934B0202C010924D0240911E
:100D80004B0250914C0286E0849F9001859F300D6C
:100D90001124A0914702B0914802A20FB31F1E82F6
:100DA0001D82FE01319601900D928A95E1F781E056
:100DB0002A960FB6F894DEBF0FBECDBFDF91CF915C
:100DC00008950F931F9380916A02811104C080E0FF
:100DD0001F910F9108950E94590300916B02109189
:100DE0006C0220916D0230916E02601B710B820BC0
:100DF000930B613472448F40910548F3E0916F0288
:100E0000F0917002309759F050E040E070E060E0FF
:100E100084EE90E009951092700210926F0280911A
:100E20007302909174020E942B1A10927402109215
:100E30007302109272021092710210926A0281E0A3
:100E4000C7CFCF93DF93C82FD62F809150029091B8
:100E500051020E942B1A82E090E0909353028093FB
:100E600052020E948F19FC0190935102809350020C
:100E700081E0309721F0C058C083D18383E0809314
:100E80005402DF91CF9108958F929F92AF92BF92BB
:100E9000DF92EF92FF920F931F93CF93DF9300D0D7
:100EA00000D0CDB7DEB7FA013197ED37F10508F084
:100EB00064C0FC01E095F095E417F50708F45DC007
:100EC000D22E7A014B015C01BC01A4018EE492E0B8
:100ED0000E94EB04892B09F453C080915002909139
:100EE00051020E942B1A87010F5F1F4F000F111F25
:100EF0001093530200935202C8010E948F19FC0103
:100F0000909351028093500284E090E0309729F151
:100F1000D0820250018389829A82AB82BC828F0187
:100F20000E5F1F4FB12CA12CB501CE0101960E947E
:100F3000DF040E945805982789279827F801819394
:100F400091938F01FFEFAF1ABF0AEA14FB0461F718
:100F500083E08093540290E080E00F900F900F9018
:100F60000F90DF91CF911F910F91FF90EF90DF9045
:100F7000BF90AF909F908F90089583E090E0EDCF69
:100F800082E090E0EACF2F923F924F925F926F9271
:100F90007F928F929F92AF92BF92DF92EF92FF92D9
:100FA0000F931F93CF93DF93FA013197E03DF74002
:100FB00008F091C08C01FC01E095F095E417F5076D
:100FC00008F489C0D22E1A012B013C01BC01A201F8
:100FD0008EE492E00E94EB04892B09F47CC080919E
:100FE0005002909151020E942B1AC10123E0969564
:100FF00087952A95E1F7910127703327232B09F074
:101000004EC002969093530280935202E090520297
:10101000F0905302C7010E948F19EC019093510286
:101020008093500284E090E0209709F442C0D88277
:101030008EEF8E0D8983EC0EFD1EF7013197108225
:10104000260C371CF12CE12CD12C812C912C540135
:1010500083940215130541F1C801B2010E9458059D
:10106000F7013296EC0FFD1FB501A4010D2C04C051
:10107000440F551F661F771F0A94D2F720818115F0
:101080009F4F79F4242B2083D39488E0D81204C096
:101090003FEFE31AF30AD12C0F5F1F4FDACF03960D
:1010A000B1CF40952423EFCF83E08093540290E0AA
:1010B00080E0DF91CF911F910F91FF90EF90DF9033
:1010C000BF90AF909F908F907F906F905F904F9068
:1010D0003F902F90089583E090E0EBCF1F93CF9344
:1010E000DF9385ED8093BC008091230190912401D2
:1010F000A0912501B09126010796A11DB11D23E005
:10110000B695A795979587952A95D1F72091BC001C
:1011100024FD03C010926B0152C0409123015091F5
:1011200024016091250170912601452B462B472B08
:1011300069F30097A105B10541F02AE22A95F1F77C
:1011400000C00197A109B109E1CF80912201C1E05E
:10115000C0932101882399F1D091B8001091BA0071
:101160008091BC008A7B8093BC0060E082E10E9499
:101170007B0260E083E10E947B0210926B01C093CE
:101180006D0110926C0161E082E10E947B0261E0DE
:1011900083E10E947B028091B9008E7F8093B90029
:1011A0008091B9008D7F8093B90088E48093B80066
:1011B00085E48093BC001093BA00D093B800DF910F
:1011C000CF911F9108951F920F920FB60F92112485
:1011D0002F933F938F939F93AF93BF9380919B01E6
:1011E00090919C01A0919D01B0919E0130919A0136
:1011F00023E0230F2D3758F50196A11DB11D209333
:101200009A0180939B0190939C01A0939D01B093C0
:101210009E0180919F019091A001A091A101B091A8
:10122000A2010196A11DB11D80939F019093A00181
:10123000A093A101B093A201BF91AF919F918F9113
:101240003F912F910F900FBE0F901F90189526E899
:10125000230F0296A11DB11DD2CF1F920F920FB680
:101260000F9211242F933F934F935F936F937F932C
:101270008F939F93AF93BF93EF93FF9383EA91E094
:101280000E94FC03FF91EF91BF91AF919F918F91CD
:101290007F916F915F914F913F912F910F900FBE72
:1012A0000F901F9018951F920F920FB60F92112456
:1012B0002F938F939F93EF93FF93E091B301F0915E
:1012C000B4018081E091B901F091BA0182FD1BC0A7
:1012D00090818091BC018F5F8F732091BD01821737
:1012E00041F0E091BC01F0E0ED55FE4F958F809309
:1012F000BC01FF91EF919F918F912F910F900FBEA5
:101300000F901F9018958081F4CF1F920F920FB607
:101310000F9211242F933F934F935F936F937F937B
:101320008F939F93AF93BF93EF93FF938091B900F7
:10133000887F803609F44AC0F0F5883209F4A5C0E8
:1013400018F5803109F499C0B8F4882309F4F5C080
:10135000883009F492C0FF91EF91BF91AF919F91B6
:101360008F917F916F915F914F913F912F910F904E
:101370000FBE0F901F901895883109F486C08032F7
:1013800051F780936A0114C0803409F49BC040F483
:101390008033B9F38833F9F680936A0185ECAEC0E7
:1013A000803509F483C0883509F494C0883499F6EF
:1013B0000E946E08D0CF883909F48AC038F5883782
:1013C00029F050F4883611F0803729F683E08093B5
:1013D0006B011092690155C0883809F479C08039D1
:1013E00019F0803809F0B7CF80916901803208F098
:1013F0006FC0E091690181E08E0F80936901809157
:10140000BB00F0E0E75BFE4F80833BC0803B39F0E0
:10141000D0F4803A09F477C0883A09F09CCF84E090
:1014200080936B011092480110924701F0E0E0E0D8
:1014300009958091470181110FC081E08093470198
:101440001092270109C0803C09F4A8CF883C09F418
:10145000A5CF883B09F07FCFE091480181E08E0F56
:1014600080934801F0E0E95DFE4F80818093BB00EE
:10147000909148018091470129C08091900180930B
:10148000BB0085EC8093BC0066CF90918F0180916A
:101490008E01981758F5E0918F0181E08E0F8093AF
:1014A0008F01F0E0E259FE4F8081E9CFE0918F019A
:1014B00081E08E0F80938F018091BB00F0E0E259B4
:1014C000FE4F808390918F0180918E019817C8F212
:1014D00085E8D8CFE0918F0181E08E0F80938F0156
:1014E0008091BB00F0E0E259FE4F808380916D0156
:1014F00081115ECF81E080936C0184EA8093BC000F
:1015000010926B0128CF85EC8093BC0010926B0188
:1015100080916901803230F4E0916901F0E0E75B8D
:10152000FE4F10826091690170E089E491E0F0E083
:10153000E0E00995109269010ECF10926A0138CF50
:101540001092A6011092A50188EE93E0A0E0B0E011
:101550008093A7019093A801A093A901B093AA0139
:101560008AE091E09093A4018093A30185EC90E040
:101570009093B0018093AF0184EC90E09093B2011E
:101580008093B10180EC90E09093B4018093B3011B
:1015900081EC90E09093B6018093B50182EC90E0ED
:1015A0009093B8018093B70186EC90E09093BA01D4
:1015B0008093B9011092BC011092BD011092BE013E
:1015C0001092BF0110924A021092490210924C02EE
:1015D00010924B0281E080934D0286E090E00E94E1
:1015E0008F199093480280934702892B31F081E054
:1015F00090E090934A028093490210924302109225
:101600004202109245021092440281E08093460209
:1016100088E090E00E948F199093410280934002ED
:10162000892B31F081E090E0909343028093420255
:1016300010929A0210929C0210929B0262E088E043
:101640000E94120361E089E00E94120361E08AE0D7
:101650000E94120361E08AE00E947B0210927D02E8
:1016600010927C0210927F0210927E028DE0809395
:1016700087028BE0809388028CE080938A028FEF50
:1016800080938902EDEBF2E0E491F0E0EE0FFF1FB2
:10169000EA55FD4F85919491909392028093910227
:1016A000EFE9F2E0E491E0939602ECEBF2E0E491F2
:1016B000F0E0EE0FFF1FE857FD4F85919491909356
:1016C000900280938F02EEE9F2E0E491E0939402BD
:1016D000EBEBF2E0E491F0E0EE0FFF1FEA55FD4F77
:1016E0008591949190938E0280938D02EDE9F2E0C2
:1016F000E491E093950280E492E4AFE0B0E080935F
:10170000800290938102A0938202B093830281E0D1
:1017100090E090938502809384021092860210924A
:1017200097021092980287E08093990210925102DA
:1017300010925002109253021092520210925402D0
:1017400081E08093550210925702109256022EE8C3
:1017500031E0309359022093580230935B0220937A
:101760005A022FEF3FEF30935F0220935E02809387
:101770006002109265021092660210926702109247
:1017800068021092690210926B0210926C02109221
:101790006D0210926E021092700210926F021092FF
:1017A00072021092710210927402109273021092DF
:1017B00076021092750210927802109277028DE7ED
:1017C00090E090937A028093790210927B028CE1F0
:1017D00091E090934F0280934E020895CF93DF9350
:1017E000CDB7DEB7CE54D1090FB6F894DEBF0FBE29
:1017F000CDBF789484B5826084BD84B5816084BD9A
:1018000085B5826085BD85B5816085BD80916E009E
:10181000816080936E0010928100809181008260CF
:10182000809381008091810081608093810080910C
:1018300080008160809380008091B10084608093FB
:10184000B1008091B00081608093B00080917A00F7
:10185000846080937A0080917A00826080937A001D
:1018600080917A00816080937A0080917A0080680C
:1018700080937A001092C100E091B301F091B4011D
:1018800092E09083E091AF01F091B0011082E0917D
:10189000B101F091B2018FEC80831092BB01E09115
:1018A000B701F091B80186E08083E091B501F09135
:1018B000B601808180618083E091B501F091B6012D
:1018C000808188608083E091B501F091B6018081CC
:1018D00080688083E091B501F091B60180818F7DB1
:1018E000808347EA5FE060E070E0409361025093DC
:1018F0006202609363027093640223EA31E03093E2
:101900005D0220935C0290936A0263E070E080E0E5
:1019100090E00E943E0663E070E081E090E00E946B
:101920003E0663E070E082E090E00E943E060E9486
:1019300059032B013C01E8EE8E2EE3E09E2EA12CF4
:10194000B12C0E9459036419750986099709683EEC
:10195000734081059105A8F321E0821A9108A1083E
:10196000B10838EE430E33E0531E611C711C811424
:101970009104A104B10429F7CE0105969E878D87B5
:10198000DE011496B88BAF872FB7F89480919B0136
:1019900090919C01A0919D01B0919E012FBF40911B
:1019A0009601509197016091980170919901841B63
:1019B000950BA60BB70B893E9340A105B10508F422
:1019C00078C10E94A902882321F180919A02811195
:1019D00002C00E94A90210929A0260919B0270912B
:1019E0009C0290E080E00E94601820E030E040E837
:1019F0005EE30E94EE1820E030E040E251E40E94F5
:101A0000EE186093920170939301809394019093E8
:101A10009501609192017091930180919401909150
:101A200095010E942A1890E080E00E944C05809168
:101A3000980281114BC0809187028F3F41F061E095
:101A40000E94120361E0809187020E947B028091D4
:101A50007C0290917D02892B09F46DC01FB7F89428
:101A600080919101811127C0EAEBF2E08491ECE9C9
:101A7000F2E09491E82FF0E0EE0FFF1FE859FF4FDE
:101A8000A591B4918C91982321F461E08AE00E94A1
:101A90007B0261E08AE00E9412038CB580618CBDFC
:101AA0008CB580648CBD61E08DE00E94120361E022
:101AB0008BE00E941203809191018F5F80939101CE
:101AC0001FBFF1E0F0939702F093980244E050E0DA
:101AD0006FEF70E0CE0101960E947A1B80917C022C
:101AE00090917D02892B41F0E0917E02F0917F027E
:101AF000908181819CBD8DBD809187028F3F19F0BF
:101B000060E00E947B02898120917C0230917D02FD
:101B1000232B09F412C18EBDFE0131962F85388921
:101B2000E217F30761F191810DB407FEFDCF8EB589
:101B30009EBD8193F3CF61E0809188020E941203E1
:101B4000809186028B7F60E009F061E080918802DD
:101B50000E947B02809189028F3F41F061E00E94E8
:101B6000120361E0809189020E947B0280918A02C7
:101B70008F3F09F4A6CF60E00E941203A2CF0DB4FC
:101B800007FEFDCF8EB58C83809187028F3F19F0C1
:101B900061E00E947B0269817A8176276727762738
:101BA00090E080E0982F872F762F66272B81622B7D
:101BB000982F872F762F66272C81622B0091990210
:101BC00010E030E020E00623172328233923012BDF
:101BD000022B032B09F087C197FF7DC132E1969557
:101BE0008795779567953A95D1F7706C8F6F9F6F52
:101BF0000E94621820E030E040E85EE30E94EE18A8
:101C000020E030E040E251E40E94EE180E942A18E1
:101C100081E090E00E944C0580E480937C008091FC
:101C20007A00806480937A0080917A0086FDFCCFF0
:101C30006091780070917900072E000C880B990B49
:101C40000E94621824E33DE94DE95BE30E94EE182F
:101C500020E030E040EA50E40E94B81722E133E887
:101C600040EC5DE30E944C172CEB34E743E15CE36E
:101C70000E94B81720E030E040E251E40E94EE18E4
:101C80000E942A1882E090E00E944C052FB7F89439
:101C900080919B0190919C01A0919D01B0919E012A
:101CA0002FBF8093960190939701A0939801B093D2
:101CB000990180915C0290915D02DC01ED91FC91B3
:101CC0000084F185E02D0995209152023091530254
:101CD00028173907C8F480915C0290915D02DC01FD
:101CE000ED91FC910084F185E02D099590935302CC
:101CF000809352020E9459036093650270936602BA
:101D00008093670290936802809169022091520249
:101D100030915302232B09F0EBC081110E94E106A0
:101D200080E090E0892B09F42FCE0E94E8038823FD
:101D300009F42ACE0E94000027CE2091840230911F
:101D4000850255245394232B11F060E8562E8521EB
:101D5000662463948111612C20918002309181026C
:101D6000409182025091830260E271EA87E090E044
:101D70000E946719822E8E010F5F1F4FA22EB12C79
:101D8000D8014C90952C712C882019F0C5010E9427
:101D90004E0380918602877F09F05EC080918902A0
:101DA0008F3FA9F0942D992181E009F480E08615F8
:101DB00071F0E0918B02F0918C0280919302992353
:101DC00009F444C09081892B808366246394E09158
:101DD0008D02F0918E02808190919502892B8083F3
:101DE000882019F0C5010E944E0380918A028F3F1E
:101DF00051F0E0918F02F0919002808190919402D5
:101E0000892309F07928E0918D02F0918E0290816A
:101E10008091950280958923808380918A028F3FEB
:101E200011F0F80170828091840290918502892BD3
:101E300009F04FC0990C9110A7CF0F5F1F4F2D8550
:101E40003E850217130709F09BCF9ECE90818095A7
:101E500089238083612CBBCFE0918D02F0918E02AB
:101E6000808190919502892B8083882019F0C5018B
:101E70000E944E03809189028F3F61F0E0918B02B6
:101E8000F0918C0280919302942D9921F1F0908130
:101E9000892B8083E0918D02F0918E029081809158
:101EA000950280958923808380918A028F3F09F46F
:101EB000B4CFE0918F02F0919002808190919402D2
:101EC000892309F4AACF7928A8CF90818095892306
:101ED000E0CF9694B0CF22E1959587957795679559
:101EE0002A95D1F785CE60E070E080EC9FE788CE40
:101EF000882309F46AC00E94590300916502109179
:101F000066022091670230916802601B710B820BA0
:101F1000930B009161021091620220916302309153
:101F20006402601771078207930708F4F9CE809165
:101F30005C0290915D02DC01ED91FC910284F385DD
:101F4000E02D099580937B0220915202309153023B
:101F5000215031093093530220935202909169022B
:101F6000992329F090916A02992309F45BC7FF2411
:101F7000F39481115AC780915002909151020E94AE
:101F80002B1A80915202909153020E948F199093C4
:101F9000510280935002E12C892B09F06EC010E0B1
:101FA00080915202909153021817190608F00EC141
:101FB00080915C0290915D02DC01ED91FC910284C4
:101FC000F385E02D09951F5FEBCF0E9459034B016C
:101FD0005C010E94590300916502109166022091F4
:101FE000670230916802601B710B820B930B0091AA
:101FF00061021091620220916302309164026017C5
:1020000071078207930708F092CF80915C0290914C
:102010005D02DC01ED91FC910084F185E02D0995D4
:10202000209152023091530228173907C8F4809149
:102030005C0290915D02DC01ED91FC910084F185E0
:10204000E02D099590935302809352020E94590308
:1020500060936502709366028093670290936802B2
:102060000E945903681979098A099B09613A7648DF
:102070008140910508F4ADCF53CE0E2D10E0809134
:1020800052029091530208171907A8F480915C023C
:1020900090915D02DC01ED91FC910284F385E02DCD
:1020A00009952091500230915102020F131FF8013F
:1020B0008083E394E2CF6091500270915102AC01B1
:1020C00042505109FB01E40FF51F0081860F971F55
:1020D000FC0131978081102F082F509353024093B9
:1020E000520280917B020E9437020817190709F0FB
:1020F00063C087EE80935402E0915602F09157023C
:102100002091500230915102309709F4B2C680916B
:102110007B029091690241E094278A839983AE0102
:102120004F5F5F4F60915202C9010995809354023D
:10213000FF2009F43EC0409050025090510280911F
:10214000690281114AC080915402875E823008F092
:1021500033C0F2019081A180B280BA24AB24BA24AA
:102160008181282F30E083809480982489249824CA
:10217000EFEFE90FE73108F050C6F0E0EE53FF4E05
:102180000C948919511396135F12DF132814F3115D
:102190000D170D170D170D170D170D170D170D171F
:1021A0008A14AE120D170D170D172E157015F71591
:1021B0007316883E09F4BFCF80915002909151026E
:1021C0000E942B1A10925102109250021092530248
:1021D0001092520280916902A0CDD201EC919E2F03
:1021E0009F77A0917302B09174028C91981385C06F
:1021F00080915402875E823008F05DC0A090710229
:10220000B09072024091750250917602609177020F
:1022100070917802E7FF05C0F2018181809354023A
:102220004AC0E91711F082EEF9CF109254021396CA
:102230002D913C91322723273227E150E73108F0D6
:10224000D0C0F0E0EA5DFE4E0C9489198111811135
:102250003D113D115B115B11F111F111F111F11102
:10226000F111F111F111F1115B115B11F111F1118A
:10227000F111BA115B115B113D11D2011196EC9174
:10228000C901880F991FE817190609F0CCCFC201C0
:102290000296A114B10469F0FC01D5012150310965
:1022A00050F0819191919827892798278D939D933C
:1022B000F5CF0E94DA05E0916F02F091700230973D
:1022C00061F08091540250E040E070E060E090E006
:1022D00009951092700210926F0280917302909192
:1022E00074020E942B1A10927402109273021092C0
:1022F00072021092710210926A02B1E0B09354021D
:102300005BCFC90113E0969587951A95E1F7E82F01
:10231000D901A770BB27AB2B11F0E1E0E80FD20188
:1023200011968C918E137FCFA114B104F1F0F501B9
:102330002A0D3B1D50E040E060E0E217F30709F48E
:10234000BACFD201A40FB51F12968C9190E0062E41
:1023500002C0959587950A94E2F7817081936F5F2B
:10236000683059F74F5F5F4FE7CFC20102960E9476
:102370006F05A1CFF201818199EF980F9F3E10F078
:1023800083E04CCF4201F2E08F0E911C480E511CAD
:102390008414950408F08FCFD40111968C91119775
:1023A000863071F74C9189EF840F8F3E48F750E0EB
:1023B000C401840F951F4816590610F3B4016E5FCF
:1023C0007F4FC5010E94711BF401808190E001964E
:1023D000880E991ED4018C918150990BA80EB91EBC
:1023E000D7CF81EE1BCFE0915802F0915902B3E0B4
:1023F0007B2E612CC72C79826A82EA2CBC82AB824C
:10240000082D9E828D82D12CFC801E812F813885E3
:1024100049855A856B857C8586E090E00995BC01ED
:10242000892BB9F423E030E02D963FAF2EAF2D97E6
:102430002F96BFAEAEAE2F97A4012F966CAD7DAD9B
:102440008EAD9FAD2F970E942405811107C062E0D9
:1024500070E086E090E00E94210756C383E090E0A0
:1024600029969FAF8EAF29972B96BFAEAEAE2B9716
:102470002B966CAD7DAD8EAD9FAD2B970E94580510
:1024800064E070E08816990621F782E08093540298
:10249000E0915A02F0915B0279826A82BC82AB823F
:1024A0009E828D82D62CFC801E812F8138854985A5
:1024B0005A856B857C8586E090E0099525C3E0917F
:1024C0005802F0915902A3E07A2E612CC72C798230
:1024D0006A82EA2CBC82AB82082D9E828D82D12C2E
:1024E000FC801E812F81388549855A856B857C85C6
:1024F00083E090E00995009721F0BC0183E090E033
:10250000AACFA3E0B0E02596BFAFAEAF2597279640
:10251000BFAEAEAE279723E030E0A40127966CADA6
:102520007DAD8EAD9FAD27970E944407009729F798
:10253000E0915A02F0915B0279826A82BC82AB829E
:102540009E828D82D62CFC801E812F813885498504
:102550005A856B857C8583E090E0AFCFE09158028F
:10256000F091590283E0C82E89831A82EA2CBC823A
:10257000AB82082D9E828D82D12CFC801E812F8102
:10258000388549855A856B857C8580E190E0099581
:10259000BC01892BA9F4C40101978D37910570F412
:1025A000C501809590958815990540F0F201258127
:1025B000C401880F991F2817190629F063E070E0FD
:1025C00080E190E048CF712C612C03E010E01A8389
:1025D0000983BC82AB82B301CE0101960E94DF0465
:1025E000AB01BC018EE492E00E94EB04892B19F44C
:1025F00062E070E0E5CFFFEF6F1A7F0A8614970460
:1026000031F723E030E021963FAF2EAF219723969C
:10261000BFAEAEAE2397940123964CAD5DAD6EADCB
:102620007FAD2397C20106960E94DA0564E070E050
:10263000882331F280915002909151020E942B1A0E
:1026400085E090E090935302809352020E948F198C
:10265000FC019093510280935002892B31F080E16C
:102660008083B182A2821382648283E080935402C9
:10267000E0915A02F0915B02C82E89831A82EA2CFB
:10268000BC82AB82062D7E826D82D12CFC801E81A5
:102690002F81388549855A856B857C8580E190E05E
:1026A0000CCFE0915802F09159021A821982EA2C5B
:1026B000BC82AB82082D9E828D82C12CDA80FC8088
:1026C0001E812F81388549855A856B857C8581E0FF
:1026D00090E00995009721F0BC0181E090E0BBCE2D
:1026E0001CAE1BAEBEAEADAE21E030E0A4016BADC2
:1026F0007CAD8DAD9EAD0E94C307009769F7E09158
:102700005A02F0915B021A821982BC82AB829E82CD
:102710008D82C12CDA80FC801E812F81388549850D
:102720005A856B857C8581E090E0C7CEE0915802A8
:10273000F091590277247394612CC72C79826A82B4
:10274000EA2CBC82AB82082D9E828D82D12CFC802B
:102750001E812F81388549855A856B857C8582E06D
:1027600090E00995009721F0BC0182E090E073CEE3
:1027700081E090E098AF8FABBAAEA9AE22E030E036
:10278000A4016FA978AD89AD9AAD0E94C3070097E7
:1027900059F7E0915A02F0915B0279826A82BC8219
:1027A000AB829E828D82D62CFC801E812F81388543
:1027B00049855A856B857C8582E090E07ECEE091EC
:1027C0005802F091590272E0772E612CC72C798261
:1027D0006A82EA2CBC82AB82082D9E828D82D12C2B
:1027E000FC801E812F81388549855A856B857C85C3
:1027F00084E090E00995009721F0BC0184E090E02E
:102800002ACEA2E0B0E0BCABABABBEAAADAA24E03E
:1028100030E0A4016BA97CA98DA99EA90E94440760
:10282000009759F7E0915A02F0915B0279826A822F
:10283000BC82AB829E828D82D62CFC801E812F8131
:10284000388549855A856B857C8584E090E035CE56
:10285000E0915802F09159021A821982EA2CBC8246
:10286000AB82082D9E828D82C12CDA80FC801E8175
:102870002F81388549855A856B857C8585E090E078
:102880000995BC01892B39F58114BFEF9B0629F00E
:1028900063E070E081149104F1F418AA1FA6BAAAAB
:1028A000A9AAA4016FA578A989A99AA90E942405BB
:1028B00062E070E0882379F01CA61BA6BEA6ADA638
:1028C0006BA57CA58DA59EA50E9458058816990626
:1028D00029F064E070E085E090E0BDCD82E0809377
:1028E0005402E0915A02F0915B021A821982EA2C9A
:1028F000BC82AB82082D9E828D82C12CDA80FC8046
:102900001E812F81388549855A856B857C8585E0B8
:1029100090E0D3CDE0915802F09159021A821982C9
:10292000EA2CBC82AB82082D9E828D82C12CDA807B
:10293000FC801E812F81388549855A856B857C8571
:102940008FE090E00995BC01892B01F5C40163E09B
:10295000969587956A95E1F7940127703327232B85
:1029600009F00196940121503109203D374060F46F
:102970009501209530952815390530F0D20115962E
:102980002C912817190629F063E070E08FE090E0A1
:1029900062CDD12CC12C1A821982BC82AB82B601C5
:1029A000CE0101960E94DF04AB01BC018EE492E0EF
:1029B0000E94EB04892B19F462E070E0E7CFBFEFCF
:1029C000CB1ADB0A8C149D0431F718A61FA2BAA6F5
:1029D000A9A694014FA158A569A57AA5C20106969A
:1029E0000E946F05811103C064E070E0CFCF809139
:1029F0005002909151020E942B1A85E090E0909332
:102A00005302809352020E948F19FC01909351024D
:102A100080935002892B31F08FE08083B182A282B3
:102A2000D382C48283E080935402E0915A02F091F1
:102A30005B021A821982EA2CBC82AB820C2DDE82E8
:102A4000CD82C12CDA80FC801E812F81388549859A
:102A50005A856B857C858FE090E02FCD99EF980F9C
:102A600063E070E09F3E88F5F201329667E00E94D5
:102A70005B1902E090E04381548154274527542795
:102A8000258136813227232732276081663019F469
:102A90004031574218F062E070E017C02F5F3F4F9F
:102AA000220F020F37969F5F8913E5CF10E0C80110
:102AB0000E948F199093510280935002892B41F408
:102AC000C2010E942B1A64E070E084E190E0C3CC64
:102AD0001093530200935202C2010E942B1ADBCFC3
:102AE000895063E070E0833F48F4C2010296420ED1
:102AF000531E8415950528F462E070E085E190E0AE
:102B0000AACC82E08093540290907B02911003C083
:102B1000B1E0B093540280915402813009F44CCB5F
:102B2000A0905002B09051020091520210915302B5
:102B3000402FB501892D0E943702882E792E809171
:102B40005E0290915F0297FD08C0609160020E9452
:102B50007B028BE99FE00197F1F780915C029091F5
:102B60005D02DC01ED91FC910190F081E02D692D79
:102B7000099580915C0290915D02A8015527DC01C6
:102B8000ED91FC910280F381E02DB50109958091D2
:102B90005C0290915D02DC01ED91FC910190F0816D
:102BA000E02D672D099580915C0290915D02DC011A
:102BB000ED91FC910190F081E02D682D09958091B7
:102BC0005C0290915D02DC01ED91FC910680F78141
:102BD000E02D099580915E0290915F0297FDECCA0D
:102BE00060916002B1E06B270E947B02E5CAD201CE
:102BF00015966D907C90762467247624E091580297
:102C0000F091590253E0552E412CC52C59824A822D
:102C1000EA2CBC82AB82082D9E828D82262D78867E
:102C20006F82D12CFC801E81388549855A856B8541
:102C30007C8586E190E00995BC01892BA9F5E3E04C
:102C4000F0E0FCA3EBA3BEA2ADA26BA17CA18DA181
:102C50009EA10E94580583010827192708211921E0
:102C60000625172523E030E038A32F8FBAA2A9A2AA
:102C7000A8016F8D78A189A19AA10E94240562E024
:102C800070E0882389F083E090E09C8F8B8FBE8E6C
:102C9000AD8E6B8D7C8D8D8D9E8D0E945805081795
:102CA000190729F064E070E086E190E0D4CB82E07F
:102CB00080935402E0915A02F0915B0259824A8259
:102CC000BC82AB82082D9E828D82262D78866F82F3
:102CD000D42CFC801E81388549855A856B857C857E
:102CE00086E190E0EACBD20115968D919C911697E2
:102CF000F82FE92FFA8BE98B17966D907C9076244C
:102D000067247624E0915802F091590243E0342E72
:102D1000212CC32C39822A82EA2CBC82AB82082D5A
:102D20009E828D82232D3F822886498989899A89AE
:102D30009A878987662D7C866B86D12CFC801E81C4
:102D400030E05A857C8587E190E00995009711F085
:102D5000BC011BC0C40101978D379105A0F4C301CC
:102D600001978D37910578F4C50180959095881568
:102D7000990548F0D20119962C91C301880F991F2B
:102D80002817190629F063E070E087E190E063CB33
:102D9000E3E0F0E0F88FEF8B29893A893A8F298FA9
:102DA00093014F89588D698D7A8DC2010A960E94D0
:102DB000DA0564E070E0882341F383E090E09C8BC7
:102DC0008B8BBE8AAD8A27E130E0A4016B897C89B8
:102DD0008D899E890E944407009709F0B9CFE09140
:102DE0005A02F0915B0239822A82BC82AB829E82B7
:102DF0008D82232D3F8228864989A989BA89BA877D
:102E0000A987662D7C866B86D22CFC801E81322D94
:102E10005A857C8587E190E050CB61E070E0892F96
:102E200090E019CB882339F0F12C90916A02891334
:102E300002C0F110A0C88091560290915702F12C67
:102E4000892B09F098C810E08091520290915302AA
:102E50001817190608F0BAC980915C0290915D02BA
:102E6000DC01ED91FC910284F385E02D09951F5F53
:102E7000EBCFF11060C9A0C980915002909151022E
:102E80000E942B1A80917E0290917F02009711F090
:102E90000C942B1A08955058BB27AA270E94631739
:102EA0000C94B4180E94A61838F00E94AD1820F0B7
:102EB00039F49F3F19F426F40C94A3180EF4E0950E
:102EC000E7FB0C949D18E92F0E94C51858F3BA1718
:102ED000620773078407950720F079F4A6F50C9430
:102EE000E7180EF4E0950B2EBA2FA02D0B01B901B7
:102EF00090010C01CA01A0011124FF27591B99F070
:102F0000593F50F4503E68F11A16F040A22F232F7B
:102F1000342F4427585FF3CF469537952795A795CB
:102F2000F0405395C9F77EF41F16BA0B620B730B72
:102F3000840BBAF09150A1F0FF0FBB1F661F771FE3
:102F4000881FC2F70EC0BA0F621F731F841F48F498
:102F5000879577956795B795F7959E3F08F0B0CF21
:102F60009395880F08F09927EE0F97958795089508
:102F70000E94CC170C94B4180E94AD1858F00E940F
:102F8000A61840F029F45F3F29F00C949D185111C8
:102F90000C94E8180C94A3180E94C51868F39923A0
:102FA000B1F3552391F3951B550BBB27AA27621745
:102FB0007307840738F09F5F5F4F220F331F441F52
:102FC000AA1FA9F335D00E2E3AF0E0E832D0915086
:102FD0005040E695001CCAF72BD0FE2F29D0660F73
:102FE000771F881FBB1F261737074807AB07B0E8B6
:102FF00009F0BB0B802DBF01FF2793585F4F3AF0BC
:103000009E3F510578F00C949D180C94E8185F3F92
:10301000E4F3983ED4F3869577956795B795F79541
:103020009F5FC9F7880F911D9695879597F9089529
:10303000E1E0660F771F881FBB1F621773078407C5
:10304000BA0720F0621B730B840BBA0BEE1F88F7D4
:10305000E09508950E9431186894B1110C94E81815
:1030600008950E94CD1888F09F5798F0B92F99279E
:10307000B751B0F0E1F0660F771F881F991F1AF063
:10308000BA95C9F714C0B13091F00E94E718B1E0C9
:1030900008950C94E718672F782F8827B85F39F0C8
:1030A000B93FCCF3869577956795B395D9F73EF4FC
:1030B00090958095709561957F4F8F4F9F4F0895A4
:1030C000E89409C097FB3EF49095809570956195C2
:1030D0007F4F8F4F9F4F9923A9F0F92F96E9BB2778
:1030E0009395F695879577956795B795F111F8CFF4
:1030F000FAF4BB0F11F460FF1BC06F5F7F4F8F4F5F
:103100009F4F16C0882311F096E911C0772321F054
:103110009EE8872F762F05C0662371F096E8862FEC
:1031200070E060E02AF09A95660F771F881FDAF743
:10313000880F9695879597F9089597F99F6780E886
:1031400070E060E008959FEF80EC089500240A94F9
:103150001616170618060906089500240A94121672
:103160001306140605060895092E0394000C11F4A5
:10317000882352F0BB0F40F4BF2B11F460FF04C052
:103180006F5F7F4F8F4F9F4F089557FD9058440FAB
:10319000551F59F05F3F71F04795880F97FB991FB6
:1031A00061F09F3F79F08795089512161306140673
:1031B000551FF2CF4695F1DF08C016161706180600
:1031C000991FF1CF86957105610508940895E894DB
:1031D000BB2766277727CB0197F908950E9401192D
:1031E0000C94B4180E94A61838F00E94AD1820F074
:1031F000952311F00C949D180C94A31811240C9491
:10320000E8180E94C51870F3959FC1F3950F50E020
:10321000551F629FF001729FBB27F00DB11D639F88
:10322000AA27F00DB11DAA1F649F6627B00DA11D2E
:10323000661F829F2227B00DA11D621F739FB00DD4
:10324000A11D621F839FA00D611D221F749F332744
:10325000A00D611D231F849F600D211D822F762FDD
:103260006A2F11249F5750409AF0F1F088234AF0BA
:10327000EE0FFF1FBB1F661F771F881F9150504026
:10328000A9F79E3F510580F00C949D180C94E81806
:103290005F3FE4F3983ED4F3869577956795B795AD
:1032A000F795E7959F5FC1F7FE2B880F911D9695C7
:1032B000879597F90895991B79E004C0991F96178F
:1032C00008F0961B881F7A95C9F780950895A1E2AA
:1032D0001A2EAA1BBB1BFD010DC0AA1FBB1FEE1F90
:1032E000FF1FA217B307E407F50720F0A21BB30BDB
:1032F000E40BF50B661F771F881F991F1A9469F757
:1033000060957095809590959B01AC01BD01CF01B2
:103310000895EE0FFF1F0590F491E02D09940F938F
:103320001F93CF93DF938230910510F482E090E0F9
:10333000E0919F02F091A00230E020E0B0E0A0E038
:10334000309799F42115310509F44AC0281B390B2F
:1033500024303105D8F58A819B816115710589F189
:10336000FB0193838283FE0111C040815181028160
:10337000138148175907E0F04817590799F4109737
:1033800061F012960C93129713961C933296CF010C
:10339000DF91CF911F910F91089500939F02109399
:1033A000A002F4CF2115310551F04217530738F030
:1033B000A901DB019A01BD01DF01F801C1CFEF01D5
:1033C000F9CF9093A00280939F02CDCFFE01E20F30
:1033D000F31F819391932250310939832883D7CFEA
:1033E00020919D0230919E02232B41F420910201F5
:1033F0003091030130939E0220939D0220910001A1
:10340000309101012115310541F42DB73EB74091AE
:10341000040150910501241B350BE0919D02F091B0
:103420009E02E217F307A0F42E1B3F0B2817390763
:1034300078F0AC014E5F5F4F2417350748F04E0F10
:103440005F1F50939E0240939D02819391939FCF63
:10345000F0E0E0E09CCFCF93DF930097E9F0FC0130
:10346000329713821282A0919F02B091A002ED01C7
:1034700030E020E01097A1F420813181820F931F6A
:1034800020919D0230919E022817390709F061C0F2
:10349000F0939E02E0939D02DF91CF910895EA019F
:1034A000CE17DF07E8F54A815B819E014115510582
:1034B000B1F7E901FB83EA8349915991C40FD51F04
:1034C000EC17FD0761F4808191810296840F951FAE
:1034D000E90199838883828193819B838A83F0E0C9
:1034E000E0E012968D919C9113970097B9F52D917C
:1034F0003C911197CD010296820F931F20919D025E
:1035000030919E022817390739F6309751F51092FD
:10351000A00210929F02B0939E02A0939D02BCCF86
:10352000D383C28340815181840F951FC817D90767
:1035300061F44E5F5F4F88819981480F591F518315
:1035400040838A819B81938382832115310509F011
:10355000B0CFF093A002E0939F029ECFFD01DC016B
:10356000C0CF13821282D7CFB0E0A0E0EAEBFAE13D
:103570000C94831B8C01009751F4CB010E948F198E
:103580008C01C801CDB7DEB7E0E10C949F1BFC01B4
:10359000E60FF71F9C0122503109E217F30708F4E8
:1035A0009DC0D901CD91DC911197C617D70798F02E
:1035B000C530D10530F3CE0104978617970708F37D
:1035C000C61BD70B2297C193D1936D937C93CF01E8
:1035D0000E942B1AD6CF5B01AC1ABD0A4C018C0E8F
:1035E0009D1EA0919F02B091A002512C412CF12C64
:1035F000E12C109731F580919D0290919E028815E3
:10360000990509F05CC04616570608F058C080912D
:10361000000190910101009741F48DB79EB7409150
:10362000040150910501841B950BE817F90708F078
:1036300055C0F0939E02E0939D02F901718360836F
:10364000A0CF8D919C91119712966C901297139622
:103650007C901397A815B90559F56C0142E0C40E8A
:10366000D11CCA14DB0420F1AC014A195B09DA0150
:103670001296159780F06282738251834083D9013C
:103680006D937C93E114F10471F0D7011396FC93D0
:10369000EE93129776CF22968C0F9D1FF90191839E
:1036A0008083F301EFCFF093A002E0939F0269CFF4
:1036B0004816590608F42C017D01D3019ACFCB019D
:1036C0000E948F197C01009749F0AE01B8010E9459
:1036D000711BC8010E942B1A870153CF10E000E034
:1036E00050CFFB01DC0102C001900D9241505040CF
:1036F000D8F70895DC0101C06D9341505040E0F7C8
:1037000008952F923F924F925F926F927F928F9285
:103710009F92AF92BF92CF92DF92EF92FF920F9360
:103720001F93CF93DF93CDB7DEB7CA1BDB0B0FB66A
:10373000F894DEBF0FBECDBF09942A883988488827
:103740005F846E847D848C849B84AA84B984C884BD
:10375000DF80EE80FD800C811B81AA81B981CE0FB4
:10376000D11D0FB6F894DEBF0FBECDBFED01089599
:1037700011E0C3E6D1E004C0FE010E948919219640
:0A378000C436D107C9F7F894FFCF53
:10378A000000A1028000000000001E047E03AB03BB
:10379A006B04DC03BA03CE0300000000EB0434061A
:00000001FF
