:100000000C9462000C948A000C948A000C948A0070
:100010000C948A000C948A000C948A000C948A0038
:100020000C948A000C948A000C948A000C948A0028
:100030000C948A000C948A000C948A000C948A0018
:100040000C94D9090C948A000C94490A0C94230A44
:100050000C948A000C948A000C948A000C948A00F8
:100060000C947B0A0C948A000000000024002700F6
:100070002A0000000000250028002B0000000008D6
:10008000000201000003040700000000000000005F
:1000900000000000230026002900040404040404D6
:1000A0000404020202020202030303030303010227
:1000B00004081020408001020408102001020408F6
:1000C00010209A0B11241FBECFEFD8E0DEBFCDBFAA
:1000D00011E0A0E0B1E0E8EAF3E202C005900D9281
:1000E000A035B107D9F722E0A0E5B1E001C01D922B
:1000F000A13EB207E1F710E0C2E6D0E004C02197CC
:10010000FE010E94BD11C136D107C9F70E94120C31
:100110000C94D2110C940000CF92DF92EF92FF92D8
:10012000CF93DF93B091D502A0E08111AB2F8091E6
:10013000D60290E0880F991FAC0140575F4FC090E6
:10014000DB02D090DC02E090DD02F090DE0230E0D5
:1001500020E0FA01C591D491E881B90190E080E0F6
:10016000EB23EA130AC02F5F3F4F6C157D058E0508
:100170009F0578F36FEF7FEFCB01DF91CF91FF9079
:10018000EF90DF90CF9008958091A1019091A2010E
:10019000891B990B0895833081F028F4813099F000
:1001A0008230A9F008958730A9F08830C9F08430F2
:1001B000B1F4809180008F7D03C0809180008F77A3
:1001C00080938000089584B58F7784BD089584B5A9
:1001D0008F7DFBCF8091B0008F778093B000089522
:1001E0008091B0008F7DF9CFCF93DF93282F30E03F
:1001F000F901E458FF4F8491F901E255FF4FD49182
:10020000F901E656FF4FC491CC23A1F081110E9461
:10021000CB00EC2FF0E0EE0FFF1FE057FF4FA59152
:10022000B491EC91ED2381E090E009F480E0DF915E
:10023000CF91089580E090E0FACF1F93CF93DF93A2
:10024000282F30E0F901E458FF4F8491F901E2557D
:10025000FF4FD491F901E656FF4FC491CC23A9F08A
:10026000162F81110E94CB00EC2FF0E0EE0FFF1F44
:10027000EE58FF4FA591B4918FB7F894EC911111FE
:1002800008C0D095DE23DC938FBFDF91CF911F9103
:100290000895DE2BF8CFCF93DF93C9ECD2E061E075
:1002A00088810E941D0183E290E00197F1F760E0F0
:1002B0008881DF91CF910C941D01CF93DF9390E063
:1002C000FC01E255FF4F249186569F4FFC0184911B
:1002D0008823C9F090E0880F991FFC01E859FF4F6F
:1002E000A591B491FC01EE58FF4FC591D4916111D5
:1002F0000DC09FB7F8948C91209582238C938881B0
:10030000282328839FBFDF91CF910895623051F455
:100310009FB7F8943C91822F809583238C93E8813A
:100320002E2BEFCF8FB7F894EC912E2B2C938FBF01
:10033000EACF0F931F93CF93DF938091CA020E945D
:10034000F400892BD1F700E0C7E0D0E08091CA0229
:100350000E94F4000C2E01C0880F0A94EAF7082BC3
:100360000E944B01219790F761E08091CA020E94A0
:100370005D0160E08091CA020E941D010E944B0154
:1003800060E08091CA020E945D0110E0C7E0D0E009
:100390008091CA020E94F4000C2E01C0880F0A94BA
:1003A000EAF7182B0E944B01219790F761E08091AA
:1003B000CA020E945D0161E08091CA020E941D0193
:1003C0000E944B01902F812FDF91CF911F910F91B0
:1003D00008950F931F93CF93DF93082F61E08091CF
:1003E000C9020E941D01C3E2D0E0CE010197F1F7DE
:1003F00060E08091CA020E941D01CE010197F1F7D1
:1004000060E08091C9020E941D01CE010197F1F7C1
:1004100061E08091C9020E941D01CE010197F1F7B0
:1004200061E08091CA020E941D01CE010197F1F79F
:1004300060E08091C9020E941D012197F1F7C8E098
:10044000D0E010E8602F61238091CA020E941D0154
:100450000E944B0116952197A9F760E08091CA028E
:100460000E945D018091CA020E94F400EC010E948A
:100470004B0181E0CD2B09F080E0DF91CF911F91FE
:100480000F9108953FB7F89480919D0190919E013E
:10049000A0919F01B091A00126B5A89B05C02F3F58
:1004A00019F00196A11DB11D3FBFBA2FA92F982F9A
:1004B0008827BC01CD01620F711D811D911D42E095
:1004C000660F771F881F991F4A95D1F708958F925D
:1004D0009F92AF92BF92CF92DF92EF92FF924B0129
:1004E0005C010E9442026B017C010E9442026C1975
:1004F0007D098E099F09683E734081059105A8F327
:1005000021E0821A9108A108B10888EEC80E83E0A4
:10051000D81EE11CF11C81149104A104B10429F737
:10052000FF90EF90DF90CF90BF90AF909F908F9013
:100530000895CF92DF92EF92FF920F931F93CF9384
:10054000DF93CDB7DEB7C054D1400FB6F894DEBF0D
:100550000FBECDBF2FB7F894809113029091140273
:10056000A0911502B09116022FBF4091D702509171
:10057000D8026091D9027091DA028C019D01041BAE
:10058000150B260B370BB901A801403D57406105FB
:10059000710590F48091DF02C05CDE4F0FB6F894D5
:1005A000DEBF0FBECDBFDF91CF911F910F91FF90A6
:1005B000EF90DF90CF9008958093D7029093D80268
:1005C000A093D902B093DA021092D2021092D10213
:1005D0001092D0021092CF021092CE0262E080916F
:1005E000D3020E945D0161E070E080E090E00E9433
:1005F000670261E08091D3020E945D0160E080911A
:10060000D3020E941D018091D4028551823020F5D1
:100610008BE291E10197F1F762E08091D3020E94B1
:100620005D018091E00290E08230910538F0880F02
:10063000991F880F991F05970197F1F7F89480E0AB
:100640000E948C006F3F7F4F8F4F9F4F61F410923D
:10065000DF02789480E0A0CF64E170E080E090E079
:100660000E946702D9CF81E00E948C006F3F7F4FCC
:100670008F4F9F4F61F38E010F5F1F4F6E018FEB06
:10068000C81A8EEFD80A780180E00E948C00F7012A
:10069000608371838283938381E00E948C00F701E1
:1006A0006483758386839783F8E0EF0EF11CEC1466
:1006B000FD0451F7789430E020E0F801C080D1804B
:1006C000E280F3804481558166817781FFEFCF1608
:1006D000DF06EF06FF0631F04F3F8FEF5807680740
:1006E000780719F41092DF02B5CFF90183E0F59590
:1006F000E7958A95E1F7E253FD4F8081880FC41694
:10070000D506E606F70610F180832F5F3F4F085F9E
:100710001F4F2832310589F64091D2022091CE0236
:100720008091CF02280F3327331F8091D002280FEA
:10073000311D8091D102820F932F911D9927481767
:10074000190681F681E08093DF0226CF8160DCCF3D
:1007500008950895AF92BF92CF92DF92EF92FF92E9
:100760000F931F93CF93DF936C017B018B01040FD9
:10077000151FEB015E01AE18BF08C017D10759F075
:100780006991D601ED91FC910190F081E02DC601B7
:100790000995892B79F7C501DF91CF911F910F91B1
:1007A000FF90EF90DF90CF90BF90AF900895FC0145
:1007B000538D448D252F30E0842F90E0821B930BC6
:1007C000541710F0CF96089501970895FC01918D6C
:1007D000828D981761F0A28DAE0FBF2FB11D5D966F
:1007E0008C91928D9F5F9F73928F90E008958FEF11
:1007F0009FEF0895FC01918D828D981731F0828DC5
:10080000E80FF11D858D90E008958FEF9FEF08951B
:10081000FC01918D228D892F90E0805C9F4F821B7F
:1008200091098F739927089587E192E00E94080447
:1008300021E0892B09F420E0822F089580E090E0E8
:10084000892B29F00E94140481110C940000089552
:10085000FC01A48DA80FB92FB11DA35ABF4F2C9135
:10086000848D90E001968F739927848FA689B7892C
:100870002C93A089B1898C91837080648C93938D23
:10088000848D981306C00288F389E02D80818F7DC6
:1008900080830895EF92FF920F931F93CF93DF937E
:1008A000EC0181E0888F9B8D8C8D98131AC0E889AC
:1008B000F989808185FF15C09FB7F894EE89FF897B
:1008C0006083E889F98980818370806480839FBF19
:1008D00081E090E0DF91CF911F910F91FF90EF9019
:1008E0000895F62E0B8D10E00F5F1F4F0F73112729
:1008F000E02E8C8D8E110CC00FB607FCFACFE88964
:10090000F989808185FFF5CFCE010E942804F1CFBF
:10091000EB8DEC0FFD2FF11DE35AFF4FF0829FB7D7
:10092000F8940B8FEA89FB8980818062CFCF682F92
:1009300087E192E00C944A04CF93DF93EC01888D19
:100940008823B9F0AA89BB89E889F9898C9185FD4A
:1009500003C0808186FD0DC00FB607FCF7CF8C91D8
:1009600085FFF2CF808185FFEDCFCE010E94280464
:10097000E9CFDF91CF91089520917101260F3327A0
:10098000331F21323105ECF42091E901FC0190E0A4
:1009900080E0243069F082E00895A09171012191F6
:1009A000AC014F5A5E4FA40FB52FB11D2C93019689
:1009B000861798F380917101680F6093710180E050
:1009C000089581E008951092E90181E08093E801A3
:1009D0001092C30161E082E10E941D0161E083E1A8
:1009E0000E941D01E9EBF0E080818E7F8083808191
:1009F0008D7F808388E48093B80085E48093BC0079
:100A00000895CF93DF9391E0909350018823B9F03C
:100A1000C091B800D091BA008091BC008A7B8093CD
:100A2000BC0060E082E10E941D0160E083E10E9461
:100A30001D010E94E304D093BA00C093B800DF9177
:100A4000CF9108958F929F92AF92BF92CF92DF92F3
:100A5000EF92FF920F931F93CF93DF93D0911202E7
:100A6000D13208F0D7C0182FC09111020E94420263
:100A70006B017C018091E90181116BC082E0809360
:100A8000E9011093E8018FEF8093E7011092E601EE
:100A9000D093E501A1EFB1E0E5ECF1E080E0D813FF
:100AA00091C01092C4018091C401CC0FC82BC09397
:100AB000C4018091C301813009F088C01092C30144
:100AC0000E9442026B017C018091C4018093BB00B3
:100AD0008091EB019091EC01A091ED01B091EE01BC
:100AE000892B8A2B8B2BA1F00E9442020091EB01F3
:100AF0001091EC012091ED013091EE016C197D090E
:100B00008E099F09061717072807390708F442C0FE
:100B10008091BC0083FDD8CF85EC8093BC000E94FF
:100B200042026B017C018091E901823009F450C0DE
:100B30008091E7018F3F09F46FC08091E701803217
:100B400009F46CC08091E701803309F469C084E046
:100B500026C08091EB019091EC01A091ED01B09144
:100B6000EE01892B8A2B8B2B09F484CF0E94420241
:100B70008090EB019090EC01A090ED01B090EE011F
:100B80006C197D098E099F0986169706A806B90675
:100B900008F070CF8091EA010E94010585E0109273
:100BA000F001109212021092EF01DF91CF911F918C
:100BB0000F91FF90EF90DF90CF90BF90AF909F90FC
:100BC0008F9008959D9191938F5F69CF85EEA5CF0A
:100BD0008091EB019091EC01A091ED01B091EE01BB
:100BE000892B8A2B8B2B09F49ECF0E944202009105
:100BF000EB011091EC012091ED013091EE016C19A7
:100C00007D098E099F09061717072807390708F07D
:100C10008ACFC0CF81E0C3CF80E0C1CF82E0BFCF19
:100C200083E0BDCFCF92DF92EF92FF920F931F939D
:100C3000CF93DF93D82FC62F613208F098C00E945F
:100C400042026B017C018091E90181116BC081E05E
:100C50008093E9018093E8019FEF9093E701109260
:100C6000E6019C0F9093E5018093C4018091C4013B
:100C7000DD0FD82BD093C4018091C301813009F0DE
:100C800078C01092C3010E9442026B017C018091E6
:100C9000C4018093BB008091EB019091EC01A09185
:100CA000ED01B091EE01892B8A2B8B2BA1F00E94D4
:100CB00042020091EB011091EC012091ED01309185
:100CC000EE016C197D098E099F0906171707280781
:100CD000390708F448C08091BC0083FDD8CF85EC6B
:100CE0008093BC000E9442026B017C018091E9016B
:100CF000813009F440C08091E6018C1710F4C09156
:100D0000E601E5ECF1E0A3EAB1E080E08C1355C028
:100D10008C2FDF91CF911F910F91FF90EF90DF907B
:100D2000CF9008958091EB019091EC01A091ED019D
:100D3000B091EE01892B8A2B8B2B09F484CF0E9472
:100D400042020091EB011091EC012091ED013091F4
:100D5000EE016C197D098E099F09061717072807F0
:100D6000390708F070CF8091EA010E940105C0E0C8
:100D7000CFCF85EEB5CF8091EB019091EC01A091A2
:100D8000ED01B091EE01892B8A2B8B2B09F4AECFAC
:100D90000E9442020091EB011091EC012091ED01C3
:100DA0003091EE016C197D098E099F09061717070E
:100DB0002807390708F09ACFD6CF91919D938F5F7E
:100DC000A5CF0895E091A2018091A101E81730F428
:100DD000F0E0ED55FE4F808190E008958FEF9FEF9A
:100DE00008959091A2018091A1012FEF3FEF9817F4
:100DF00048F4E92FF0E0ED55FE4F208130E09F5F91
:100E00009093A201C9010895CF92DF92EF92FF92D1
:100E10000F931F93CF93DF937C01CB018A01209125
:100E2000EF01222389F0EB016B01C40ED51ECC1516
:100E3000DD0569F06991D701ED91FC910190F08198
:100E4000E02DC7010995F3CF642F0E94BC04C801AF
:100E5000DF91CF911F910F91FF90EF90DF90CF9096
:100E60000895CF93DF931F92CDB7DEB769832091AA
:100E7000EF012223F9F020911202203258F021E0F4
:100E800030E0FC013383228390E080E00F90DF911B
:100E9000CF9108958091F001E82FF0E0EF50FE4FE0
:100EA000998190838F5F8093F0018093120281E09B
:100EB00090E0ECCF61E0CE0101960E94BC04F7CF38
:100EC000CF93C82F8091C80291E09093EF01809357
:100ED00011021092F0011092120263E084EB92E092
:100EE0000E9431076C2F84EB92E00E94310781E071
:100EF000CF910C94220590E080E00895FC010190D0
:100F00000020E9F73197AF01481B590BBC0187E17D
:100F100092E00C94AA038F929F92AF92BF920F938C
:100F20001F93CF93DF93CDB7DEB7A1970FB6F89499
:100F3000DEBF0FBECDBF19A2423008F44AE08E01D9
:100F40000F5D1F4F842E912CB12CA12CA501940173
:100F50000E947111E62FB901CA01EA30F4F4E05D94
:100F6000D801EE938D01232B242B252B79F790E0CC
:100F700080E0109719F0CD010E947E07A1960FB670
:100F8000F894DEBF0FBECDBFDF91CF911F910F91BF
:100F9000BF90AF909F908F900895E95CE1CF4F9202
:100FA0005F926F927F928F929F92AF92BF92CF92F9
:100FB000DF92EF92FF920F931F93CF936B017C010F
:100FC000742EAC019B010E946C11882399F084E27D
:100FD00091E0CF911F910F91FF90EF90DF90CF9014
:100FE000BF90AF909F908F907F906F905F904F9049
:100FF0000C947E0746015701E894B7F82FEF3FEFB6
:101000004FE75FE7C501B4010E946C1181110DC06B
:101010002FEF3FEF4FE75FE7C501B4010E94430F99
:1010200018161CF488E291E0D4CF2FEF3FEF4FE782
:101030005FE4C701B6010E94FA1018161CF48CE296
:1010400091E0C7CF2FEF3FEF4FE75FECC701B6014D
:101050000E94430F87FDF3CF20E030E0A901C701D4
:10106000B6010E94430F10E000E087FF08C08DE248
:101070000E9497048C01F7FAF094F7F8F094C0E01E
:1010800060E070E080E09FE37C1641F020E030E01B
:1010900040E251E40E94480FCF5FF6CFA7019601CE
:1010A0000E94C00E2B013C010E94C10F4B015C014C
:1010B0004AE00E948B077C01E00EF11ECC23B1F1C7
:1010C000C501B4010E94F00F9B01AC01C301B20144
:1010D0000E94BF0E4B015C018EE20E949704E80E55
:1010E000F91EC15018F120E030E040E251E4C501A2
:1010F000B4010E94FF102B013C010E94C10F4B0163
:10110000B12CA12C4AE0C501B4010E948B07E80E66
:10111000F91EC501B4010E94F00F9B01AC01C3018F
:10112000B2010E94BF0E4B015C01DBCFC701CF9122
:101130001F910F91FF90EF90DF90CF90BF90AF90F5
:101140009F908F907F906F905F904F900895CF9376
:10115000DF9342E00E94CF07EC0180E391E00E9420
:101160007E078C0F9D1FDF91CF910895CF92DF9264
:10117000EF92FF92CF93DF938091C802C1E0C093BA
:10118000EF01809311021092F0011092120261E0BF
:1011900084EB92E00E94310780E00E9422058111D9
:1011A000CDC062E08091C8020E9412061092A20196
:1011B0008093A101823069F0C9E3D0E381E00E940D
:1011C0002205CE01DF91CF91FF90EF90DF90CF907D
:1011D000089584EB92E00E94F106D82E84EB92E011
:1011E0000E94F1067C018091C802C093EF018093B8
:1011F00011021092F0011092120263E084EB92E06F
:101200000E94310780E00E942205C82F811111C081
:1012100061E08091C8020E9412061092A2018093A0
:10122000A101813009F058C084EB92E00E94F106E0
:10123000D82F81E00E942205C111BECF20E03D2DB4
:101240002E293F29032E000C440B550BD4FF4FC011
:1012500092E055954795379527959A95D1F7A4E64D
:10126000B0E00E94B21120E230E040E050E00E9485
:101270009311283883E13807410551057CF1CA01F3
:10128000B90168587341810991096093C002709354
:10129000C1028093C2029093C3020E94F20F20E029
:1012A00030E040E251E40E94480F6B017C0120E0F5
:1012B00030E0A9010E94FA1020E030E040E05FE356
:1012C00087FD35C0C701B6010E94C00E0E942D10D7
:1012D0000E94BA0FEB0172CFC4E0ABCF68E873E1B4
:1012E00080E090E0621B730B840B950BCECF84E003
:1012F00055954795379527958A95D1F7A4E6B0E09F
:101300000E94B21120E130E040E050E00E949311D1
:10131000CA01B90160567940810991096093C402FC
:101320007093C5028093C6029093C702B6CFC701DF
:10133000B6010E94BF0E0E942C0FCACFC9E3D0E3B2
:1013400040CF85ED8093BC008091EB019091EC0142
:10135000A091ED01B091EE010796A11DB11D23E012
:10136000B695A795979587952A95D1F72091BC00BA
:1013700024FD03C01092E90108954091EB015091C2
:10138000EC016091ED017091EE01452B462B472B4E
:1013900069F30097A105B10541F02AE22A95F1F71A
:1013A00000C00197A109B109E1CF8091EA010C9435
:1013B00001051F920F920FB60F9211242F933F93A6
:1013C0008F939F93AF93BF938091130290911402D8
:1013D000A0911502B091160230919C0123E0230FD9
:1013E0002D3758F50196A11DB11D20939C018093C6
:1013F000130290931402A0931502B09316028091E9
:101400009D0190919E01A0919F01B091A001019634
:10141000A11DB11D80939D0190939E01A0939F01FA
:10142000B093A001BF91AF919F918F913F912F9168
:101430000F900FBE0F901F90189526E8230F02966D
:10144000A11DB11DD2CF1F920F920FB60F92112482
:101450002F933F934F935F936F937F938F939F93BC
:10146000AF93BF93EF93FF9387E192E00E9428042C
:10147000FF91EF91BF91AF919F918F917F916F916C
:101480005F914F913F912F910F900FBE0F901F9042
:1014900018951F920F920FB60F9211242F938F93CE
:1014A0009F93EF93FF93E0912702F09128028081B0
:1014B000E0912D02F0912E0282FD1BC0908180915F
:1014C00030028F5F8F7320913102821741F0E091DB
:1014D0003002F0E0E95EFD4F958F80933002FF917E
:1014E000EF919F918F912F910F900FBE0F901F90B2
:1014F00018958081F4CF1F920F920FB60F9211248E
:101500002F933F934F935F936F937F938F939F930B
:10151000AF93BF93EF93FF938091B900887F80369C
:1015200009F44AC0F0F5883209F4A7C018F58031F3
:1015300009F49BC0B8F4882309F4F9C0883009F491
:1015400094C0FF91EF91BF91AF919F918F917F9147
:101550006F915F914F913F912F910F900FBE0F9020
:101560001F901895883109F488C0803251F7809314
:10157000E70114C0803409F49DC040F48033B9F30E
:101580008833F9F68093E70185ECB0C0803509F423
:1015900085C0883509F496C0883499F60E94A1095F
:1015A000D0CF883909F48CC038F5883729F050F449
:1015B000883611F0803729F683E08093E901109294
:1015C000930157C0883809F47BC0803919F08038FE
:1015D00009F0B7CF80919301803208F071C0E0919B
:1015E000930181E08E0F809393018091BB00F0E026
:1015F000ED58FE4F80833DC0803B39F0E0F4803AE7
:1016000009F479C0883A09F09CCF84E08093E9011D
:101610001092720110927101E0919601F091970180
:1016200009958091710181110FC081E08093710152
:101630001092510109C0803C09F4A6CF883C09F4FE
:10164000A3CF883B09F07DCFE091720181E08E0F3E
:1016500080937201F0E0EF5AFE4F80818093BB00CF
:10166000909172018091710129C08091C401809391
:10167000BB0085EC8093BC0064CF9091E601809123
:10168000E501981758F5E091E60181E08E0F80930F
:10169000E601F0E0EB53FE4F8081E9CFE091E601F7
:1016A00081E08E0F8093E6018091BB00F0E0EB5368
:1016B000FE4F80839091E6018091E5019817C8F272
:1016C00085E8D8CFE091E60181E08E0F8093E601B6
:1016D0008091BB00F0E0EB53FE4F80838091E801E6
:1016E00081115CCF81E08093C30184EA8093BC00C8
:1016F0001092E90126CF85EC8093BC001092E9019D
:1017000080919301803230F4E0919301F0E0ED5844
:10171000FE4F10826091930170E0E0919401F0918E
:10172000950183E791E00995109293010ACF1092F9
:10173000E70134CFE7E1F2E01382128288EE93E012
:10174000A0E0B0E084839583A683B78324E031E0F2
:101750003183208325EC30E03587248724EC30E08A
:101760003787268720EC30E0318B208B21EC30E06E
:10177000338B228B22EC30E0358B248B26EC30E04F
:10178000378B268B118E128E138E148EE4EBF2E0C3
:101790001382128284839583A683B78386E191E0C6
:1017A00091838083AEECB2E088E015968C93159718
:1017B0008BE016968C931697E6EBF0E0E491179683
:1017C000EC931797E2EAF0E0E4911896EC931897FF
:1017D00040E85EE360E070E01D964D935D936D938D
:1017E0007C935097E9ECF2E0128281E090E09483E0
:1017F000838389E080838AE08183E0ECF2E080E407
:10180000808783E099EDA0E0B0E080839183A2839C
:10181000B38387E594E0A0E0B0E084839583A6835A
:10182000B7830895789484B5826084BD84B581605F
:1018300084BD85B5826085BD85B5816085BD80919B
:101840006E00816080936E00109281008091810013
:10185000826080938100809181008160809381000B
:10186000809180008160809380008091B1008460CD
:101870008093B1008091B00081608093B00080912E
:101880007A00846080937A0080917A0082608093ED
:101890007A0080917A00816080937A0080917A004A
:1018A000806880937A001092C100E0912702F09145
:1018B000280282E08083E0912302F09124021082CA
:1018C000E0912502F09126028FEC808310922F0286
:1018D000E0912B02F0912C0286E08083E0912902B6
:1018E000F0912A02808180618083E0912902F09149
:1018F0002A02808188608083E0912902F0912A0287
:10190000808180688083E0912902F0912A028081A1
:101910008F7D808383E391E00E947E0761E0809168
:10192000C9020E945D0161E08091CA020E945D01CE
:1019300061E08091CA020E941D0162E08091D302A1
:101940000E945D012FB7F8948091130290911402C8
:10195000A0911502B09116022FBF805D9740A1099A
:10196000B1098093D7029093D802A093D902B09383
:10197000DA0287E38093E0021092A2011092A101A3
:101980001092F001109212020E94E30488EA93E0A0
:10199000909397018093960189EA93E09093950143
:1019A0008093940180E391E00E947E07C0E0D0E044
:1019B0002FB7F8948091130290911402A091150210
:1019C000B09116022FBF40919801509199016091FA
:1019D0009A0170919B01841B950BA60BB70B893E56
:1019E0009340A105B10508F489C10E94990288239A
:1019F00041F08091D4028C3009F462C048F48B30FD
:101A000001F1C12CD12C90ECE92E9FE7F92E43C0B7
:101A100085518230B0F71091D002612F70E0762F9F
:101A2000662766277F778091D102682B90E080E05F
:101A30000E94F00F2DEC3CEC4CEC5DE30E94FF109B
:101A40005BC06091D00270E090E080E00E94F00FF7
:101A50006B017C011091D10217FF0AC0AC019B0100
:101A600060E070E080E89FEB0E94BF0E6B017C019C
:101A70001F70612F70E090E080E00E94F20F2DEC6B
:101A80003CEC4CEC5DE30E94FF10A70196010E9424
:101A9000C00E6B017C010E949902882351F0809155
:101AA000D4028B3030F08D3080F18551823008F4D3
:101AB00030C1812C912C80ECA82E8FE7B82E43C02A
:101AC0001091D002612F70E090E080E00E94F00F52
:101AD0006B017C016091D1026F7070E090E080E05A
:101AE0000E94F20F2DEC3CEC4CEC5DE30E94FF10E9
:101AF000A70196010E94C00E6B017C0117FFCBCF9E
:101B0000F7FAF094F7F8F094C6CF6091CF0270E046
:101B100090E080E00E94F20F2DEC3CEC4CEC5DE399
:101B20000E94FF104B015C016091CE0270E090E0DA
:101B300080E00E94F20F9B01AC01C501B4010E943C
:101B4000C00E4B015C0188E391E00E947E0742E0F9
:101B5000C701B6010E94CF078CE20E949704C5011D
:101B6000B4010E94A70880E491E00E947E0783E010
:101B70000E94E901C12CD12C76018823E1F00E945A
:101B800099012091CC023091CD02BC0190E080E01F
:101B9000232B09F0D0C00E94F00F2AE037ED43E27A
:101BA0005DE30E94FF102DEC3CEC4EE152E40E94FC
:101BB000BF0E6B017C0185E00E94E901812C912C14
:101BC0005401882391F10E9499012091CC02309117
:101BD000CD02BC0190E080E0232B09F0B3C00E944D
:101BE000F00F4B015C012DEB32E546E15FE30E9413
:101BF000FF1025EC3EEF42E050E40E94BF0E2B01A7
:101C00003C01A5019401C501B4010E94FF102BE322
:101C100035E246ED59EB0E94FF109B01AC01C30178
:101C2000B2010E94C00E4B015C0142E0C701B60147
:101C30000E94CF078CE20E949704C501B4010E9464
:101C4000A70881E10E94600762E370E080E090E015
:101C50000E9467020E94B6086091C0027091C102A2
:101C60008091C2029091C3020E94F20F20E030E006
:101C700048EC52E40E94480F4B015C0181E00E9455
:101C8000600762E370E080E090E00E9467020E94DB
:101C9000B6086091C4027091C5028091C60290910D
:101CA000C7020E94F20F20E030E048EC52E40E94AC
:101CB000480F6B017C0188E491E00E947E0742E0BE
:101CC000C501B4010E94CF078CE20E949704C701AE
:101CD000B6010E94A7082FB7F89480911302909143
:101CE0001402A0911502B09116022FBF80939801A3
:101CF00090939901A0939A01B0939B01209709F4C6
:101D000057CE0E941404882309F452CE0E9400008A
:101D10004FCE6091CE027091CF027627672776274B
:101D200090E080E00E94F00F2DEC3CEC4CEC5DE389
:101D30000E94FF1006CF0E94F00F2AE037ED43E229
:101D40005CE32FCF0E94F00F4B015C012DEB32E5DD
:101D500046E15DE30E94FF1025EC3EEF42E050E4D7
:101D60000E94BF0E2B013C01A5019401C501B401E5
:101D70000E94FF1026EF34E246ED55EB4CCF505851
:101D8000BB27AA270E94D70E0C94A8100E949A1075
:101D900038F00E94A11020F039F49F3F19F426F486
:101DA0000C9497100EF4E095E7FB0C946810E92F63
:101DB0000E94B91058F3BA17620773078407950792
:101DC00020F079F4A6F50C94F3100EF4E0950B2EA8
:101DD000BA2FA02D0B01B90190010C01CA01A0017D
:101DE0001124FF27591B99F0593F50F4503E68F1D8
:101DF0001A16F040A22F232F342F4427585FF3CF19
:101E0000469537952795A795F0405395C9F77EF4E9
:101E10001F16BA0B620B730B840BBAF09150A1F032
:101E2000FF0FBB1F661F771F881FC2F70EC0BA0FB8
:101E3000621F731F841F48F4879577956795B79540
:101E4000F7959E3F08F0B0CF9395880F08F099273B
:101E5000EE0F9795879508950E94DB1090F09F37BD
:101E600048F4911116F40C94F41060E070E080E8EE
:101E70009FE3089526F01B16611D711D811D0C94B2
:101E80006E100C9489100E94441008F481E00895AB
:101E90000E945C0F0C94A8100E94A11058F00E94A0
:101EA0009A1040F029F45F3F29F00C94681051110A
:101EB0000C94F4100C9497100E94B91068F39923B5
:101EC000B1F3552391F3951B550BBB27AA27621736
:101ED0007307840738F09F5F5F4F220F331F441F43
:101EE000AA1FA9F335D00E2E3AF0E0E832D0915077
:101EF0005040E695001CCAF72BD0FE2F29D0660F64
:101F0000771F881FBB1F261737074807AB07B0E8A6
:101F100009F0BB0B802DBF01FF2793585F4F3AF0AC
:101F20009E3F510578F00C9468100C94F4105F3FBC
:101F3000E4F3983ED4F3869577956795B795F79532
:101F40009F5FC9F7880F911D9695879597F908951A
:101F5000E1E0660F771F881FBB1F621773078407B6
:101F6000BA0720F0621B730B840BBA0BEE1F88F7C5
:101F7000E09508950E94C10F6894B1110C94F4107B
:101F800008950E94C11088F09F5798F0B92F9927A3
:101F9000B751B0F0E1F0660F771F881F991F1AF054
:101FA000BA95C9F714C0B13091F00E94F310B1E0B6
:101FB00008950C94F310672F782F8827B85F39F0B5
:101FC000B93FCCF3869577956795B395D9F73EF4ED
:101FD00090958095709561957F4F8F4F9F4F089595
:101FE000E89409C097FB3EF49095809570956195B3
:101FF0007F4F8F4F9F4F9923A9F0F92F96E9BB2769
:102000009395F695879577956795B795F111F8CFE4
:10201000FAF4BB0F11F460FF1BC06F5F7F4F8F4F4F
:102020009F4F16C0882311F096E911C0772321F045
:102030009EE8872F762F05C0662371F096E8862FDD
:1020400070E060E02AF09A95660F771F881FDAF734
:10205000880F9695879597F908950E94DB1090F068
:102060009F3748F4911116F00C94F41060E070E082
:1020700080E89FEB089526F41B16611D711D811DDC
:102080000C946E100C948910990F0008550FAA0B30
:10209000E0E8FEEF16161706E807F907C0F012167B
:1020A0001306E407F50798F0621B730B840B950B7E
:1020B00039F40A2661F0232B242B252B21F40895D3
:1020C0000A2609F4A140A6958FEF811D811D089570
:1020D00097F99F6780E870E060E00895882371F4C5
:1020E000772321F09850872B762F07C0662311F4B1
:1020F00099270DC09051862B70E060E02AF09A95E8
:10210000660F771F881FDAF7880F9695879597F9DE
:1021100008959F3F31F0915020F48795779567950A
:10212000B795880F911D9695879597F908959FEF1C
:1021300080EC089500240A9416161706180609065E
:10214000089500240A94121613061406050608952D
:10215000092E0394000C11F4882352F0BB0F40F4B5
:10216000BF2B11F460FF04C06F5F7F4F8F4F9F4FF5
:10217000089557FD9058440F551F59F05F3F71F077
:102180004795880F97FB991F61F09F3F79F08795DE
:102190000895121613061406551FF2CF4695F1DF67
:1021A00008C0161617061806991FF1CF86957105F7
:1021B0006105089408950E94C110A0F0BEE7B91708
:1021C00088F4BB279F3860F41616B11D672F782F4F
:1021D0008827985FF7CF869577956795B11D93957A
:1021E0009639C8F30895E894BB2766277727CB0173
:1021F00097F908950E94441008F48FEF08950E9403
:1022000012110C94A8100E949A1038F00E94A1108C
:1022100020F0952311F00C9468100C949710112461
:102220000C94F4100E94B91070F3959FC1F3950FB0
:1022300050E0551F629FF001729FBB27F00DB11D4A
:10224000639FAA27F00DB11DAA1F649F6627B00DDA
:10225000A11D661F829F2227B00DA11D621F739FC3
:10226000B00DA11D621F839FA00D611D221F749FD1
:102270003327A00D611D231F849F600D211D822F18
:10228000762F6A2F11249F5750409AF0F1F088233F
:102290004AF0EE0FFF1FBB1F661F771F881F91506C
:1022A0005040A9F79E3F510580F00C9468100C94A3
:1022B000F4105F3FE4F3983ED4F3869577956795E5
:1022C000B795F795E7959F5FC1F7FE2B880F911D96
:1022D0009695879597F908950E944410880B990B5D
:1022E0000895A1E21A2EAA1BBB1BFD010DC0AA1F57
:1022F000BB1FEE1FFF1FA217B307E407F50720F06F
:10230000A21BB30BE40BF50B661F771F881F991FE9
:102310001A9469F760957095809590959B01AC0132
:10232000BD01CF010895052E97FB1EF400940E9475
:10233000AA1157FD07D00E94711107FC03D04EF47B
:102340000C94AA1150954095309521953F4F4F4FD1
:102350005F4F089590958095709561957F4F8F4F51
:102360009F4F08950E94C311A59F900DB49F900D9B
:10237000A49F800D911D11240895EE0FFF1F05905D
:10238000F491E02D0994A29FB001B39FC001A39FD7
:10239000700D811D1124911DB29F700D811D11249E
:0823A000911D0895F894FFCF90
:1023A800000000004A04AA03D7039C040804E603BB
:1023B800FA0300000000310704077B07E106C400A8
:1023C800F106E2066E616E00696E66006F76660061
:1023D8000D0A00696E69740044485431313A20008E
:1023E80053485437353A200054483032203A2000B8
:00000001FF
