:100000000C9485000C94AD000C94AD000C94AD00E4
:100010000C94AD000C94AD000C94AD000C94C60390
:100020000C94AD000C94AD000C94AD000C94AD009C
:100030000C94AD000C94AD000C94AD000C94AD008C
:100040000C9424030C94AD000C9494030C946E0354
:100050000C94AD000C94AD000C94AD000C94AD006C
:100060000C94AD000C94AD0008000000BE92244931
:10007000123EABAAAA2ABECDCCCC4C3E00000080DA
:10008000BEABAAAAAA3E00000000BF000000803F4D
:100090000000000000084178D3BB4387D1133D190D
:1000A0000E3CC3BD4282AD2B3E68EC8276BED98F3A
:1000B000E1A93E4C80EFFFBE01C4FF7F3F0000007E
:1000C000000000000000240027002A0000000000BB
:1000D00023002600290000000000250028002B0036
:1000E00004040404040404040202020202020303DE
:1000F00003030303010204081020408001020408E6
:100100001020010204081020EB0311241FBECFEFC2
:10011000D8E0DEBFCDBF11E0A0E0B1E0EAE2F3E15C
:1001200002C005900D92A232B107D9F721E0A2E2F8
:10013000B1E001C01D92AB3EB207E1F710E0C5E8A7
:10014000D0E004C02197FE010E948D09C438D10778
:10015000C9F70E947E040C9493090C9400008E3021
:1001600008F08E508770806480937C0080917A00C4
:10017000806480937A0080917A0086FDFCCF809124
:1001800078009091790008953FB7F89480912F01FD
:1001900090913001A0913101B091320126B5A89B18
:1001A00005C02F3F19F00196A11DB11D3FBFBA2F09
:1001B000A92F982F8827BC01CD01620F711D811DC9
:1001C000911D42E0660F771F881F991F4A95D1F74E
:1001D0000895AF92BF92CF92DF92EF92FF920F936A
:1001E0001F93CF93DF936C017B018B01040F151FCD
:1001F000EB015E01AE18BF08C017D10759F0699135
:10020000D601ED91FC910190F081E02DC601099598
:10021000892B79F7C501DF91CF911F910F91FF9045
:10022000EF90DF90CF90BF90AF900895FC01538D79
:10023000448D252F30E0842F90E0821B930B5417C0
:1002400010F0CF96089501970895FC01918D828D4D
:10025000981761F0A28DAE0FBF2FB11D5D968C91E6
:10026000928D9F5F9F73928F90E008958FEF9FEF25
:100270000895FC01918D828D981731F0828DE80FE1
:10028000F11D858D90E008958FEF9FEF0895FC019B
:10029000918D228D892F90E0805C9F4F821B910968
:1002A0008F739927089583E391E00E94470121E02D
:1002B000892B09F420E0822F089580E090E0892BBB
:1002C00029F00E94530181110C9400000895FC0153
:1002D000A48DA80FB92FB11DA35ABF4F2C91848DA7
:1002E00090E001968F739927848FA689B7892C9304
:1002F000A089B1898C91837080648C93938D848D57
:10030000981306C00288F389E02D80818F7D808359
:100310000895EF92FF920F931F93CF93DF93EC0119
:1003200081E0888F9B8D8C8D98131AC0E889F9899C
:10033000808185FF15C09FB7F894EE89FF8960839F
:10034000E889F98980818370806480839FBF81E020
:1003500090E0DF91CF911F910F91FF90EF90089562
:10036000F62E0B8D10E00F5F1F4F0F731127E02E3D
:100370008C8D8E110CC00FB607FCFACFE889F98975
:10038000808185FFF5CFCE010E946701F1CFEB8D13
:10039000EC0FFD2FF11DE35AFF4FF0829FB7F89449
:1003A0000B8FEA89FB8980818062CFCF682F83E33E
:1003B00091E00C948901CF93DF93EC01888D882321
:1003C000B9F0AA89BB89E889F9898C9185FD03C0B8
:1003D000808186FD0DC00FB607FCF7CF8C9185FF9D
:1003E000F2CF808185FFEDCFCE010E946701E9CF7A
:1003F000DF91CF910895FC0101900020E9F731973A
:10040000AF01481B590BBC0183E391E00C94E90058
:100410008F929F92AF92BF920F931F93CF93DF93D0
:10042000CDB7DEB7A1970FB6F894DEBF0FBECDBF34
:1004300019A2423008F44AE08E010F5D1F4F842E4E
:10044000912CB12CA12CA50194010E946B09E62FDF
:10045000B901CA01EA30F4F4E05DD801EE938D01F0
:10046000232B242B252B79F790E080E0109719F0AF
:10047000CD010E94FB01A1960FB6F894DEBF0FBE1E
:10048000CDBFDF91CF911F910F91BF90AF909F9003
:100490008F900895E95CE1CF4F925F926F927F92C7
:1004A0008F929F92AF92BF92CF92DF92EF92FF9284
:1004B0000F931F93CF936B017C01742EAC019B01B2
:1004C0000E943109882399F082E191E0CF911F9138
:1004D0000F91FF90EF90DF90CF90BF90AF909F90E3
:1004E0008F907F906F905F904F900C94FB0146012E
:1004F0005701E894B7F82FEF3FEF4FE75FE7C501EB
:10050000B4010E94310981110DC02FEF3FEF4FE779
:100510005FE7C501B4010E94170718161CF486E1B5
:1005200091E0D4CF2FEF3FEF4FE75FE4C701B60173
:100530000E946F0818161CF48AE191E0C7CF2FEFD4
:100540003FEF4FE75FECC701B6010E94170787FD39
:10055000F3CF20E030E0A901C701B6010E941707E0
:1005600010E000E087FF08C08DE20E94D6018C01F8
:10057000F7FAF094F7F8F094C0E060E070E080E003
:100580009FE37C1641F020E030E040E251E40E941D
:100590001C07CF5FF6CFA70196010E94AB062B0187
:1005A0003C010E948E074B015C014AE00E94080258
:1005B0007C01E00EF11ECC23B1F1C501B4010E9413
:1005C000BD079B01AC01C301B2010E94AA064B0109
:1005D0005C018EE20E94D601E80EF91EC15018F1AE
:1005E00020E030E040E251E4C501B4010E94C408BB
:1005F0002B013C010E948E074B01B12CA12C4AE03B
:10060000C501B4010E940802E80EF91EC501B4013B
:100610000E94BD079B01AC01C301B2010E94AA0662
:100620004B015C01DBCFC701CF911F910F91FF9070
:10063000EF90DF90CF90BF90AF909F908F907F9082
:100640006F905F904F9008951F920F920FB60F9288
:1006500011242F933F938F939F93AF93BF938091D8
:100660002B0190912C01A0912D01B0912E01309180
:100670002A0123E0230F2D3758F50196A11DB11D46
:1006800020932A0180932B0190932C01A0932D019C
:10069000B0932E0180912F0190913001A0913101F2
:1006A000B09132010196A11DB11D80932F0190934D
:1006B0003001A0933101B0933201BF91AF919F916E
:1006C0008F913F912F910F900FBE0F901F90189513
:1006D00026E8230F0296A11DB11DD2CF1F920F92C3
:1006E0000FB60F9211242F933F934F935F936F9305
:1006F0007F938F939F93AF93BF93EF93FF9383E386
:1007000091E00E946701FF91EF91BF91AF919F919E
:100710008F917F916F915F914F913F912F910F90AA
:100720000FBE0F901F9018951F920F920FB60F9249
:1007300011242F938F939F93EF93FF93E0914301A5
:10074000F09144018081E0914901F0914A0182FDDC
:100750001BC0908180914C018F5F8F7320914D0160
:10076000821741F0E0914C01F0E0ED5CFE4F958F77
:1007700080934C01FF91EF919F918F912F910F905A
:100780000FBE0F901F9018958081F4CF1F920F928B
:100790000FB60F9211242F933F934F935F936F9354
:1007A0007F938F939F93AF93BF93EF93FF93F0E06B
:1007B000E0E00995FF91EF91BF91AF919F918F91EB
:1007C0007F916F915F914F913F912F910F900FBE4D
:1007D0000F901F901895CF93DF93E3E3F1E013821E
:1007E000128288EE93E0A0E0B0E084839583A68334
:1007F000B78384E091E09183808385EC90E09587D6
:10080000848784EC90E09787868780EC90E0918BDA
:10081000808B81EC90E0938B828B82EC90E0958BC7
:10082000848B86EC90E0978B868B118E128E138EC4
:10083000148EE3EEF1E081E080838BE69DE092830D
:10084000818389E1838380E090E0A0E8BFE3848333
:100850009583A683B783ECEFF0E02491A0EDB1E09F
:1008600014962C931497EDEFF0E0E4911596EC9329
:10087000159788EE90E0FC013491E32FF0E0EE0F45
:10088000FF1FEA52FF4F4591549117965C934E9388
:100890001697E9EEF0E0E491F0E0EE0FFF1FE4536D
:1008A000FF4F4591549119965C934E931897FC0114
:1008B0008491E82FF0E0EE0FFF1FEE53FF4FC5913C
:1008C000D4911B96DC93CE931A9752961C92529712
:1008D00081EC9CE21D969C938E931C97E8812E2BB5
:1008E00028831696ED91FC911797908114968C9120
:1008F000809589238083DF91CF910895789484B582
:10090000826084BD84B5816084BD85B5826085BD0B
:1009100085B5816085BD80916E00816080936E0099
:10092000109281008091810082608093810080918B
:10093000810081608093810080918000816080933C
:1009400080008091B10084608093B1008091B000FC
:1009500081608093B00080917A00846080937A00F7
:1009600080917A00826080937A0080917A00816021
:1009700080937A0080917A00806880937A00109248
:10098000C100E0914301F091440182E08083E09155
:100990003F01F09140011082E0914101F09142014C
:1009A0008FEC808310924B01E0914701F091480158
:1009B00086E08083E0914501F0914601808180616D
:1009C0008083E0914501F0914601808188608083B9
:1009D000E0914501F0914601808180688083E0913B
:1009E0004501F091460180818F7D80830E94C40083
:1009F0004B015C0128EEC22E23E0D22EE12CF12C1B
:100A00000E94C400681979098A099B09683E7340ED
:100A100081059105A8F321E0C21AD108E108F10887
:100A200088EE880E83E0981EA11CB11CC114D1046D
:100A3000E104F10429F7CBE2D0E099E3C92ED12CEF
:100A4000E12CF12C00E010E02FB7F89480912B01FD
:100A500090912C01A0912D01B0912E012FBF4091BA
:100A60002601509127016091280170912901841B72
:100A7000950BA60BB70B893B9B40A105B10508F46C
:100A8000EBC08EE00E94AF00BC01990F880B990B60
:100A90000E94BF0720E030E040EA50E40E94C40812
:100AA00020E030EC4FE754E40E941C0742E00E9433
:100AB0004C028CE20E94D60184E1982EB12CA12C2C
:100AC0008091E3010E94AF00A80EB91E9A94911084
:100AD000F7CFB50190E080E00E94BD0720E030E054
:100AE00040EA51E40E941C079B01AC0160E070ECFD
:100AF0008FE794E40E941C0720E030E040E85FE3C9
:100B00000E94AA069B01AC016091E7017091E80187
:100B10008091E9019091EA010E941C070E947C08E3
:100B20002B013C016091E60170E090E080E00E94C2
:100B3000BF0723E333E948E853E40E94AB069B0177
:100B4000AC0160E070E080E89FE30E941C074B016D
:100B50005C016091E4017091E50190E080E00E9409
:100B6000BD079B01AC01C301B2010E941C079B01A0
:100B7000AC01C501B4010E94AB069B01AC0160E071
:100B800070E080E89FE30E941C0723E333E948E814
:100B900053E40E94AA0642E00E944C028CE20E94AA
:100BA000D601E091DA01F091DB0180819091D401CE
:100BB000892B8083E091D601F091D70180819091BB
:100BC000D401892B8083CE010197F1F7E091D60102
:100BD000F091D70190818091D40180958923808301
:100BE0008091E201882351F0E091DA01F091DB017C
:100BF00090818091D401809589238083E091D801F0
:100C0000F091D90180819091D501892389F190E0FB
:100C100080E0BC0190E080E0A70196010E946B0992
:100C2000CA01B9014AE00E9408028EE191E00E94E7
:100C3000FB012FB7F89480912B0190912C01A0918A
:100C40002D01B0912E012FBF809326019093270193
:100C5000A0932801B09329010115110509F4F4CEE0
:100C60000E945301882309F4EFCE0E940000ECCECD
:100C70000E94C400AB01BC018091DC019091DD01B8
:100C8000B0E0A0E08855994EAF4FBF4F840F951F3D
:100C9000A61FB71F8093DE019093DF01A093E001B0
:100CA000B093E101E091D801F091D9018081909158
:100CB000D501892381F40E94C4008090DE019090C8
:100CC000DF01A090E001B090E10186169706A8062A
:100CD000B90640F79CCF0E94C4002091DC013091FE
:100CE000DD01620F731F811D911D6093DE01709302
:100CF000DF018093E0019093E101E091D801F09150
:100D0000D90180819091D501892381F00E94C4008E
:100D10008090DE019090DF01A090E001B090E101B1
:100D200086169706A806B90640F771CF0E94C40040
:100D30002091DC013091DD01A9014550510920913C
:100D4000DE013091DF01FA01E21BF30BCF01860FC8
:100D5000971F5FCF5058BB27AA270E94C2060C944A
:100D600035080E94270838F00E942E0820F039F438
:100D70009F3F19F426F40C9424080EF4E095E7FB49
:100D80000C941E08E92F0E94460858F3BA17620710
:100D900073078407950720F079F4A6F50C9468088A
:100DA0000EF4E0950B2EBA2FA02D0B01B901900186
:100DB0000C01CA01A0011124FF27591B99F0593FCA
:100DC00050F4503E68F11A16F040A22F232F342F12
:100DD0004427585FF3CF469537952795A795F04060
:100DE0005395C9F77EF41F16BA0B620B730B840B75
:100DF000BAF09150A1F0FF0FBB1F661F771F881F2D
:100E0000C2F70EC0BA0F621F731F841F48F4879584
:100E100077956795B795F7959E3F08F0B0CF939576
:100E2000880F08F09927EE0F9795879508950E94EF
:100E3000FA0708F481E008950E9430070C94350801
:100E40000E942E0858F00E94270840F029F45F3FC6
:100E500029F00C941E0851110C9469080C94240874
:100E60000E94460868F39923B1F3552391F3951B2B
:100E7000550BBB27AA2762177307840738F09F5FBB
:100E80005F4F220F331F441FAA1FA9F335D00E2E28
:100E90003AF0E0E832D091505040E695001CCAF795
:100EA0002BD0FE2F29D0660F771F881FBB1F261758
:100EB00037074807AB07B0E809F0BB0B802DBF012F
:100EC000FF2793585F4F3AF09E3F510578F00C94FE
:100ED0001E080C9469085F3FE4F3983ED4F38695AE
:100EE00077956795B795F7959F5FC9F7880F911D1F
:100EF0009695879597F90895E1E0660F771F881F0B
:100F0000BB1F621773078407BA0720F0621B730BBD
:100F1000840BBA0BEE1F88F7E09508950E944E08E7
:100F200088F09F5798F0B92F9927B751B0F0E1F0AA
:100F3000660F771F881F991F1AF0BA95C9F714C05A
:100F4000B13091F00E946808B1E008950C946808EF
:100F5000672F782F8827B85F39F0B93FCCF3869593
:100F600077956795B395D9F73EF4909580957095F0
:100F700061957F4F8F4F9F4F0895E89409C097FB6D
:100F80003EF490958095709561957F4F8F4F9F4F60
:100F90009923A9F0F92F96E9BB279395F6958795A4
:100FA00077956795B795F111F8CFFAF4BB0F11F467
:100FB00060FF1BC06F5F7F4F8F4F9F4F16C088230E
:100FC00011F096E911C0772321F09EE8872F762F44
:100FD00005C0662371F096E8862F70E060E02AF085
:100FE0009A95660F771F881FDAF7880F9695879571
:100FF00097F90895990F0008550FAA0BE0E8FEEF46
:1010000016161706E807F907C0F012161306E407CC
:10101000F50798F0621B730B840B950B39F40A26C5
:1010200061F0232B242B252B21F408950A2609F4A3
:10103000A140A6958FEF811D811D089597F99F67A7
:1010400080E870E060E008959FEF80EC0895002450
:101050000A941616170618060906089500240A941D
:1010600012161306140605060895092E0394000CA3
:1010700011F4882352F0BB0F40F4BF2B11F460FF32
:1010800004C06F5F7F4F8F4F9F4F089557FD90585B
:10109000440F551F59F05F3F71F04795880F97FB3C
:1010A000991F61F09F3F79F08795089512161306F6
:1010B0001406551FF2CF4695F1DF08C01616170625
:1010C0001806991FF1CF869571056105089408955A
:1010D000E894BB2766277727CB0197F908950E94EC
:1010E000FA0708F48FEF089516F00C9436090C9463
:1010F000240868940C941E080E944E08A8F39923B3
:10110000C1F3AEF3DF93CF931F930F93FF92C92FD9
:10111000DD2788232AF02197660F771F881FDAF7CB
:1011200020E030E040E85FEB9FE3883920F0803E2C
:1011300038F021968F770E94AB06E8E6F0E004C015
:101140000E94AB06E5E9F0E00E9444098B01BE0174
:10115000EC01FB2E6F5771097595771F880B990B62
:101160000E94BF0728E132E741E35FE30E94D7080E
:10117000AF2D9801AE01FF900F911F91CF91DF919C
:101180000E94C2060C9435080E94D7080C943508BA
:101190000E94270838F00E942E0820F0952311F0B5
:1011A0000C941E080C94240811240C9469080E94C5
:1011B000460870F3959FC1F3950F50E0551F629F4D
:1011C000F001729FBB27F00DB11D639FAA27F00DA0
:1011D000B11DAA1F649F6627B00DA11D661F829FC7
:1011E0002227B00DA11D621F739FB00DA11D621FAC
:1011F000839FA00D611D221F749F3327A00D611DC9
:10120000231F849F600D211D822F762F6A2F1124AA
:101210009F5750409AF0F1F088234AF0EE0FFF1FDD
:10122000BB1F661F771F881F91505040A9F79E3F34
:10123000510580F00C941E080C9469085F3FE4F39C
:10124000983ED4F3869577956795B795F795E7958A
:101250009F5FC1F7FE2B880F911D9695879597F993
:1012600008950E94FA07880B990B08959F3F31F06B
:10127000915020F4879577956795B795880F911DC4
:101280009695879597F90895DF93CF931F930F93C2
:10129000FF92EF92DF927B018C01689406C0DA2EF8
:1012A000EF010E94D708FE01E894A59125913591A0
:1012B00045915591A6F3EF010E94C206FE019701E8
:1012C000A801DA9469F7DF90EF90FF900F911F91DA
:1012D000CF91DF910895A1E21A2EAA1BBB1BFD013D
:1012E0000DC0AA1FBB1FEE1FFF1FA217B307E40705
:1012F000F50720F0A21BB30BE40BF50B661F771F5D
:10130000881F991F1A9469F760957095809590953C
:101310009B01AC01BD01CF010895EE0FFF1F0590A9
:0A132000F491E02D0994F894FFCF3A
:10132A00000000008901E9001601DB0147012501DF
:10133A0039016E616E00696E66006F7666000D0A8D
:02134A000000A1
:00000001FF
