:100000000C9463000C948B000C948B000C948B006C
:100010000C948B000C948B000C948B000C948B0034
:100020000C948B000C948B000C948B000C948B0024
:100030000C948B000C948B000C948B000C948B0014
:100040000C94BD040C948B000C942D050C940705A6
:100050000C948B000C948B000C948B000C948B00F4
:100060000C945F050C948B00000000002400270016
:100070002A0000000008000201000003040700003D
:1000800000000000000000000000230026002900FE
:10009000010204081020408001020408102001021F
:1000A0000408102000000000250028002B00040494
:1000B0000404040404040202020202020303030310
:1000C00003037A06490A11241FBECFEFD8E0DEBF32
:1000D000CDBF11E0A0E0B1E0EEEDFBE102C0059084
:1000E0000D92A832B107D9F722E0A8E2B1E001C031
:1000F0001D92AD36B207E1F710E0C2E6D0E004C0D1
:100100002197FE010E94B00CC136D107C9F70E94A9
:100110002D070C94E20D0C940000833081F028F43C
:10012000813099F08230A9F008958730A9F08830A5
:10013000C9F08430B1F4809180008F7D03C080913C
:1001400080008F7780938000089584B58F7784BD79
:10015000089584B58F7DFBCF8091B0008F77809319
:10016000B00008958091B0008F7DF9CF1F93CF9399
:10017000DF93282F30E0F901EE58FF4F8491F90109
:10018000E057FF4FD491F901E255FF4FC491CC23C2
:10019000A9F0162F81110E948D00EC2FF0E0EE0FD8
:1001A000FF1FEC55FF4FA591B4918FB7F894EC91D8
:1001B000111108C0D095DE23DC938FBFDF91CF9162
:1001C0001F910895DE2BF8CF8F929F92AF92BF922E
:1001D000CF92DF92EF92FF920F931F93CF93DF9313
:1001E00081E08093660260E08AE00E94B60000E150
:1001F00010E0D0E0C0E03AE7E32E30E0F32E48E92B
:10020000C42E40E0D42E56EBA52E50E0B52E61E072
:1002100089E00E94B600CC0FDD1FF7018491F60142
:100220009490F5018490882079F081110E948D00CE
:10023000E82DF0E0EE0FFF1FEA57FF4FA591B491B4
:100240008C91982209F0C16060E089E00E94B600BC
:1002500001501109E1F661E08AE00E94B600CF3F4B
:10026000DC07C9F0C2FD17C083E0D695C7958A9513
:10027000E1F7D0936802C093670281E0DF91CF91EC
:100280001F910F91FF90EF90DF90CF90BF90AF90B4
:100290009F908F90089580E0F1CFCF93DF9390E00F
:1002A000FC01E057FF4F249182559F4FFC01849140
:1002B0008823C9F090E0880F991FFC01E859FF4F8F
:1002C000A591B491FC01EC55FF4FC591D4916111FA
:1002D0000DC09FB7F8948C91209582238C938881D0
:1002E000282328839FBFDF91CF910895623051F476
:1002F0009FB7F8943C91822F809583238C93E8815B
:100300002E2BEFCF8FB7F894EC912E2B2C938FBF21
:10031000EACF8230910538F0880F991F880F991F16
:1003200005970197F1F708953FB7F8948091A701D9
:100330009091A801A091A901B091AA0126B5A89B0E
:1003400005C02F3F19F00196A11DB11D3FBFBA2F67
:10035000A92F982F8827BC01CD01620F711D811D27
:10036000911D42E0660F771F881F991F4A95D1F7AC
:100370000895AF92BF92CF92DF92EF92FF920F93C8
:100380001F93CF93DF936C017B018B01040F151F2B
:10039000EB015E01AE18BF08C017D10759F0699193
:1003A000D601ED91FC910190F081E02DC6010995F7
:1003B000892B79F7C501DF91CF911F910F91FF90A4
:1003C000EF90DF90CF90BF90AF900895FC01538DD8
:1003D000448D252F30E0842F90E0821B930B54171F
:1003E00010F0CF96089501970895FC01918D828DAC
:1003F000981761F0A28DAE0FBF2FB11D5D968C9145
:10040000928D9F5F9F73928F90E008958FEF9FEF83
:100410000895FC01918D828D981731F0828DE80F3F
:10042000F11D858D90E008958FEF9FEF0895FC01F9
:10043000918D228D892F90E0805C9F4F821B9109C6
:100440008F73992708958BEA91E00E94170221E0AB
:10045000892B09F420E0822F089580E090E0892B19
:1004600029F00E94230281110C9400000895FC01E0
:10047000A48DA80FB92FB11DA35ABF4F2C91848D05
:1004800090E001968F739927848FA689B7892C9362
:10049000A089B1898C91837080648C93938D848DB5
:1004A000981306C00288F389E02D80818F7D8083B8
:1004B0000895EF92FF920F931F93CF93DF93EC0178
:1004C00081E0888F9B8D8C8D98131AC0E889F989FB
:1004D000808185FF15C09FB7F894EE89FF896083FE
:1004E000E889F98980818370806480839FBF81E07F
:1004F00090E0DF91CF911F910F91FF90EF900895C1
:10050000F62E0B8D10E00F5F1F4F0F731127E02E9B
:100510008C8D8E110CC00FB607FCFACFE889F989D3
:10052000808185FFF5CFCE010E943702F1CFEB8DA0
:10053000EC0FFD2FF11DE35AFF4FF0829FB7F894A7
:100540000B8FEA89FB8980818062CFCF682F8BEA8D
:1005500091E00C945902CF93DF93EC01888D8823AE
:10056000B9F0AA89BB89E889F9898C9185FD03C016
:10057000808186FD0DC00FB607FCF7CF8C9185FFFB
:10058000F2CF808185FFEDCFCE010E943702E9CF07
:10059000DF91CF91089520914F01260F3327331F0C
:1005A00021323105ECF420917301FC0190E080E0F0
:1005B000243069F082E00895A0914F012191AC01AF
:1005C000415D5E4FA40FB52FB11D2C930196861788
:1005D00098F380914F01680F60934F0180E0089578
:1005E00081E0089508958FEF9FEF08958FEF9FEFBB
:1005F00008958091280190E0919581959109089541
:10060000CF93DF93CB01EA01642F0E94CB02CE018E
:10061000DF91CF910895CF93DF931F92CDB7DEB7CF
:10062000698361E0CE0101960E94CB0281E090E0F7
:100630000F90DF91CF91089590E080E00895FC0144
:1006400001900020E9F73197AF01481B590BBC011D
:100650008BEA91E00C94B9018F929F92AF92BF9276
:100660000F931F93CF93DF93CDB7DEB7A1970FB64C
:10067000F894DEBF0FBECDBF19A2423008F44AE0A5
:100680008E010F5D1F4F842E912CB12CA12CA50142
:1006900094010E948E0CE62FB901CA01EA30F4F4ED
:1006A000E05DD801EE938D01232B242B252B79F7C8
:1006B00090E080E0109719F0CD010E941F03A196F1
:1006C0000FB6F894DEBF0FBECDBFDF91CF911F9163
:1006D0000F91BF90AF909F908F900895E95CE1CF0C
:1006E0004F925F926F927F928F929F92AF92BF9242
:1006F000CF92DF92EF92FF920F931F93CF936B01F4
:100700007C01742EAC019B010E94890C882399F016
:1007100088E191E0CF911F910F91FF90EF90DF90D2
:10072000CF90BF90AF909F908F907F906F905F9091
:100730004F900C941F0346015701E894B7F82FEF30
:100740003FEF4FE75FE7C501B4010E94890C8111BB
:100750000DC02FEF3FEF4FE75FE7C501B4010E94E7
:10076000BF0A18161CF48CE191E0D4CF2FEF3FEFB5
:100770004FE75FE4C701B6010E94170C18161CF47E
:1007800080E291E0C7CF2FEF3FEF4FE75FECC7016B
:10079000B6010E94BF0A87FDF3CF20E030E0A90137
:1007A000C701B6010E94BF0A10E000E087FF08C041
:1007B0008DE20E94A6028C01F7FAF094F7F8F0940B
:1007C000C0E060E070E080E09FE37C1641F020E054
:1007D00030E040E251E40E94C40ACF5FF6CFA701A7
:1007E00096010E94530A2B013C010E94360B4B01DB
:1007F0005C014AE00E942C037C01E00EF11ECC2338
:10080000B1F1C501B4010E94650B9B01AC01C301AC
:10081000B2010E94520A4B015C018EE20E94A602C4
:10082000E80EF91EC15018F120E030E040E251E43A
:10083000C501B4010E941C0C2B013C010E94360B27
:100840004B01B12CA12C4AE0C501B4010E942C033C
:10085000E80EF91EC501B4010E94650B9B01AC01B5
:10086000C301B2010E94520A4B015C01DBCFC701F8
:10087000CF911F910F91FF90EF90DF90CF90BF909D
:10088000AF909F908F907F906F905F904F90089562
:100890001F93CF93DF9385ED8093BC0080912B0154
:1008A00090912C01A0912D01B0912E010796A11DD0
:1008B000B11D23E0B695A795979587952A95D1F711
:1008C0002091BC0024FD03C01092730152C04091DE
:1008D0002B0150912C0160912D0170912E01452B1F
:1008E000462B472B69F30097A105B10541F02AE299
:1008F0002A95F1F700C00197A109B109E1CF8091D4
:100900002A01C1E0C0932901882399F1D091B80050
:100910001091BA008091BC008A7B8093BC0060E09B
:1009200082E10E94B60060E083E10E94B60010926E
:100930007301C09375011092740161E082E10E941D
:10094000B60061E083E10E94B6008091B9008E7F1D
:100950008093B9008091B9008D7F8093B90088E4BD
:100960008093B80085E48093BC001093BA00D093C4
:10097000B800DF91CF911F9108951F920F920FB68B
:100980000F9211242F933F938F939F93AF93BF9315
:100990008091A3019091A401A091A501B091A6011D
:1009A0003091A20123E0230F2D3758F50196A11DA8
:1009B000B11D2093A2018093A3019093A401A09361
:1009C000A501B093A6018091A7019091A801A091E3
:1009D000A901B091AA010196A11DB11D8093A701A3
:1009E0009093A801A093A901B093AA01BF91AF91E0
:1009F0009F918F913F912F910F900FBE0F901F905D
:100A0000189526E8230F0296A11DB11DD2CF1F9283
:100A10000F920FB60F9211242F933F934F935F9332
:100A20006F937F938F939F93AF93BF93EF93FF93B6
:100A30008BEA91E00E943702FF91EF91BF91AF9155
:100A40009F918F917F916F915F914F913F912F91E6
:100A50000F900FBE0F901F9018951F920F920FB618
:100A60000F9211242F938F939F93EF93FF93E09115
:100A7000BB01F091BC018081E091C101F091C20104
:100A800082FD1BC090818091C4018F5F8F73209184
:100A9000C501821741F0E091C401F0E0E555FE4F39
:100AA000958F8093C401FF91EF919F918F912F912A
:100AB0000F900FBE0F901F9018958081F4CF1F925A
:100AC0000F920FB60F9211242F933F934F935F9382
:100AD0006F937F938F939F93AF93BF93EF93FF9306
:100AE0008091B900887F803609F44AC0F0F58832D9
:100AF00009F4A5C018F5803109F499C0B8F4882329
:100B000009F4F5C0883009F492C0FF91EF91BF91CC
:100B1000AF919F918F917F916F915F914F913F9195
:100B20002F910F900FBE0F901F901895883109F4E8
:100B300086C0803251F78093720114C0803409F46A
:100B40009BC040F48033B9F38833F9F68093720187
:100B500085ECAEC0803509F483C0883509F494C0B3
:100B6000883499F60E944804D0CF883909F48AC0A5
:100B700038F5883729F050F4883611F0803729F697
:100B800083E0809373011092710155C0883809F495
:100B900079C0803919F0803809F0B7CF80917101A0
:100BA000803208F06FC0E091710181E08E0F809378
:100BB00071018091BB00F0E0EF5AFE4F80833BC093
:100BC000803B39F0D0F4803A09F477C0883A09F0D4
:100BD0009CCF84E0809373011092500110924F01DA
:100BE000F0E0E0E0099580914F0181110FC081E0B4
:100BF00080934F0110922F0109C0803C09F4A8CFC7
:100C0000883C09F4A5CF883B09F07FCFE0915001E3
:100C100081E08E0F80935001F0E0E15DFE4F808116
:100C20008093BB009091500180914F0129C0809129
:100C300098018093BB0085EC8093BC0066CF9091B7
:100C4000970180919601981758F5E091970181E0FE
:100C50008E0F80939701F0E0EA58FE4F8081E9CF34
:100C6000E091970181E08E0F809397018091BB0006
:100C7000F0E0EA58FE4F80839091970180919601B1
:100C80009817C8F285E8D8CFE091970181E08E0FE0
:100C9000809397018091BB00F0E0EA58FE4F80837B
:100CA0008091750181115ECF81E08093740184EAA7
:100CB0008093BC001092730128CF85EC8093BC0018
:100CC0001092730180917101803230F4E0917101D2
:100CD000F0E0EF5AFE4F10826091710170E081E503
:100CE00091E0F0E0E0E00995109271010ECF1092D2
:100CF000720138CFEBEAF1E01382128288EE93E0C2
:100D0000A0E0B0E084839583A683B7838AE091E076
:100D10009183808385EC90E09587848784EC90E0D4
:100D20009787868780EC90E0918B808B81EC90E0B8
:100D3000938B828B82EC90E0958B848B86EC90E099
:100D4000978B868B118E128E138E148EE6E6F2E050
:100D500010821282118262E088E00E944D0161E0FF
:100D600089E00E944D0161E08AE00E944D0161E04E
:100D70008AE00E94B600A8E4B2E011961C921E928E
:100D800013961C921E9212978DE01B968C931B97C4
:100D90008BE01C968C931C978CE01E968C931E9770
:100DA0008FEF1D968C931D97EBEBF0E0E491F0E054
:100DB000EE0FFF1FEC55FF4F8591949156969C9333
:100DC0008E935597EDE9F0E0E4915A96EC935A979B
:100DD000EAEBF0E0E491F0E0EE0FFF1FEA57FF4F7F
:100DE0008591949154969C938E935397ECE9F0E0FF
:100DF000E4915896EC935897E9EBF0E0E491F0E039
:100E0000EE0FFF1FEC55FF4F8591949152969C93E6
:100E10008E935197EBE9F0E0E4915996EC93599752
:100E200040E452E46FE070E014964D935D936D934F
:100E30007C93179781E090E019969C938E93189776
:100E40001A961C921A975B961C925B975C961C9262
:100E50005C9787E05D968C930895CF93DF9300D0E5
:100E600000D000D0CDB7DEB7789484B5826084BD61
:100E700084B5816084BD85B5826085BD85B581609E
:100E800085BD80916E00816080936E00109281001C
:100E900080918100826080938100809181008160D7
:100EA0008093810080918000816080938000809198
:100EB000B10084608093B1008091B0008160809324
:100EC000B00080917A00846080937A0080917A00EB
:100ED000826080937A0080917A00816080937A00AA
:100EE00080917A00806880937A001092C100E0912E
:100EF000BB01F091BC0182E08083E091B701F091E9
:100F0000B8011082E091B901F091BA018FEC8083B1
:100F10001092C301E091BF01F091C00186E080838F
:100F2000E091BD01F091BE01808180618083E091FC
:100F3000BD01F091BE01808188608083E091BD0198
:100F4000F091BE01808180688083E091BD01F091C5
:100F5000BE0180818F7D80830E9494014B015C01E2
:100F6000F0EDCF2EF7E0DF2EE12CF12C0E94940162
:100F7000681979098A099B09683E734081059105C2
:100F8000A8F321E0C21AD108E108F10888EE880E22
:100F900083E0981EA11CB11CC114D104E104F1042A
:100FA00029F7E0E22E2EE1EA3E2EE7E04E2E512C0C
:100FB000FE013596FE83ED834E01F4E08F0E911C09
:100FC0002FB7F8948091A3019091A401A091A5015D
:100FD000B091A6012FBF40919E0150919F01609159
:100FE000A0017091A101841B950BA60BB70B893B47
:100FF0009B40A105B10508F465C10E94E400882367
:10100000F1F080916602811102C00E94E40010920A
:101010006602609167027091680290E080E00E9431
:10102000650B20E030E040E85EE30E941C0C60931A
:101030009A0170939B0180939C0190939D01609114
:101040009A0170919B0180919C0190919D0142E0D9
:101050000E9470038CE20E94A602809164028111BA
:101060004BC0809153028F3F41F061E00E944D01DF
:1010700061E0809153020E94B600809148029091F5
:101080004902892B09F46BC01FB7F894809199012C
:10109000811127C0E8EBF0E08491EAE9F0E0949157
:1010A000E82FF0E0EE0FFF1FE859FF4FA591B49134
:1010B0008C91982321F461E08AE00E94B60061E0FF
:1010C0008AE00E944D018CB580618CBD8CB5806436
:1010D0008CBD61E08DE00E944D0161E08BE00E94DB
:1010E0004D01809199018F5F809399011FBFF1E0BD
:1010F000F0936302F093640244E050E06FEF70E01D
:10110000CE0101960E94DB0D809148029091490228
:10111000892B41F0E0914A02F0914B02908181814C
:101120009CBD8DBD809153028F3F19F060E00E94FD
:10113000B60089812091480230914902232B09F49D
:10114000CEC08EBDFE0131968E169F0661F1918153
:101150000DB407FEFDCF8EB59EBD8193F5CF61E046
:10116000809154020E944D01809152028B7F60E079
:1011700009F061E0809154020E94B600809155020E
:101180008F3F41F061E00E944D0161E08091550286
:101190000E94B600809156028F3F09F4A8CF60E00C
:1011A0000E944D01A4CF0DB407FEFDCF8EB58C83F8
:1011B000809153028F3F19F061E00E94B60069816F
:1011C0007A8176276727762790E080E0982F872F0F
:1011D000762F66272B81622B982F872F762F6627F5
:1011E0002C81622B0091650210E030E020E00623A4
:1011F000172328233923012B022B032B09F044C189
:1012000097FF3AC132E196958795779567953A951C
:10121000D1F7706C8F6F9F6F0E94670B20E030E0FA
:1012200040E85EE30E941C0C42E00E9470038CE2E6
:101230000E94A60280E480937C0080917A00806402
:1012400080937A0080917A0086FDFCCF60917800CF
:1012500070917900072E000C880B990B0E94670B88
:1012600024E33DE94DE95BE30E941C0C20E030E003
:1012700040EA50E40E94C40A22E133E840EC5DE316
:101280000E94530A2CEB34E743E15CE30E94C40A5A
:1012900042E00E94700384E291E00E941F032FB796
:1012A000F8948091A3019091A401A091A501B0911F
:1012B000A6012FBF80939E0190939F01A093A00150
:1012C000B093A10180E090E0892B09F479CE0E94CF
:1012D0002302882309F474CE0E94000071CE20916D
:1012E00050023091510277247394232B11F060E85F
:1012F000762E8721CC24C3948111C12C20914C02DD
:1013000030914D0240914E0250914F02C201B10105
:101310000E948E0C022FCE0101967C01A22EB12CD0
:10132000F7016080172DD12C002319F0C5010E9410
:10133000890180915202877F09F05FC08091550238
:101340008F3FA9F0962D912381E009F480E0C81623
:1013500071F0E0915702F091580280915F02992359
:1013600009F445C09081892B8083CC24C394E091FB
:101370005902F0915A02808190916102892B8083F9
:10138000002319F0C5010E948901809156028F3F08
:1013900051F0E0915B02F0915C02808190916002DB
:1013A000892309F0D12AE0915902F0915A029081E3
:1013B00080916102809589238083809156028F3FBE
:1013C00011F0F701D0828091500290915102892B47
:1013D00009F050C0110F1111A7CFFFEFEF1AFF0A4C
:1013E0008D819E818E159F0509F09ACFE1CE908167
:1013F000809589238083C12CBACFE0915902F09166
:101400005A02808190916102892B8083002319F018
:10141000C5010E948901809155028F3F61F0E091E2
:101420005702F091580280915F02962D9123F1F0BE
:101430009081892B8083E0915902F0915A0290812A
:1014400080916102809589238083809156028F3F2D
:1014500009F4B3CFE0915B02F0915C02808190913E
:101460006002892309F4A9CFD12AA7CF9081809562
:101470008923E0CF1695AFCF22E195958795779593
:1014800067952A95D1F7C8CE60E070E080EC9FE7C1
:10149000CBCE80914A0290914B02009711F00C94B0
:1014A000520D08955058BB27AA270E946A0A0C942F
:1014B000DD0B0E94CF0B38F00E94D60B20F039F4E0
:1014C0009F3F19F426F40C94CC0B0EF4E095E7FB47
:1014D0000C94C60BE92F0E94EE0B58F3BA17620763
:1014E00073078407950720F079F4A6F50C94100C87
:1014F0000EF4E0950B2EBA2FA02D0B01B90190012F
:101500000C01CA01A0011124FF27591B99F0593F72
:1015100050F4503E68F11A16F040A22F232F342FBA
:101520004427585FF3CF469537952795A795F04008
:101530005395C9F77EF41F16BA0B620B730B840B1D
:10154000BAF09150A1F0FF0FBB1F661F771F881FD5
:10155000C2F70EC0BA0F621F731F841F48F487952D
:1015600077956795B795F7959E3F08F0B0CF93951F
:10157000880F08F09927EE0F9795879508950E9498
:10158000A20B08F481E008950E94D80A0C94DD0BA8
:101590000E94D60B58F00E94CF0B40F029F45F3F19
:1015A00029F00C94C60B51110C94110C0C94CC0B1B
:1015B0000E94EE0B68F39923B1F3552391F3951B29
:1015C000550BBB27AA2762177307840738F09F5F64
:1015D0005F4F220F331F441FAA1FA9F335D00E2ED1
:1015E0003AF0E0E832D091505040E695001CCAF73E
:1015F0002BD0FE2F29D0660F771F881FBB1F261701
:1016000037074807AB07B0E809F0BB0B802DBF01D7
:10161000FF2793585F4F3AF09E3F510578F00C94A6
:10162000C60B0C94110C5F3FE4F3983ED4F38695FF
:1016300077956795B795F7959F5FC9F7880F911DC7
:101640009695879597F90895E1E0660F771F881FB3
:10165000BB1F621773078407BA0720F0621B730B66
:10166000840BBA0BEE1F88F7E09508950E94F60BE5
:1016700088F09F5798F0B92F9927B751B0F0E1F053
:10168000660F771F881F991F1AF0BA95C9F714C003
:10169000B13091F00E94100CB1E008950C94100C40
:1016A000672F782F8827B85F39F0B93FCCF386953C
:1016B00077956795B395D9F73EF490958095709599
:1016C00061957F4F8F4F9F4F0895E89409C097FB16
:1016D0003EF490958095709561957F4F8F4F9F4F09
:1016E0009923A9F0F92F96E9BB279395F69587954D
:1016F00077956795B795F111F8CFFAF4BB0F11F410
:1017000060FF1BC06F5F7F4F8F4F9F4F16C08823B6
:1017100011F096E911C0772321F09EE8872F762FEC
:1017200005C0662371F096E8862F70E060E02AF02D
:101730009A95660F771F881FDAF7880F9695879519
:1017400097F90895990F0008550FAA0BE0E8FEEFEE
:1017500016161706E807F907C0F012161306E40775
:10176000F50798F0621B730B840B950B39F40A266E
:1017700061F0232B242B252B21F408950A2609F44C
:10178000A140A6958FEF811D811D089597F99F6750
:1017900080E870E060E008959FEF80EC08950024F9
:1017A0000A941616170618060906089500240A94C6
:1017B00012161306140605060895092E0394000C4C
:1017C00011F4882352F0BB0F40F4BF2B11F460FFDB
:1017D00004C06F5F7F4F8F4F9F4F089557FD905804
:1017E000440F551F59F05F3F71F04795880F97FBE5
:1017F000991F61F09F3F79F087950895121613069F
:101800001406551FF2CF4695F1DF08C016161706CD
:101810001806991FF1CF8695710561050894089502
:10182000E894BB2766277727CB0197F908950E9494
:10183000A20B08F48FEF08950E942F0C0C94DD0B7F
:101840000E94CF0B38F00E94D60B20F0952311F0A8
:101850000C94C60B0C94CC0B11240C94110C0E940C
:10186000EE0B70F3959FC1F3950F50E0551F629FEB
:10187000F001729FBB27F00DB11D639FAA27F00DE9
:10188000B11DAA1F649F6627B00DA11D661F829F10
:101890002227B00DA11D621F739FB00DA11D621FF5
:1018A000839FA00D611D221F749F3327A00D611D12
:1018B000231F849F600D211D822F762F6A2F1124F4
:1018C0009F5750409AF0F1F088234AF0EE0FFF1F27
:1018D000BB1F661F771F881F91505040A9F79E3F7E
:1018E000510580F00C94C60B0C94110C5F3FE4F38F
:1018F000983ED4F3869577956795B795F795E795D4
:101900009F5FC1F7FE2B880F911D9695879597F9DC
:1019100008950E94A20B880B990B0895A1E21A2E3C
:10192000AA1BBB1BFD010DC0AA1FBB1FEE1FFF1F83
:10193000A217B307E407F50720F0A21BB30BE40BD3
:10194000F50B661F771F881F991F1A9469F760951A
:101950007095809590959B01AC01BD01CF010895D4
:10196000EE0FFF1F0590F491E02D09940F931F9344
:10197000CF93DF938230910510F482E090E0E09104
:101980006B02F0916C0230E020E0B0E0A0E0309714
:1019900099F42115310509F44AC0281B390B24306C
:1019A0003105D8F58A819B816115710589F1FB01AB
:1019B00093838283FE0111C0408151810281138192
:1019C00048175907E0F04817590799F4109761F044
:1019D00012960C93129713961C933296CF01DF91B7
:1019E000CF911F910F91089500936B0210936C0299
:1019F000F4CF2115310551F04217530738F0A901F2
:101A0000DB019A01BD01DF01F801C1CFEF01F9CF80
:101A100090936C0280936B02CDCFFE01E20FF31F17
:101A2000819391932250310939832883D7CF209114
:101A3000690230916A02232B41F420910201309116
:101A4000030130936A0220936902209100013091D2
:101A500001012115310541F42DB73EB74091040134
:101A600050910501241B350BE0916902F0916A0247
:101A7000E217F307A0F42E1B3F0B2817390778F065
:101A8000AC014E5F5F4F2417350748F04E0F5F1FC4
:101A900050936A0240936902819391939FCFF0E043
:101AA000E0E09CCFCF93DF930097E9F0FC01329701
:101AB00013821282A0916B02B0916C02ED0130E0B2
:101AC00020E01097A1F420813181820F931F209193
:101AD000690230916A022817390709F061C0F09352
:101AE0006A02E0936902DF91CF910895EA01CE176F
:101AF000DF07E8F54A815B819E0141155105B1F789
:101B0000E901FB83EA8349915991C40FD51FEC1772
:101B1000FD0761F4808191810296840F951FE90190
:101B200099838883828193819B838A83F0E0E0E0BC
:101B300012968D919C9113970097B9F52D913C9138
:101B40001197CD010296820F931F20916902309167
:101B50006A022817390739F6309751F510926C024E
:101B600010926B02B0936A02A0936902BCCFD38338
:101B7000C28340815181840F951FC817D90761F432
:101B80004E5F5F4F88819981480F591F5183408371
:101B90008A819B81938382832115310509F0B0CF1F
:101BA000F0936C02E0936B029ECFFD01DC01C0CF8D
:101BB00013821282D7CFDC0101C06D934150504097
:101BC000E0F7089510E0C2E6D0E004C0FE010E94F4
:0E1BD000B00C2196C336D107C9F7F894FFCFA9
:101BDE0000006D028000000000005902B901E6010C
:101BEE00AB021702F50109026E616E00696E6600A6
:081BFE006F7666000D0A00007D
:00000001FF
