:100000000C9462000C948A000C948A000C948A0070
:100010000C948A000C948A000C948A000C948A0038
:100020000C948A000C948A000C948A000C948A0028
:100030000C948A000C948A000C948A000C948A0018
:100040000C940F020C948A000C947F020C945902B9
:100050000C948A000C948A000C948A000C948A00F8
:100060000C948A000C948A0008000000BE92244977
:10007000123EABAAAA2ABECDCCCC4C3E00000080DA
:10008000BEABAAAAAA3E00000000BF000000803F4D
:100090000000000000084178D3BB4387D1133D190D
:1000A0000E3CC3BD4282AD2B3E68EC8276BED98F3A
:1000B000E1A93E4C80EFFFBE01C4FF7F3F0000007E
:1000C0000000B10211241FBECFEFD8E0DEBFCDBFCC
:1000D00011E0A0E0B1E0E0E6FFE002C005900D9283
:1000E000A233B107D9F721E0A2E3B1E001C01D922C
:1000F000A03EB207E1F710E0C2E6D0E004C02197CD
:10010000FE010E94A807C136D107C9F70E94EF027D
:100110000C94AE070C9400003FB7F894809137011F
:1001200090913801A0913901B0913A0126B5A89B70
:1001300005C02F3F19F00196A11DB11D3FBFBA2F79
:10014000A92F982F8827BC01CD01620F711D811D39
:10015000911D42E0660F771F881F991F4A95D1F7BE
:100160000895AF92BF92CF92DF92EF92FF920F93DA
:100170001F93CF93DF936C017B018B01040F151F3D
:10018000EB015E01AE18BF08C017D10759F06991A5
:10019000D601ED91FC910190F081E02DC601099509
:1001A000892B79F7C501DF91CF911F910F91FF90B6
:1001B000EF90DF90CF90BF90AF900895FC01538DEA
:1001C000448D252F30E0842F90E0821B930B541731
:1001D00010F0CF96089501970895FC01918D828DBE
:1001E000981761F0A28DAE0FBF2FB11D5D968C9157
:1001F000928D9F5F9F73928F90E008958FEF9FEF96
:100200000895FC01918D828D981731F0828DE80F51
:10021000F11D858D90E008958FEF9FEF0895FC010B
:10022000918D228D892F90E0805C9F4F821B9109D8
:100230008F73992708958BE391E00E940F0121E0CD
:10024000892B09F420E0822F089580E090E0892B2B
:1002500029F00E941B0181110C9400000895FC01FB
:10026000A48DA80FB92FB11DA35ABF4F2C91848D17
:1002700090E001968F739927848FA689B7892C9374
:10028000A089B1898C91837080648C93938D848DC7
:10029000981306C00288F389E02D80818F7D8083CA
:1002A0000895EF92FF920F931F93CF93DF93EC018A
:1002B00081E0888F9B8D8C8D98131AC0E889F9890D
:1002C000808185FF15C09FB7F894EE89FF89608310
:1002D000E889F98980818370806480839FBF81E091
:1002E00090E0DF91CF911F910F91FF90EF900895D3
:1002F000F62E0B8D10E00F5F1F4F0F731127E02EAE
:100300008C8D8E110CC00FB607FCFACFE889F989E5
:10031000808185FFF5CFCE010E942F01F1CFEB8DBB
:10032000EC0FFD2FF11DE35AFF4FF0829FB7F894B9
:100330000B8FEA89FB8980818062CFCFCF93DF93D7
:10034000EC01888D8823B9F0AA89BB89E889F989ED
:100350008C9185FD03C0808186FD0DC00FB607FC22
:10036000F7CF8C9185FFF2CF808185FFEDCFCE0155
:100370000E942F01E9CFDF91CF910895FC010190F8
:100380000020E9F73197AF01481B590BBC018BE303
:1003900091E00C94B1008F929F92AF92BF920F9315
:1003A0001F93CF93DF93CDB7DEB7A1970FB6F89425
:1003B000DEBF0FBECDBF19A2423008F44AE08E0165
:1003C0000F5D1F4F842E912CB12CA12CA5019401FF
:1003D0000E948607E62FB901CA01EA30F4F4E05D15
:1003E000D801EE938D01232B242B252B79F790E058
:1003F00080E0109719F0CD010E94BE01A1960FB6C2
:10040000F894DEBF0FBECDBFDF91CF911F910F914A
:10041000BF90AF909F908F900895E95CE1CF1F92BD
:100420000F920FB60F9211242F933F938F939F93A8
:10043000AF93BF938091330190913401A091350126
:10044000B09136013091320123E0230F2D3758F55A
:100450000196A11DB11D2093320180933301909329
:100460003401A0933501B09336018091370190910A
:100470003801A0913901B0913A010196A11DB11D39
:100480008093370190933801A0933901B0933A01DA
:10049000BF91AF919F918F913F912F910F900FBE80
:1004A0000F901F90189526E8230F0296A11DB11DED
:1004B000D2CF1F920F920FB60F9211242F933F931A
:1004C0004F935F936F937F938F939F93AF93BF935C
:1004D000EF93FF938BE391E00E942F01FF91EF9147
:1004E000BF91AF919F918F917F916F915F914F914C
:1004F0003F912F910F900FBE0F901F9018951F9254
:100500000F920FB60F9211242F938F939F93EF9317
:10051000FF93E0914B01F0914C018081E0915101FA
:10052000F091520182FD1BC09081809154018F5F38
:100530008F7320915501821741F0E0915401F0E052
:10054000E55CFE4F958F80935401FF91EF919F9151
:100550008F912F910F900FBE0F901F901895808153
:10056000F4CFEBE3F1E01382128288EE93E0A0E097
:10057000B0E084839583A683B78384E091E0918380
:10058000808385EC90E09587848784EC90E0978762
:10059000868780EC90E0918B808B81EC90E0938B50
:1005A000828B82EC90E0958B848B86EC90E0978B2D
:1005B000868B118E128E138E148EE8EDF1E0108270
:1005C0008BE69DE09283818389E1838380E090E0E4
:1005D000A0E8BFE384839583A683B78308957894C6
:1005E00084B5826084BD84B5816084BD85B5826038
:1005F00085BD85B5816085BD80916E0081608093E9
:100600006E00109281008091810082608093810051
:100610008091810081608093810080918000816061
:10062000809380008091B10084608093B1008091BC
:10063000B00081608093B00080917A0084608093E4
:100640007A0080917A00826080937A0080917A00AB
:10065000816080937A0080917A00806880937A002C
:100660001092C100E0914B01F0914C0182E0808337
:10067000E0914701F09148011082E0914901F09129
:100680004A018FEC808310925301E0914F01F09169
:10069000500186E08083E0914D01F0914E01808110
:1006A00080618083E0914D01F0914E0180818860EE
:1006B0008083E0914D01F0914E01808180688083BC
:1006C000E0914D01F0914E0180818F7D8083C0E0EB
:1006D000D0E082E191E00E94BE0194E170E060E030
:1006E0008091D8018E3008F08E508770806480939E
:1006F0007C0080917A00806480937A0080917A00F7
:1007000086FDFCCF2091780030917900620F731F35
:10071000915031F790E080E00E94D80520E030E071
:1007200040EA51E40E9437059B01AC0160E070ECA7
:100730008FE794E40E94370520E030E040E85FE373
:100740000E94C5049B01AC016091DC017091DD0148
:100750008091DE019091DF010E9437050E9497068B
:100760004B015C016091DB0170E090E080E00E9451
:10077000DA0523E333E948E853E40E94C6049B0109
:10078000AC0160E070E080E89FE30E9437056B01F8
:100790007C016091D9017091DA0190E080E00E94C3
:1007A000D8059B01AC01C501B4010E9437059B012E
:1007B000AC01C701B6010E94C6049B01AC0160E018
:1007C00070E080E89FE30E94370523E333E948E8BF
:1007D00053E40E94C5046B017C014B015C01AC0138
:1007E0009B010E944C078823E1F18FE191E00E9478
:1007F000BE018BE291E00E94BE018FE291E00E9477
:10080000BE010E948C004B015C0184EFC82EDD24E8
:10081000D394E12CF12C0E948C00681979098A0983
:100820009B09683E734081059105A8F321E0C21A37
:10083000D108E108F10888EE880E83E0981EA11C1B
:10084000B11CC114D104E104F10429F7209709F483
:1008500040CF0E941B01882309F43BCF0E94000077
:1008600038CF26013701E89477F82FEF3FEF4FE7B5
:100870005FE7C301B2010E944C0781110DC02FEF49
:100880003FEF4FE75FE7C301B2010E943205181640
:100890001CF483E291E0ABCF2FEF3FEF4FE75FE433
:1008A000C701B6010E948A0618161CF487E291E07F
:1008B0009ECF2FEF3FEF4FE75FECC701B6010E94DD
:1008C000320587FDF3CF20E030E0A901C701B60172
:1008D0000E94320587FF0BC06DE28BE391E00E941E
:1008E000510146015701B7FAB094B7F8B0942AE025
:1008F00037ED43EA5BE3C501B4010E94C6044B0136
:100900005C010E94A9056B017C010E94D8059B0136
:10091000AC01C501B4010E94C5044B015C014AE071
:10092000C701B6010E94CB016EE28BE391E00E9409
:10093000510120E030E040E251E4C501B4010E94E1
:10094000DF064B015C010E94A9056B01F12CE12C33
:100950004AE0C701B6010E94CB01C701B6010E945F
:10096000D8059B01AC01C501B4010E94C50420E07B
:1009700030E040E251E40E94DF060E94A90590E0C9
:1009800080E04AE00E94CB0134CF5058BB27AA2711
:100990000E94DD040C9450060E94420638F00E942A
:1009A000490620F039F49F3F19F426F40C943F06D1
:1009B0000EF4E095E7FB0C943906E92F0E946106DE
:1009C00058F3BA17620773078407950720F079F484
:1009D000A6F50C9483060EF4E0950B2EBA2FA02DED
:1009E0000B01B90190010C01CA01A0011124FF27DC
:1009F000591B99F0593F50F4503E68F11A16F040D7
:100A0000A22F232F342F4427585FF3CF46953795D5
:100A10002795A795F0405395C9F77EF41F16BA0B9A
:100A2000620B730B840BBAF09150A1F0FF0FBB1F48
:100A3000661F771F881FC2F70EC0BA0F621F731F91
:100A4000841F48F4879577956795B795F7959E3FEE
:100A500008F0B0CF9395880F08F09927EE0F97957F
:100A6000879508950E94150608F481E008950E9474
:100A70004B050C9450060E94490658F00E9442060D
:100A800040F029F45F3F29F00C94390651110C9481
:100A900084060C943F060E94610668F39923B1F323
:100AA000552391F3951B550BBB27AA276217730794
:100AB000840738F09F5F5F4F220F331F441FAA1F28
:100AC000A9F335D00E2E3AF0E0E832D091505040E4
:100AD000E695001CCAF72BD0FE2F29D0660F771F92
:100AE000881FBB1F261737074807AB07B0E809F078
:100AF000BB0B802DBF01FF2793585F4F3AF09E3FFD
:100B0000510578F00C9439060C9484065F3FE4F3A9
:100B1000983ED4F3869577956795B795F7959F5F3F
:100B2000C9F7880F911D9695879597F90895E1E08B
:100B3000660F771F881FBB1F621773078407BA07EA
:100B400020F0621B730B840BBA0BEE1F88F7E09545
:100B500008950E94690688F09F5798F0B92F992749
:100B6000B751B0F0E1F0660F771F881F991F1AF098
:100B7000BA95C9F714C0B13091F00E948306B1E074
:100B800008950C948306672F782F8827B85F39F073
:100B9000B93FCCF3869577956795B395D9F73EF431
:100BA00090958095709561957F4F8F4F9F4F0895D9
:100BB000E89409C097FB3EF49095809570956195F7
:100BC0007F4F8F4F9F4F9923A9F0F92F96E9BB27AD
:100BD0009395F695879577956795B795F111F8CF29
:100BE000FAF4BB0F11F460FF1BC06F5F7F4F8F4F94
:100BF0009F4F16C0882311F096E911C0772321F08A
:100C00009EE8872F762F05C0662371F096E8862F21
:100C100070E060E02AF09A95660F771F881FDAF778
:100C2000880F9695879597F90895990F0008550FA5
:100C3000AA0BE0E8FEEF16161706E807F907C0F062
:100C400012161306E407F50798F0621B730B840B6A
:100C5000950B39F40A2661F0232B242B252B21F444
:100C600008950A2609F4A140A6958FEF811D811DE4
:100C7000089597F99F6780E870E060E008959FEF1E
:100C800080EC089500240A94161617061806090623
:100C9000089500240A9412161306140605060895F2
:100CA000092E0394000C11F4882352F0BB0F40F47A
:100CB000BF2B11F460FF04C06F5F7F4F8F4F9F4FBA
:100CC000089557FD9058440F551F59F05F3F71F03C
:100CD0004795880F97FB991F61F09F3F79F08795A3
:100CE0000895121613061406551FF2CF4695F1DF2C
:100CF00008C0161617061806991FF1CF86957105BC
:100D0000610508940895E894BB2766277727CB01EF
:100D100097F908950E94150608F48FEF089516F0CC
:100D20000C9451070C943F0668940C9439060E9469
:100D30006906A8F39923C1F3AEF3DF93CF931F9312
:100D40000F93FF92C92FDD2788232AF02197660F82
:100D5000771F881FDAF720E030E040E85FEB9FE381
:100D6000883920F0803E38F021968F770E94C604A3
:100D7000E8E6F0E004C00E94C604E5E9F0E00E9465
:100D80005F078B01BE01EC01FB2E6F577109759552
:100D9000771F880B990B0E94DA0528E132E741E3BF
:100DA0005FE30E94F206AF2D9801AE01FF900F9114
:100DB0001F91CF91DF910E94DD040C9450060E9498
:100DC000F2060C9450060E94420638F00E94490632
:100DD00020F0952311F00C9439060C943F06112451
:100DE0000C9484060E94610670F3959FC1F3950FE1
:100DF00050E0551F629FF001729FBB27F00DB11D9F
:100E0000639FAA27F00DB11DAA1F649F6627B00D2E
:100E1000A11D661F829F2227B00DA11D621F739F17
:100E2000B00DA11D621F839FA00D611D221F749F25
:100E30003327A00D611D231F849F600D211D822F6C
:100E4000762F6A2F11249F5750409AF0F1F0882393
:100E50004AF0EE0FFF1FBB1F661F771F881F9150C0
:100E60005040A9F79E3F510580F00C9439060C9430
:100E700084065F3FE4F3983ED4F3869577956795B3
:100E8000B795F795E7959F5FC1F7FE2B880F911DEA
:100E90009695879597F908950E941506880B990BEA
:100EA00008959F3F31F0915020F48795779567958D
:100EB000B795880F911D9695879597F90895DF93BB
:100EC000CF931F930F93FF92EF92DF927B018C01E0
:100ED000689406C0DA2EEF010E94F206FE01E89443
:100EE000A5912591359145915591A6F3EF010E9469
:100EF000DD04FE019701A801DA9469F7DF90EF9015
:100F0000FF900F911F91CF91DF910895A1E21A2ECA
:100F1000AA1BBB1BFD010DC0AA1FBB1FEE1FFF1F9D
:100F2000A217B307E407F50720F0A21BB30BE40BED
:100F3000F50B661F771F881F991F1A9469F7609534
:100F40007095809590959B01AC01BD01CF010895EE
:100F5000EE0FFF1F0590F491E02D0994F894FFCF58
:100F6000000000005101B100DE009E010F01ED0004
:100F7000010154656D706572617475726520006E53
:100F8000616E00696E66006F766600202A43000D70
:020F90000A0055
:00000001FF
