:100000000C9463000C948B000C948B000C948B006C
:100010000C948B000C948B000C948B000C948B0034
:100020000C948B000C948B000C948B000C948B0024
:100030000C948B000C948B000C948B000C948B0014
:100040000C948C030C948B000C94FC030C94D6033E
:100050000C948B000C948B000C948B000C948B00F4
:100060000C942E040C948B00000000002400270048
:100070002A0000000008000201000003040700003D
:1000800000000000000000000000230026002900FE
:10009000010204081020408001020408102001021F
:1000A0000408102000000000250028002B00040494
:1000B0000404040404040202020202020303030310
:1000C00003034905DE0811241FBECFEFD8E0DEBFD1
:1000D000CDBF11E0A0E0B1E0E4E2F8E102C005909C
:1000E0000D92A832B107D9F722E0A8E2B1E001C031
:1000F0001D92A236B207E1F710E0C2E6D0E004C0DC
:100100002197FE010E94D30AC136D107C9F70E9488
:10011000E7050C94050C0C94000090E0FC01EE58EF
:10012000FF4F2491FC01E057FF4F3491FC01E25551
:10013000FF4FE491EE23C9F0222339F0233001F17F
:10014000A8F4213019F1223029F1F0E0EE0FFF1F61
:10015000EC55FF4FA591B4918FB7F894EC916111D4
:1001600026C030953E233C938FBF08952730A9F0D9
:100170002830C9F0243049F7809180008F7D03C07A
:10018000809180008F7780938000DFCF84B58F7758
:1001900084BDDBCF84B58F7DFBCF8091B0008F779E
:1001A0008093B000D2CF8091B0008F7DF9CF3E2BED
:1001B000DACFCF93DF9390E0FC01E057FF4F24911B
:1001C00082559F4FFC0184918823D1F090E0880FE5
:1001D000991FFC01E859FF4FA591B491FC01EC5522
:1001E000FF4FC591D49161110EC09FB7F8948C91C7
:1001F000E22FE0958E238C932881E223E8839FBF32
:10020000DF91CF9108958FB7F894EC91E22BEC93A6
:100210008FBFF6CF3FB7F89480919F019091A001D6
:10022000A091A101B091A20126B5A89B05C02F3FC6
:1002300019F00196A11DB11D3FBFBA2FA92F982F0C
:100240008827BC01CD01620F711D811D911D42E007
:10025000660F771F881F991F4A95D1F708958F92CF
:100260009F92AF92BF92CF92DF92EF92FF920E9445
:100270000A014B015C0188EEC82E83E0D82EE12CE8
:10028000F12C0E940A01681979098A099B09683EC4
:10029000734081059105A8F321E0C21AD108E10855
:1002A000F10888EE880E83E0981EA11CB11CC114D1
:1002B000D104E104F10429F7FF90EF90DF90CF9093
:1002C000BF90AF909F908F900895AF92BF92CF92C2
:1002D000DF92EF92FF920F931F93CF93DF936C0106
:1002E0007B018B01040F151FEB015E01AE18BF08E7
:1002F000C017D10759F06991D601ED91FC91019099
:10030000F081E02DC6010995892B79F7C501DF91B0
:10031000CF911F910F91FF90EF90DF90CF90BF9002
:10032000AF900895FC01538D448D252F30E0842F2C
:1003300090E0821B930B541710F0CF96089501970D
:100340000895FC01918D828D981761F0A28DAE0FFA
:10035000BF2FB11D5D968C91928D9F5F9F73928F81
:1003600090E008958FEF9FEF0895FC01918D828DAD
:10037000981731F0828DE80FF11D858D90E008957A
:100380008FEF9FEF0895FC01918D228D892F90E0D2
:10039000805C9F4F821B91098F739927089583EA90
:1003A00091E00E94C30121E0892B09F420E0822F13
:1003B000089580E090E0892B29F00E94CF018111FF
:1003C0000C9400000895FC01A48DA80FB92FB11D55
:1003D000A35ABF4F2C91848D90E001968F7399277B
:1003E000848FA689B7892C93A089B1898C91837059
:1003F00080648C93938D848D981306C00288F38952
:10040000E02D80818F7D80830895EF92FF920F937E
:100410001F93CF93DF93EC0181E0888F9B8D8C8DB0
:1004200098131AC0E889F989808185FF15C09FB7A4
:10043000F894EE89FF896083E889F9898081837067
:10044000806480839FBF81E090E0DF91CF911F9116
:100450000F91FF90EF900895F62E0B8D10E00F5F37
:100460001F4F0F731127E02E8C8D8E110CC00FB60D
:1004700007FCFACFE889F989808185FFF5CFCE01A5
:100480000E94E301F1CFEB8DEC0FFD2FF11DE35A3C
:10049000FF4FF0829FB7F8940B8FEA89FB89808128
:1004A0008062CFCFCF93DF93EC01888D8823B9F0A2
:1004B000AA89BB89E889F9898C9185FD03C080816F
:1004C00086FD0DC00FB607FCF7CF8C9185FFF2CFEC
:1004D000808185FFEDCFCE010E94E301E9CFDF915E
:1004E000CF91089520914F01260F3327331F2132DA
:1004F0003105ECF420917301FC0190E080E02430A0
:1005000069F082E00895A0914F012191AC01415D15
:100510005E4FA40FB52FB11D2C930196861798F34B
:1005200080914F01680F60934F0180E0089581E052
:10053000089508958FEF9FEF08958FEF9FEF08952F
:100540008091280190E09195819591090895CF932C
:10055000DF93CB01EA01642F0E947202CE01DF918A
:10056000CF910895CF93DF931F92CDB7DEB7698304
:1005700061E0CE0101960E94720281E090E00F904E
:10058000DF91CF91089590E080E00895FC01019003
:100590000020E9F73197AF01481B590BBC0183EAF2
:1005A00091E00C9465018F929F92AF92BF920F934E
:1005B0001F93CF93DF93CDB7DEB7A1970FB6F89413
:1005C000DEBF0FBECDBF19A2423008F44AE08E0153
:1005D0000F5D1F4F842E912CB12CA12CA5019401ED
:1005E0000E94B10AE62FB901CA01EA30F4F4E05DD5
:1005F000D801EE938D01232B242B252B79F790E046
:1006000080E0109719F0CD010E94C602A1960FB6A6
:10061000F894DEBF0FBECDBFDF91CF911F910F9138
:10062000BF90AF909F908F900895E95CE1CF1F93AA
:10063000CF93DF9385ED8093BC0080912B01909147
:100640002C01A0912D01B0912E010796A11DB11D85
:1006500023E0B695A795979587952A95D1F7209190
:10066000BC0024FD03C01092730152C040912B01C5
:1006700050912C0160912D0170912E01452B462B3C
:10068000472B69F30097A105B10541F02AE22A95AD
:10069000F1F700C00197A109B109E1CF80912A01CA
:1006A000C1E0C0932901882399F1D091B80010913D
:1006B000BA008091BC008A7B8093BC0060E082E13C
:1006C0000E948D0060E083E10E948D001092730112
:1006D000C09375011092740161E082E10E948D0067
:1006E00061E083E10E948D008091B9008E7F80934C
:1006F000B9008091B9008D7F8093B90088E4809320
:10070000B80085E48093BC001093BA00D093B80081
:10071000DF91CF911F9108951F920F920FB60F9204
:1007200011242F933F938F939F93AF93BF93809107
:100730009B0190919C01A0919D01B0919E013091EF
:100740009A0123E0230F2D3758F50196A11DB11D05
:1007500020939A0180939B0190939C01A0939D010B
:10076000B0939E0180919F019091A001A091A10161
:10077000B091A2010196A11DB11D80939F0190939C
:10078000A001A093A101B093A201BF91AF919F914D
:100790008F913F912F910F900FBE0F901F90189542
:1007A00026E8230F0296A11DB11DD2CF1F920F92F2
:1007B0000FB60F9211242F933F934F935F936F9334
:1007C0007F938F939F93AF93BF93EF93FF9383EAAE
:1007D00091E00E94E301FF91EF91BF91AF919F9152
:1007E0008F917F916F915F914F913F912F910F90DA
:1007F0000FBE0F901F9018951F920F920FB60F9279
:1008000011242F938F939F93EF93FF93E091B30164
:10081000F091B4018081E091B901F091BA0182FDBB
:100820001BC090818091BC018F5F8F732091BD01AF
:10083000821741F0E091BC01F0E0ED55FE4F958F3D
:100840008093BC01FF91EF919F918F912F910F9019
:100850000FBE0F901F9018958081F4CF1F920F92BA
:100860000FB60F9211242F933F934F935F936F9383
:100870007F938F939F93AF93BF93EF93FF93809159
:10088000B900887F803609F44AC0F0F5883209F44F
:10089000A5C018F5803109F499C0B8F4882309F48B
:1008A000F5C0883009F492C0FF91EF91BF91AF91EC
:1008B0009F918F917F916F915F914F913F912F9178
:1008C0000F900FBE0F901F901895883109F486C0C5
:1008D000803251F78093720114C0803409F49BC0B8
:1008E00040F48033B9F38833F9F68093720185ECD4
:1008F000AEC0803509F483C0883509F494C08834CB
:1009000099F60E941703D0CF883909F48AC038F5C8
:10091000883729F050F4883611F0803729F683E0C3
:10092000809373011092710155C0883809F479C021
:10093000803919F0803809F0B7CF80917101803289
:1009400008F06FC0E091710181E08E0F809371011A
:100950008091BB00F0E0EF5AFE4F80833BC0803BAC
:1009600039F0D0F4803A09F477C0883A09F09CCF86
:1009700084E0809373011092500110924F01F0E0D7
:10098000E0E0099580914F0181110FC081E08093D3
:100990004F0110922F0109C0803C09F4A8CF883C78
:1009A00009F4A5CF883B09F07FCFE091500181E0A9
:1009B0008E0F80935001F0E0E15DFE4F80818093C7
:1009C000BB009091500180914F0129C08091980106
:1009D0008093BB0085EC8093BC0066CF909197011B
:1009E00080919601981758F5E091970181E08E0F5C
:1009F00080939701F0E0EA58FE4F8081E9CFE091C3
:100A0000970181E08E0F809397018091BB00F0E009
:100A1000EA58FE4F80839091970180919601981734
:100A2000C8F285E8D8CFE091970181E08E0F8093DE
:100A300097018091BB00F0E0EA58FE4F80838091DF
:100A4000750181115ECF81E08093740184EA809307
:100A5000BC001092730128CF85EC8093BC001092EB
:100A6000730180917101803230F4E0917101F0E006
:100A7000EF5AFE4F10826091710170E081E591E0C4
:100A8000F0E0E0E00995109271010ECF1092720132
:100A900038CFE3EAF1E01382128288EE93E0A0E01F
:100AA000B0E084839583A683B7838AE091E0918345
:100AB000808385EC90E09587848784EC90E097872D
:100AC000868780EC90E0918B808B81EC90E0938B1B
:100AD000828B82EC90E0958B848B86EC90E0978BF8
:100AE000868B118E128E138E148EA0E4B2E01196B6
:100AF0001C921E9213961C921E9212978AE01B96CD
:100B00008C931B9788E01C968C931C9789E01E960B
:100B10008C931E978FEF1D968C931D97E8EBF0E05A
:100B2000E491F0E0EE0FFF1FEC55FF4F859194919B
:100B300056969C938E935597EAE9F0E0E4915A9685
:100B4000EC935A97E7EBF0E0E491F0E0EE0FFF1F33
:100B5000EA57FF4F8591949154969C938E935397A7
:100B6000E9E9F0E0E4915896EC935897E6EBF0E071
:100B7000E491F0E0EE0FFF1FEC55FF4F859194914B
:100B800052969C938E935197E8E9F0E0E491599640
:100B9000EC93599740E452E46FE070E014964D9363
:100BA0005D936D937C93179781E090E019969C93E9
:100BB0008E9318971A961C921A975B961C925B97C5
:100BC0005C961C925C9787E05D968C930895CF931A
:100BD000DF9300D000D000D0CDB7DEB7789484B5D5
:100BE000826084BD84B5816084BD85B5826085BD29
:100BF00085B5816085BD80916E00816080936E00B7
:100C000010928100809181008260809381008091A8
:100C10008100816080938100809180008160809359
:100C200080008091B10084608093B1008091B00019
:100C300081608093B00080917A00846080937A0014
:100C400080917A00826080937A0080917A0081603E
:100C500080937A0080917A00806880937A00109265
:100C6000C100E091B301F091B40182E08083E09192
:100C7000AF01F091B0011082E091B101F091B201A9
:100C80008FEC80831092BB01E091B701F091B80125
:100C900086E08083E091B501F091B60180818061AA
:100CA0008083E091B501F091B601808188608083F6
:100CB000E091B501F091B601808180688083E09178
:100CC000B501F091B60180818F7D80830E942F0154
:100CD000CE0105969E838D831E0194E0290E311C62
:100CE00080915C0281114BC080914B028F3F41F09B
:100CF00061E00E94D90061E080914B020E948D006A
:100D00008091400290914102892B09F46BC01FB77A
:100D1000F89480919901811127C0E8EBF0E084916B
:100D2000EAE9F0E09491E82FF0E0EE0FFF1FE859B8
:100D3000FF4FA591B4918C91982321F461E08AE052
:100D40000E948D0061E08AE00E94D9008CB580612C
:100D50008CBD8CB580648CBD61E08DE00E94D900B3
:100D600061E08BE00E94D900809199018F5F8093B0
:100D700099011FBFF1E0F0935B02F0935C0244E045
:100D800050E06FEF70E0CE0101960E94FE0B809163
:100D9000400290914102892B41F0E0914202F09192
:100DA0004302908181819CBD8DBD80914B028F3F1C
:100DB00019F060E00E948D008981209140023091FD
:100DC0004102232B09F494C08EBDFE0131962E16EC
:100DD0003F0661F191810DB407FEFDCF8EB59EBD3A
:100DE0008193F5CF61E080914C020E94D9008091FF
:100DF0004A028B7F60E009F061E080914C020E9422
:100E00008D0080914D028F3F41F061E00E94D9003A
:100E100061E080914D020E948D0080914E028F3FD3
:100E200009F4A8CF60E00E94D900A4CF0DB407FE5A
:100E3000FDCF8EB58C8380914B028F3F19F061E01E
:100E40000E948D0069817A8176276727762790E056
:100E500080E0982F872F762F66272B81622B982F83
:100E6000872F762F66272C81622B00915D0210E080
:100E700030E020E00623172328233923012B022BFF
:100E8000032BF9F497FFFEC032E19695879577958D
:100E900067953A95D1F7706C8F6F9F6F0E948A09A2
:100EA00020E030E040E85EE30E943F0A6B017C01F5
:100EB0002B013C01AC019B010E94AC0A882309F480
:100EC000E9C088E191E00E94C60284E291E00E94BC
:100ED000C6020E942F01E0E0F0E0EF2B09F400CF02
:100EE0000E94CF01882309F4FBCE0E940000F8CEB7
:100EF000209148023091490201E0232B09F000E8DB
:100F0000802311E009F010E0209144023091450265
:100F1000409146025091470260E271EA87E090E01A
:100F20000E94B10A422F84E0289F9001112425508D
:100F30003109FE0131965081802F90E0423018F047
:100F4000D9011197F1F760914A02677F09F05BC000
:100F500060914D026F3FA1F0782F752361E009F495
:100F600060E0161769F0A0914F02B09150026091B5
:100F70005702772309F441C07C91672B6C9311E0F1
:100F8000A0915102B09152026C9170915902672B5D
:100F90006C93423018F0D9011197F1F760914E022D
:100FA0006F3F51F0A0915302B09154026C91709137
:100FB0005802672309F0982BA0915102B091520278
:100FC0007C9160915902609567236C9360914E0209
:100FD0006F3F09F090836091480270914902672B3E
:100FE00009F04EC0880F8111A9CF31968D819E8165
:100FF0008E179F0709F09FCF1ECF7C9160956723C6
:101000006C9310E0BDCFA0915102B09152026C914F
:1010100070915902672B6C93423018F0D9011197E7
:10102000F1F760914D026F3F61F0A0914F02B091D6
:10103000500260915702782F7523F1F07C91672B55
:101040006C93A0915102B09152027C91609159022F
:10105000609567236C9360914E026F3F09F4B6CFA1
:10106000A0915302B09154026C9170915802672381
:1010700009F4ACCF982BAACF7C9160956723E0CF81
:101080008695B1CF22E195958795779567952A95B5
:10109000D1F704CF46015701E894B7F82FEF3FEF9F
:1010A0004FE75FE7C501B4010E94AC0A81110DC092
:1010B0002FEF3FEF4FE75FE7C501B4010E945409EE
:1010C00018161CF48CE191E0FECE2FEF3FEF4FE7B6
:1010D0005FE4C701B6010E943A0A18161CF480E2C8
:1010E00091E0F1CE2FEF3FEF4FE75FECC701B60184
:1010F0000E94540987FDF3CF20E030E0A901C70129
:10110000B6010E94540987FF0BC06DE283EA91E0AB
:101110000E9405022601370177FA709477F87094DF
:101120002AE037ED43EA5BE3C301B2010E94E8081D
:101130002B013C010E9459096B017C010E94880926
:101140009B01AC01C301B2010E94E7082B013C01E5
:101150004AE0C701B6010E94D3026EE283EA91E041
:101160000E94050220E030E040E251E4C301B201F8
:101170000E943F0A2B013C010E9459096B01F12C8E
:10118000E12C4AE0C701B6010E94D302C701B601B3
:101190000E9488099B01AC01C301B2010E94E708CB
:1011A00020E030E040E251E40E943F0A0E945909E9
:1011B00090E080E04AE00E94D30287CE8091420214
:1011C00090914302009711F00C94750B08955058BC
:1011D000BB27AA270E94FF080C94000A0E94F2096C
:1011E00038F00E94F90920F039F49F3F19F426F4F1
:1011F0000C94EF090EF4E095E7FB0C94E909E92F54
:101200000E94110A58F3BA176207730784079507FB
:1012100020F079F4A6F50C94330A0EF4E0950B2E29
:10122000BA2FA02D0B01B90190010C01CA01A00138
:101230001124FF27591B99F0593F50F4503E68F193
:101240001A16F040A22F232F342F4427585FF3CFD4
:10125000469537952795A795F0405395C9F77EF4A5
:101260001F16BA0B620B730B840BBAF09150A1F0EE
:10127000FF0FBB1F661F771F881FC2F70EC0BA0F74
:10128000621F731F841F48F4879577956795B795FC
:10129000F7959E3F08F0B0CF9395880F08F09927F7
:1012A000EE0F9795879508950E94C50908F481E08F
:1012B00008950E94190A88F09F5798F0B92F99272E
:1012C000B751B0F0E1F0660F771F881F991F1AF031
:1012D000BA95C9F714C0B13091F00E94330AB1E059
:1012E00008950C94330A672F782F8827B85F39F058
:1012F000B93FCCF3869577956795B395D9F73EF4CA
:1013000090958095709561957F4F8F4F9F4F089571
:10131000E89409C097FB3EF490958095709561958F
:101320007F4F8F4F9F4F9923A9F0F92F96E9BB2745
:101330009395F695879577956795B795F111F8CFC1
:10134000FAF4BB0F11F460FF1BC06F5F7F4F8F4F2C
:101350009F4F16C0882311F096E911C0772321F022
:101360009EE8872F762F05C0662371F096E8862FBA
:1013700070E060E02AF09A95660F771F881FDAF711
:10138000880F9695879597F90895990F0008550F3E
:10139000AA0BE0E8FEEF16161706E807F907C0F0FB
:1013A00012161306E407F50798F0621B730B840B03
:1013B000950B39F40A2661F0232B242B252B21F4DD
:1013C00008950A2609F4A140A6958FEF811D811D7D
:1013D000089597F99F6780E870E060E008959FEFB7
:1013E00080EC089500240A941616170618060906BC
:1013F000089500240A94121613061406050608958B
:10140000092E0394000C11F4882352F0BB0F40F412
:10141000BF2B11F460FF04C06F5F7F4F8F4F9F4F52
:10142000089557FD9058440F551F59F05F3F71F0D4
:101430004795880F97FB991F61F09F3F79F087953B
:101440000895121613061406551FF2CF4695F1DFC4
:1014500008C0161617061806991FF1CF8695710554
:10146000610508940895E894BB2766277727CB0188
:1014700097F908950E94C50908F48FEF08950E9416
:10148000520A0C94000A0E94F20938F00E94F909ED
:1014900020F0952311F00C94E9090C94EF09112424
:1014A0000C94340A0E94110A70F3959FC1F3950FB2
:1014B00050E0551F629FF001729FBB27F00DB11DD8
:1014C000639FAA27F00DB11DAA1F649F6627B00D68
:1014D000A11D661F829F2227B00DA11D621F739F51
:1014E000B00DA11D621F839FA00D611D221F749F5F
:1014F0003327A00D611D231F849F600D211D822FA6
:10150000762F6A2F11249F5750409AF0F1F08823CC
:101510004AF0EE0FFF1FBB1F661F771F881F9150F9
:101520005040A9F79E3F510580F00C94E9090C94B6
:10153000340A5F3FE4F3983ED4F386957795679538
:10154000B795F795E7959F5FC1F7FE2B880F911D23
:101550009695879597F908950E94C509880B990B70
:101560000895A1E21A2EAA1BBB1BFD010DC0AA1FE4
:10157000BB1FEE1FFF1FA217B307E407F50720F0FC
:10158000A21BB30BE40BF50B661F771F881F991F77
:101590001A9469F760957095809590959B01AC01C0
:1015A000BD01CF010895EE0FFF1F0590F491E02DCE
:1015B00009940F931F93CF93DF938230910510F41A
:1015C00082E090E0E0916002F091610230E020E082
:1015D000B0E0A0E0309799F42115310509F44AC034
:1015E000281B390B24303105D8F58A819B81611580
:1015F000710589F1FB0193838283FE0111C0408153
:1016000051810281138148175907E0F048175907A3
:1016100099F4109761F012960C93129713961C93FD
:101620003296CF01DF91CF911F910F9108950093D2
:10163000600210936102F4CF2115310551F0421779
:10164000530738F0A901DB019A01BD01DF01F80160
:10165000C1CFEF01F9CF9093610280936002CDCFAB
:10166000FE01E20FF31F81939193225031093983D8
:101670002883D7CF20915E0230915F02232B41F463
:10168000209102013091030130935F0220935E02AA
:1016900020910001309101012115310541F42DB750
:1016A0003EB74091040150910501241B350BE09198
:1016B0005E02F0915F02E217F307A0F42E1B3F0BCE
:1016C0002817390778F0AC014E5F5F4F24173507B4
:1016D00048F04E0F5F1F50935F0240935E0281936C
:1016E00091939FCFF0E0E0E09CCFCF93DF93009702
:1016F000E9F0FC01329713821282A0916002B0914E
:101700006102ED0130E020E01097A1F420813181E9
:10171000820F931F20915E0230915F0228173907D4
:1017200009F061C0F0935F02E0935E02DF91CF9118
:101730000895EA01CE17DF07E8F54A815B819E0133
:1017400041155105B1F7E901FB83EA8349915991AC
:10175000C40FD51FEC17FD0761F4808191810296BB
:10176000840F951FE90199838883828193819B83EC
:101770008A83F0E0E0E012968D919C911397009798
:10178000B9F52D913C911197CD010296820F931FCF
:1017900020915E0230915F022817390739F63097A1
:1017A00051F51092610210926002B0935F02A09313
:1017B0005E02BCCFD383C28340815181840F951FC9
:1017C000C817D90761F44E5F5F4F88819981480F30
:1017D000591F518340838A819B8193838283211582
:1017E000310509F0B0CFF0936102E09360029ECF23
:1017F000FD01DC01C0CF13821282D7CFDC0101C012
:101800006D9341505040E0F7089510E0C2E6D0E0FB
:1018100004C0FE010E94D30A2196C336D107C9F73E
:04182000F894FFCF6A
:1018240000006202800000000000050265019201D0
:101834005202C301A101B5016E616E00696E6600BA
:081844006F7666000D0A00003A
:00000001FF
