:100000000C9462000C948A000C948A000C948A0070
:100010000C948A000C948A000C948A000C948A0038
:100020000C948A000C948A000C948A000C948A0028
:100030000C948A000C948A000C948A000C948A0018
:100040000C9405030C948A000C9475030C944F03D4
:100050000C948A000C948A000C948A000C948A00F8
:100060000C948A000C948A000000000024002700F1
:100070002A0000000000250028002B0000000000DE
:1000800023002600290004040404040404040202DA
:100090000202020203030303030301020408102007
:1000A0004080010204081020010204081020000012
:1000B0000008000201000003040700000000000027
:1000C0000000D80311241FBECFEFD8E0DEBFCDBFA4
:1000D00011E0A0E0B1E0E2ECFEE002C005900D927C
:1000E000A232B107D9F721E0A2E2B1E001C01D922E
:1000F000AF3CB207E1F710E0C2E6D0E004C02197C0
:10010000FE010E945907C136D107C9F70E941904A0
:100110000C945F070C940000833081F028F4813048
:1001200099F08230A9F008958730A9F08830C9F09D
:100130008430B1F4809180008F7D03C08091800075
:100140008F7780938000089584B58F7784BD08955C
:1001500084B58F7DFBCF8091B0008F778093B00006
:1001600008958091B0008F7DF9CF1F93CF93DF93D7
:10017000282F30E0F901E255FF4F8491F901E6564E
:10018000FF4FD491F901EA57FF4FC491CC23A9F056
:10019000162F81110E948C00EC2FF0E0EE0FFF1F54
:1001A000EE58FF4FA591B4918FB7F894EC911111CF
:1001B00008C0D095DE23DC938FBFDF91CF911F91D4
:1001C0000895DE2BF8CF8F929F92AF92BF92CF927D
:1001D000DF92EF92FF920F931F93CF93DF9381E013
:1001E0008093CC0160E08AE00E94B50000E110E05D
:1001F000D0E0C0E036EBE32E30E0F32E42EAC42E2E
:1002000040E0D42E5EE8A52E50E0B52E61E089E0F6
:100210000E94B500CC0FDD1FF7018491F601949088
:10022000F5018490882079F081110E948C00E82DDE
:10023000F0E0EE0FFF1FE458FF4FA591B4918C91B1
:10024000982209F0C16060E089E00E94B500015089
:100250001109E1F661E08AE00E94B500CF3FDC07BA
:10026000C9F0C2FD17C083E0D695C7958A95E1F71E
:10027000D093CE01C093CD0181E0DF91CF911F914A
:100280000F91FF90EF90DF90CF90BF90AF909F9035
:100290008F90089580E0F1CF3FB7F89480912B01C3
:1002A00090912C01A0912D01B0912E0126B5A89B13
:1002B00005C02F3F19F00196A11DB11D3FBFBA2FF8
:1002C000A92F982F8827BC01CD01620F711D811DB8
:1002D000911D42E0660F771F881F991F4A95D1F73D
:1002E00008958F929F92AF92BF92CF92DF92EF923A
:1002F000FF920E944C014B015C0188EEC82E83E006
:10030000D82EE12CF12C0E944C01681979098A0938
:100310009B09683E734081059105A8F321E0C21A4C
:10032000D108E108F10888EE880E83E0981EA11C30
:10033000B11CC114D104E104F10429F7FF90EF903E
:10034000DF90CF90BF90AF909F908F900895AF9225
:10035000BF92CF92DF92EF92FF920F931F93CF93B2
:10036000DF936C017B018B01040F151FEB015E0114
:10037000AE18BF08C017D10759F06991D601ED91A9
:10038000FC910190F081E02DC6010995892B79F748
:10039000C501DF91CF911F910F91FF90EF90DF90FA
:1003A000CF90BF90AF900895FC01538D448D252FC1
:1003B00030E0842F90E0821B930B541710F0CF96FF
:1003C000089501970895FC01918D828D981761F031
:1003D000A28DAE0FBF2FB11D5D968C91928D9F5F48
:1003E0009F73928F90E008958FEF9FEF0895FC0127
:1003F000918D828D981731F0828DE80FF11D858DDA
:1004000090E008958FEF9FEF0895FC01918D228D6C
:10041000892F90E0805C9F4F821B91098F739927F1
:1004200008958FE291E00E94050221E0892B09F4F2
:1004300020E0822F089580E090E0892B29F00E942F
:10044000110281110C9400000895FC01A48DA80FE5
:10045000B92FB11DA35ABF4F2C91848D90E0019606
:100460008F739927848FA689B7892C93A089B18926
:100470008C91837080648C93938D848D981306C0C7
:100480000288F389E02D80818F7D80830895EF922B
:10049000FF920F931F93CF93DF93EC0181E0888F3E
:1004A0009B8D8C8D98131AC0E889F989808185FF0E
:1004B00015C09FB7F894EE89FF896083E889F989B0
:1004C00080818370806480839FBF81E090E0DF91B2
:1004D000CF911F910F91FF90EF900895F62E0B8D05
:1004E00010E00F5F1F4F0F731127E02E8C8D8E11C0
:1004F0000CC00FB607FCFACFE889F989808185FF27
:10050000F5CFCE010E942502F1CFEB8DEC0FFD2F30
:10051000F11DE35AFF4FF0829FB7F8940B8FEA89E1
:10052000FB8980818062CFCFCF93DF93EC01888DF0
:100530008823B9F0AA89BB89E889F9898C9185FD5E
:1005400003C0808186FD0DC00FB607FCF7CF8C91EC
:1005500085FFF2CF808185FFEDCFCE010E9425027D
:10056000E9CFDF91CF910895FC0101900020E9F7D8
:100570003197AF01481B590BBC018FE291E00C94FD
:10058000A7018F929F92AF92BF920F931F93CF9329
:10059000DF93CDB7DEB7A1970FB6F894DEBF0FBEDD
:1005A000CDBF19A2423008F44AE08E010F5D1F4F03
:1005B000842E912CB12CA12CA50194010E94370707
:1005C000E62FB901CA01EA30F4F4E05DD801EE93F8
:1005D0008D01232B242B252B79F790E080E01097B9
:1005E00019F0CD010E94B402A1960FB6F894DEBFB7
:1005F0000FBECDBFDF91CF911F910F91BF90AF90F4
:100600009F908F900895E95CE1CF1F920F920FB6F3
:100610000F9211242F933F938F939F93AF93BF9388
:100620008091270190912801A0912901B0912A0180
:100630003091260123E0230F2D3758F50196A11D97
:10064000B11D209326018093270190932801A09348
:100650002901B0932A0180912B0190912C01A09146
:100660002D01B0912E010196A11DB11D80932B018A
:1006700090932C01A0932D01B0932E01BF91AF91C7
:100680009F918F913F912F910F900FBE0F901F90D0
:10069000189526E8230F0296A11DB11DD2CF1F92F7
:1006A0000F920FB60F9211242F933F934F935F93A6
:1006B0006F937F938F939F93AF93BF93EF93FF932A
:1006C0008FE291E00E942502FF91EF91BF91AF91DF
:1006D0009F918F917F916F915F914F913F912F915A
:1006E0000F900FBE0F901F9018951F920F920FB68C
:1006F0000F9211242F938F939F93EF93FF93E09189
:100700003F01F09140018081E0914501F091460167
:1007100082FD1BC09081809148018F5F8F73209173
:100720004901821741F0E0914801F0E0E15DFE4FA0
:10073000958F80934801FF91EF919F918F912F9119
:100740000F900FBE0F901F9018958081F4CFCF931C
:10075000DF9390E0FC01E656FF4F24918A579F4FAC
:10076000FC0184918823D1F090E0880F991FFC014F
:10077000E859FF4FA591B491FC01EE58FF4FC59188
:10078000D491623071F49FB7F8943C91822F809598
:1007900083238C93E8812E2B28839FBFDF91CF91F9
:1007A00008958FB7F894EC912E2B2C938FBFF6CF32
:1007B000EFE2F1E01382128288EE93E0A0E0B0E075
:1007C00084839583A683B78384E091E091838083BB
:1007D00085EC90E09587848784EC90E09787868706
:1007E00080EC90E0918B808B81EC90E0938B828BFE
:1007F00082EC90E0958B848B86EC90E0978B868BD7
:10080000118E128E138E148EECECF1E01082128297
:10081000118262E088E00E94A70361E089E00E9403
:10082000A70361E08AE00E94A70361E08AE00C94DC
:10083000B500789484B5826084BD84B5816084BD40
:1008400085B5826085BD85B5816085BD80916E006E
:10085000816080936E00109281008091810082609F
:1008600080938100809181008160809381008091DC
:1008700080008160809380008091B10084608093CB
:10088000B1008091B00081608093B00080917A00C7
:10089000846080937A0080917A00826080937A00ED
:1008A00080917A00816080937A0080917A008068DC
:1008B00080937A001092C100E0913F01F0914001D5
:1008C00082E08083E0913B01F0913C011082E09155
:1008D0003D01F0913E018FEC808310924701E09141
:1008E0004301F091440186E08083E0914101F09161
:1008F0004201808180618083E0914101F091420159
:10090000808188608083E0914101F0914201808183
:1009100080688083E0914101F091420180818F7D68
:1009200080830E947101C0E0D0E00E94E300882330
:10093000F1F08091CC01811102C00E94E30010927D
:10094000CC016091CD017091CE0190E080E00E94D9
:100950000E0620E030E040E85EE30E94C5066093AA
:100960002201709323018093240190932501C0906C
:100970002201D0902301E0902401F0902501A701ED
:100980009601C701B6010E9432078823A1F082E1D7
:1009900091E00E94B4028EE191E00E94B4020E94B4
:1009A0007101209711F20E941102882309F4BDCF32
:1009B0000E940000BACF46015701E894B7F82FEF24
:1009C0003FEF4FE75FE7C501B4010E943207811195
:1009D0000DC02FEF3FEF4FE75FE7C501B4010E9465
:1009E000DA0518161CF486E191E0D3CF2FEF3FEF24
:1009F0004FE75FE4C701B6010E94C00618161CF459
:100A00008AE191E0C6CF2FEF3FEF4FE75FECC701E0
:100A1000B6010E94DA0587FDF3CF20E030E0A9019E
:100A2000C701B6010E94DA0587FF09C06DE28FE2B7
:100A300091E00E944702F7FAF094F7F8F0942AE068
:100A400037ED43EA5BE3C701B6010E946E054B0137
:100A50005C010E94DF056B017C010E940E069B0178
:100A6000AC01C501B4010E946D054B015C014AE077
:100A7000C701B6010E94C1026EE28FE291E00E94BE
:100A8000470220E030E040E251E4C501B4010E9499
:100A9000C5064B015C010E94DF056B01F12CE12CC6
:100AA0004AE0C701B6010E94C102C701B6010E9417
:100AB0000E069B01AC01C501B4010E946D0520E04A
:100AC00030E040E251E40E94C5060E94DF0590E05C
:100AD00080E04AE00E94C1025ECF5058BB27AA279F
:100AE0000E9485050C9486060E94780638F00E94C4
:100AF0007F0620F039F49F3F19F426F40C94750614
:100B00000EF4E095E7FB0C946F06E92F0E94970620
:100B100058F3BA17620773078407950720F079F432
:100B2000A6F50C94B9060EF4E0950B2EBA2FA02D65
:100B30000B01B90190010C01CA01A0011124FF278A
:100B4000591B99F0593F50F4503E68F11A16F04085
:100B5000A22F232F342F4427585FF3CF4695379584
:100B60002795A795F0405395C9F77EF41F16BA0B49
:100B7000620B730B840BBAF09150A1F0FF0FBB1FF7
:100B8000661F771F881FC2F70EC0BA0F621F731F40
:100B9000841F48F4879577956795B795F7959E3F9D
:100BA00008F0B0CF9395880F08F09927EE0F97952E
:100BB000879508950E944B0608F481E008950E94ED
:100BC0009F0688F09F5798F0B92F9927B751B0F03A
:100BD000E1F0660F771F881F991F1AF0BA95C9F7C1
:100BE00014C0B13091F00E94B906B1E008950C94A0
:100BF000B906672F782F8827B85F39F0B93FCCF353
:100C0000869577956795B395D9F73EF4909580953D
:100C1000709561957F4F8F4F9F4F0895E89409C05D
:100C200097FB3EF490958095709561957F4F8F4F1F
:100C30009F4F9923A9F0F92F96E9BB279395F69535
:100C4000879577956795B795F111F8CFFAF4BB0FB3
:100C500011F460FF1BC06F5F7F4F8F4F9F4F16C017
:100C6000882311F096E911C0772321F09EE8872FA1
:100C7000762F05C0662371F096E8862F70E060E05D
:100C80002AF09A95660F771F881FDAF7880F9695D6
:100C9000879597F90895990F0008550FAA0BE0E87A
:100CA000FEEF16161706E807F907C0F0121613062E
:100CB000E407F50798F0621B730B840B950B39F46E
:100CC0000A2661F0232B242B252B21F408950A26D4
:100CD00009F4A140A6958FEF811D811D089597F914
:100CE0009F6780E870E060E008959FEF80EC0895D2
:100CF00000240A94161617061806090608950024FB
:100D00000A9412161306140605060895092E039474
:100D1000000C11F4882352F0BB0F40F4BF2B11F4E8
:100D200060FF04C06F5F7F4F8F4F9F4F089557FD47
:100D30009058440F551F59F05F3F71F04795880F49
:100D400097FB991F61F09F3F79F0879508951216E0
:100D500013061406551FF2CF4695F1DF08C016168C
:100D600017061806991FF1CF86957105610508943D
:100D70000895E894BB2766277727CB0197F9089554
:100D80000E944B0608F48FEF08950E94D8060C9439
:100D900086060E94780638F00E947F0620F0952390
:100DA00011F00C946F060C94750611240C94BA067D
:100DB0000E94970670F3959FC1F3950F50E0551F61
:100DC000629FF001729FBB27F00DB11D639FAA27A0
:100DD000F00DB11DAA1F649F6627B00DA11D661FEF
:100DE000829F2227B00DA11D621F739FB00DA11D10
:100DF000621F839FA00D611D221F749F3327A00DCA
:100E0000611D231F849F600D211D822F762F6A2F65
:100E100011249F5750409AF0F1F088234AF0EE0FCA
:100E2000FF1FBB1F661F771F881F91505040A9F7F7
:100E30009E3F510580F00C946F060C94BA065F3FFC
:100E4000E4F3983ED4F3869577956795B795F79533
:100E5000E7959F5FC1F7FE2B880F911D96958795AB
:100E600097F908950E944B06880B990B0895A1E20B
:100E70001A2EAA1BBB1BFD010DC0AA1FBB1FEE1F14
:100E8000FF1FA217B307E407F50720F0A21BB30B5F
:100E9000E40BF50B661F771F881F991F1A9469F7DB
:100EA00060957095809590959B01AC01BD01CF0137
:100EB0000895EE0FFF1F0590F491E02D0994F8942A
:020EC000FFCF62
:100EC200000000004702A701D40194020502E301D9
:100ED200F7016E616E00696E66006F7666000D0A3C
:020EE20000000E
:00000001FF
