:100000000C9462000C948A000C948A000C948A0070
:100010000C948A000C948A000C948A000C948A0038
:100020000C948A000C948A000C948A000C948A0028
:100030000C948A000C948A000C948A000C948A0018
:100040000C9457040C948A000C94C7040C94A104DB
:100050000C948A000C948A000C948A000C948A00F8
:100060000C948A000C948A000000000024002700F1
:100070002A0000000000250028002B0000000000DE
:1000800023002600290004040404040404040202DA
:100090000202020203030303030301020408102007
:1000A0004080010204081020010204081020000012
:1000B0000008000201000003040700000000000027
:1000C0000000F90411241FBECFEFD8E0DEBFCDBF82
:1000D00011E0A0E0B1E0EAEDF1E102C005900D927F
:1000E000A632B107D9F721E0A6E2B1E001C01D9226
:1000F000A13DB207E1F710E0C2E6D0E004C02197CD
:10010000FE010E94E508C136D107C9F70E943105FA
:100110000C94EB080C940000833081F028F48130BB
:1001200099F08230A9F008958730A9F08830C9F09D
:100130008430B1F4809180008F7D03C08091800075
:100140008F7780938000089584B58F7784BD08955C
:1001500084B58F7DFBCF8091B0008F778093B00006
:1001600008958091B0008F7DF9CFCF93DF93282F32
:1001700030E0F901E255FF4F8491F901E656FF4F57
:10018000D491F901EA57FF4FC491CC23A1F081111A
:100190000E948C00EC2FF0E0EE0FFF1FE458FF4FA1
:1001A000A591B491EC91ED2381E090E009F480E019
:1001B000DF91CF91089580E090E0FACF1F93CF9325
:1001C000DF93282F30E0F901E255FF4F8491F901C8
:1001D000E656FF4FD491F901EA57FF4FC491CC2363
:1001E000A9F0162F81110E948C00EC2FF0E0EE0F89
:1001F000FF1FEE58FF4FA591B4918FB7F894EC9183
:10020000111108C0D095DE23DC938FBFDF91CF9111
:100210001F910895DE2BF8CFCF93DF93CCECD1E084
:1002200061E088810E94DE0083E290E00197F1F7AF
:1002300060E08881DF91CF910C94DE00CF93DF9353
:1002400090E0FC01E656FF4F24918A579F4FFC0136
:1002500084918823D1F090E0880F991FFC01E85920
:10026000FF4FA591B491FC01EE58FF4FC591D49179
:1002700061110EC09FB7F8948C91E22FE0958E2308
:100280008C932881E223E8839FBFDF91CF9108956B
:100290008FB7F894EC91E22BEC938FBFF6CF0F93CE
:1002A0001F93CF93DF938091CD010E94B500892BDE
:1002B000D1F700E0C7E0D0E08091CD010E94B50009
:1002C0000C2E01C0880F0A94EAF7082B0E940C013B
:1002D000219790F761E08091CD010E941E0160E0BE
:1002E0008091CD010E94DE000E940C0160E08091AF
:1002F000CD010E941E0110E0C7E0D0E08091CD0149
:100300000E94B5000C2E01C0880F0A94EAF7182B42
:100310000E940C01219790F761E08091CD010E942D
:100320001E0161E08091CD010E94DE000E940C015F
:10033000902F812FDF91CF911F910F9108950F93EF
:100340001F93CF93DF93082F61E08091CC010E942F
:10035000DE00C3E2D0E0CE010197F1F760E08091CA
:10036000CD010E94DE00CE010197F1F760E080919F
:10037000CC010E94DE00CE010197F1F761E080918F
:10038000CC010E94DE00CE010197F1F761E080917F
:10039000CD010E94DE00CE010197F1F760E080916F
:1003A000CC010E94DE002197F1F7C8E0D0E010E810
:1003B000602F61238091CD010E94DE000E940C011C
:1003C00016952197A9F760E08091CD010E941E014A
:1003D0008091CD010E94B500EC010E940C0181E0EA
:1003E000CD2B09F080E0DF91CF911F910F910895FF
:1003F0003FB7F89480912B0190912C01A0912D0191
:10040000B0912E0126B5A89B05C02F3F19F001968B
:10041000A11DB11D3FBFBA2FA92F982F8827BC015E
:10042000CD01620F711D811D911D42E0660F771F86
:10043000881F991F4A95D1F70895AF92BF92CF9226
:10044000DF92EF92FF920F931F93CF93DF936C0194
:100450007B018B01040F151FEB015E01AE18BF0875
:10046000C017D10759F06991D601ED91FC91019027
:10047000F081E02DC6010995892B79F7C501DF913F
:10048000CF911F910F91FF90EF90DF90CF90BF9091
:10049000AF900895FC01538D448D252F30E0842FBB
:1004A00090E0821B930B541710F0CF96089501979C
:1004B0000895FC01918D828D981761F0A28DAE0F89
:1004C000BF2FB11D5D968C91928D9F5F9F73928F10
:1004D00090E008958FEF9FEF0895FC01918D828D3C
:1004E000981731F0828DE80FF11D858D90E0089509
:1004F0008FEF9FEF0895FC01918D228D892F90E061
:10050000805C9F4F821B91098F73992708958FE21A
:1005100091E00E947B0221E0892B09F420E0822FE8
:10052000089580E090E0892B29F00E9487028111D4
:100530000C9400000895FC01A48DA80FB92FB11DE3
:10054000A35ABF4F2C91848D90E001968F73992709
:10055000848FA689B7892C93A089B1898C918370E7
:1005600080648C93938D848D981306C00288F389E0
:10057000E02D80818F7D80830895EF92FF920F930D
:100580001F93CF93DF93EC0181E0888F9B8D8C8D3F
:1005900098131AC0E889F989808185FF15C09FB733
:1005A000F894EE89FF896083E889F98980818370F6
:1005B000806480839FBF81E090E0DF91CF911F91A5
:1005C0000F91FF90EF900895F62E0B8D10E00F5FC6
:1005D0001F4F0F731127E02E8C8D8E110CC00FB69C
:1005E00007FCFACFE889F989808185FFF5CFCE0134
:1005F0000E949B02F1CFEB8DEC0FFD2FF11DE35A12
:10060000FF4FF0829FB7F8940B8FEA89FB898081B6
:100610008062CFCFCF93DF93EC01888D8823B9F030
:10062000AA89BB89E889F9898C9185FD03C08081FD
:1006300086FD0DC00FB607FCF7CF8C9185FFF2CF7A
:10064000808185FFEDCFCE010E949B02E9CFDF9133
:10065000CF910895FC0101900020E9F73197AF0197
:10066000481B590BBC018FE291E00C941D028F9244
:100670009F92AF92BF920F931F93CF93DF93CDB70B
:10068000DEB7A1970FB6F894DEBF0FBECDBF19A29B
:10069000423008F44AE08E010F5D1F4F842E912CEA
:1006A000B12CA12CA50194010E94C308E62FB90129
:1006B000CA01EA30F4F4E05DD801EE938D01232BFA
:1006C000242B252B79F790E080E0109719F0CD01CD
:1006D0000E942A03A1960FB6F894DEBF0FBECDBFCD
:1006E000DF91CF911F910F91BF90AF909F908F900E
:1006F0000895E95CE1CF4F925F926F927F928F9263
:100700009F92AF92BF92CF92DF92EF92FF920F93A0
:100710001F93CF936B017C01742EAC019B010E944F
:10072000BE08882399F082E191E0CF911F910F914B
:10073000FF90EF90DF90CF90BF90AF909F908F9001
:100740007F906F905F904F900C942A034601570161
:10075000E894B7F82FEF3FEF4FE75FE7C501B4012B
:100760000E94BE0881110DC02FEF3FEF4FE75FE7FA
:10077000C501B4010E94F40618161CF486E191E04C
:10078000D4CF2FEF3FEF4FE75FE4C701B6010E94E0
:100790004C0818161CF48AE191E0C7CF2FEF3FEF09
:1007A0004FE75FECC701B6010E94F40687FDF3CF67
:1007B00020E030E0A901C701B6010E94F40610E074
:1007C00000E087FF0AC06DE28FE291E00E94BD0267
:1007D0008C01F7FAF094F7F8F094C0E060E070E074
:1007E00080E09FE37C1641F020E030E040E251E4FD
:1007F0000E94F906CF5FF6CFA70196010E948806F6
:100800002B013C010E946B074B015C014AE00E94F6
:1008100037037C01E00EF11ECC23C1F1C501B40108
:100820000E949A079B01AC01C301B2010E94870696
:100830004B015C016EE28FE291E00E94BD02E80E86
:10084000F91EC15018F120E030E040E251E4C5014A
:10085000B4010E9451082B013C010E946B074B011F
:10086000B12CA12C4AE0C501B4010E943703E80E67
:10087000F91EC501B4010E949A079B01AC01C30196
:10088000B2010E9487064B015C01DBCFC701CF910B
:100890001F910F91FF90EF90DF90CF90BF90AF909E
:1008A0009F908F907F906F905F904F9008951F92D0
:1008B0000F920FB60F9211242F933F938F939F9314
:1008C000AF93BF938091270190912801A0912901B6
:1008D000B0912A013091260123E0230F2D3758F5DE
:1008E0000196A11DB11D20932601809327019093AD
:1008F0002801A0932901B0932A0180912B019091A6
:100900002C01A0912D01B0912E010196A11DB11DC8
:1009100080932B0190932C01A0932D01B0932E0175
:10092000BF91AF919F918F913F912F910F900FBEEB
:100930000F901F90189526E8230F0296A11DB11D58
:10094000D2CF1F920F920FB60F9211242F933F9385
:100950004F935F936F937F938F939F93AF93BF93C7
:10096000EF93FF938FE291E00E949B02FF91EF9142
:10097000BF91AF919F918F917F916F915F914F91B7
:100980003F912F910F900FBE0F901F9018951F92BF
:100990000F920FB60F9211242F938F939F93EF9383
:1009A000FF93E0913F01F09140018081E09145018A
:1009B000F091460182FD1BC09081809148018F5FBC
:1009C0008F7320914901821741F0E0914801F0E0D6
:1009D000E15DFE4F958F80934801FF91EF919F91CC
:1009E0008F912F910F900FBE0F901F9018958081BF
:1009F000F4CFEFE2F1E01382128288EE93E0A0E000
:100A0000B0E084839583A683B78384E091E09183EB
:100A1000808385EC90E09587848784EC90E09787CD
:100A2000868780EC90E0918B808B81EC90E0938BBB
:100A3000828B82EC90E0958B848B86EC90E0978B98
:100A4000868B118E128E138E148EECECF1E01282D6
:100A500081E090E09483838389E080838AE08183CE
:100A60000895789484B5826084BD84B5816084BD26
:100A700085B5826085BD85B5816085BD80916E003C
:100A8000816080936E00109281008091810082606D
:100A900080938100809181008160809381008091AA
:100AA00080008160809380008091B1008460809399
:100AB000B1008091B00081608093B00080917A0095
:100AC000846080937A0080917A00826080937A00BB
:100AD00080917A00816080937A0080917A008068AA
:100AE00080937A001092C100E0913F01F0914001A3
:100AF00082E08083E0913B01F0913C011082E09123
:100B00003D01F0913E018FEC808310924701E0910E
:100B10004301F091440186E08083E0914101F0912E
:100B20004201808180618083E0914101F091420126
:100B3000808188608083E0914101F0914201808151
:100B400080688083E0914101F091420180818F7D36
:100B500080838EE191E00E942A0361E08091CC01C4
:100B60000E941E0161E08091CD010E941E0161E0A2
:100B70008091CD010E94DE0083E291E00E942A0371
:100B8000C0E0D0E083E00E949F01C12CD12C76010F
:100B90008823E1F00E944F012091CF013091D001D4
:100BA000BC0190E080E0232B09F08DC00E949A07E1
:100BB0002AE037ED43E25DE30E9451082DEC3CEC66
:100BC0004EE152E40E9487066B017C0185E00E94A1
:100BD0009F01812C912C5401882391F10E944F0197
:100BE0002091CF013091D001BC0190E080E0232B17
:100BF00009F070C00E949A074B015C012DEB32E5B1
:100C000046E15FE30E94510825EC3EEF42E050E4EC
:100C10000E9487062B013C01A5019401C501B40186
:100C20000E9451082BE335E246ED59EB0E94510832
:100C30009B01AC01C301B2010E9488064B015C011B
:100C400042E0C701B6010E947B036CE28FE291E0B3
:100C50000E94BD0242E0C501B4010E947B0383E211
:100C600091E00E942A030E94F8014B015C0180ED93
:100C7000C82E87E0D82EE12CF12C0E94F8016819CB
:100C800079098A099B09683E734081059105A8F39B
:100C900021E0C21AD108E108F10888EE880E83E04D
:100CA000981EA11CB11CC114D104E104F10429F760
:100CB000209709F467CF0E948702882309F462CF46
:100CC0000E9400005FCF0E949A072AE037ED43E2BE
:100CD0005CE372CF0E949A074B015C012DEB32E579
:100CE00046E15DE30E94510825EC3EEF42E050E40E
:100CF0000E9487062B013C01A5019401C501B401A6
:100D00000E94510826EF34E246ED55EB8FCF505844
:100D1000BB27AA270E949F060C9412080E94040871
:100D200038F00E940B0820F039F49F3F19F426F4A4
:100D30000C9401080EF4E095E7FB0C94FB07E92FF7
:100D40000E94230858F3BA176207730784079507B0
:100D500020F079F4A6F50C9445080EF4E0950B2EDE
:100D6000BA2FA02D0B01B90190010C01CA01A001FD
:100D70001124FF27591B99F0593F50F4503E68F158
:100D80001A16F040A22F232F342F4427585FF3CF99
:100D9000469537952795A795F0405395C9F77EF46A
:100DA0001F16BA0B620B730B840BBAF09150A1F0B3
:100DB000FF0FBB1F661F771F881FC2F70EC0BA0F39
:100DC000621F731F841F48F4879577956795B795C1
:100DD000F7959E3F08F0B0CF9395880F08F09927BC
:100DE000EE0F9795879508950E94D70708F481E044
:100DF00008950E940D070C9412080E940B0858F0E9
:100E00000E94040840F029F45F3F29F00C94FB078E
:100E100051110C9446080C9401080E94230868F3B1
:100E20009923B1F3552391F3951B550BBB27AA27A3
:100E300062177307840738F09F5F5F4F220F331FDD
:100E4000441FAA1FA9F335D00E2E3AF0E0E832D0A5
:100E500091505040E695001CCAF72BD0FE2F29D0A8
:100E6000660F771F881FBB1F261737074807AB077A
:100E7000B0E809F0BB0B802DBF01FF2793585F4FEF
:100E80003AF09E3F510578F00C94FB070C9446080D
:100E90005F3FE4F3983ED4F3869577956795B795D1
:100EA000F7959F5FC9F7880F911D9695879597F9DC
:100EB0000895E1E0660F771F881FBB1F6217730755
:100EC0008407BA0720F0621B730B840BBA0BEE1F6A
:100ED00088F7E09508950E942B0888F09F5798F0B6
:100EE000B92F9927B751B0F0E1F0660F771F881F2F
:100EF000991F1AF0BA95C9F714C0B13091F00E9449
:100F00004508B1E008950C944508672F782F88278D
:100F1000B85F39F0B93FCCF3869577956795B3956F
:100F2000D9F73EF490958095709561957F4F8F4FDE
:100F30009F4F0895E89409C097FB3EF490958095E3
:100F4000709561957F4F8F4F9F4F9923A9F0F92F8F
:100F500096E9BB279395F695879577956795B7950D
:100F6000F111F8CFFAF4BB0F11F460FF1BC06F5FF3
:100F70007F4F8F4F9F4F16C0882311F096E911C005
:100F8000772321F09EE8872F762F05C0662371F026
:100F900096E8862F70E060E02AF09A95660F771F3A
:100FA000881FDAF7880F9695879597F90895990F16
:100FB0000008550FAA0BE0E8FEEF16161706E80723
:100FC000F907C0F012161306E407F50798F0621B44
:100FD000730B840B950B39F40A2661F0232B242B19
:100FE000252B21F408950A2609F4A140A6958FEF38
:100FF000811D811D089597F99F6780E870E060E08A
:1010000008959FEF80EC089500240A9416161706A1
:1010100018060906089500240A94121613061406E9
:1010200005060895092E0394000C11F4882352F04C
:10103000BB0F40F4BF2B11F460FF04C06F5F7F4F04
:101040008F4F9F4F089557FD9058440F551F59F0EB
:101050005F3F71F04795880F97FB991F61F09F3FA5
:1010600079F087950895121613061406551FF2CFCE
:101070004695F1DF08C0161617061806991FF1CF1E
:1010800086957105610508940895E894BB27662745
:101090007727CB0197F908950E94D70708F48FEFBF
:1010A00008950E9464080C9412080E94040838F005
:1010B0000E940B0820F0952311F00C94FB070C9470
:1010C000010811240C9446080E94230870F3959F90
:1010D000C1F3950F50E0551F629FF001729FBB272F
:1010E000F00DB11D639FAA27F00DB11DAA1F649FCB
:1010F0006627B00DA11D661F829F2227B00DA11D7E
:10110000621F739FB00DA11D621F839FA00D611D03
:10111000221F749F3327A00D611D231F849F600D24
:10112000211D822F762F6A2F11249F5750409AF04D
:10113000F1F088234AF0EE0FFF1FBB1F661F771FD9
:10114000881F91505040A9F79E3F510580F00C94A4
:10115000FB070C9446085F3FE4F3983ED4F3869572
:1011600077956795B795F795E7959F5FC1F7FE2B44
:10117000880F911D9695879597F908950E94D70736
:10118000880B990B0895A1E21A2EAA1BBB1BFD0127
:101190000DC0AA1FBB1FEE1FFF1FA217B307E40756
:1011A000F50720F0A21BB30BE40BF50B661F771FAE
:1011B000881F991F1A9469F760957095809590958E
:1011C0009B01AC01BD01CF010895EE0FFF1F0590FB
:0A11D000F491E02D0994F894FFCF8C
:1011DA0000000000BD021D024A020A037B025902F6
:1011EA006D026E616E00696E66006F766600696EEA
:0611FA006974000D0A00FB
:00000001FF
