:100000000C9458000C9480000C9480000C94800098
:100010000C9480000C9480000C9480000C94800060
:100020000C9480000C9480000C9480000C94800050
:100030000C9480000C9480000C9480000C94800040
:100040000C9492060C9480000C9402070C94DC062D
:100050000C9480000C9480000C9480000C94800020
:100060000C9434070C948000000000002500280048
:100070002B00040404040404040402020202020229
:10008000030303030303010204081020408001025C
:1000900004081020010204081020000000080002DB
:1000A00001000003040700000000000000005308E6
:1000B00011241FBECFEFD8E0DEBFCDBF11E0A0E01E
:1000C000B1E0EAEDF8E102C005900D92A832B10767
:1000D000D9F722E0A8E2B1E001C01D92A53AB2072B
:1000E000E1F710E0C8E5D0E004C02197FE010E94CE
:1000F000560CC735D107C9F70E94A0080C946B0CA9
:100100000C9400008091810190918201891B990BD0
:10011000089590E0FC01E656FF4F2491FC01EA5758
:10012000FF4F3491FC01EE58FF4FE491EE23C9F0EC
:10013000222339F0233001F1A8F4213019F12230C3
:1001400029F1F0E0EE0FFF1FE859FF4FA591B491A0
:100150008FB7F894EC91611126C030953E233C9303
:100160008FBF08952730A9F02830C9F0243049F70F
:10017000809180008F7D03C0809180008F77809375
:100180008000DFCF84B58F7784BDDBCF84B58F7DD2
:10019000FBCF8091B0008F778093B000D2CF809159
:1001A000B0008F7DF9CF3E2BDACF3FB7F894809126
:1001B0007D0190917E01A0917F01B091800126B5D3
:1001C000A89B05C02F3F19F00196A11DB11D3FBF8F
:1001D000BA2FA92F982F8827BC01CD01620F711D5E
:1001E000811D911D42E0660F771F881F991F4A9558
:1001F000D1F708958F929F92AF92BF92CF92DF92E4
:10020000EF92FF920E94D5004B015C0182E3C82E61
:10021000D12CE12CF12C0E94D500681979098A09AA
:100220009B09683E734081059105A8F321E0C21A3D
:10023000D108E108F10888EE880E83E0981EA11C21
:10024000B11CC114D104E104F10429F7FF90EF902F
:10025000DF90CF90BF90AF909F908F9008950895BA
:100260000895AF92BF92CF92DF92EF92FF920F93D9
:100270001F93CF93DF936C017B018B01040F151F3C
:10028000EB015E01AE18BF08C017D10759F06991A4
:10029000D601ED91FC910190F081E02DC601099508
:1002A000892B79F7C501DF91CF911F910F91FF90B5
:1002B000EF90DF90CF90BF90AF900895FC01538DE9
:1002C000448D252F30E0842F90E0821B930B541730
:1002D00010F0CF96089501970895FC01918D828DBD
:1002E000981761F0A28DAE0FBF2FB11D5D968C9156
:1002F000928D9F5F9F73928F90E008958FEF9FEF95
:100300000895FC01918D828D981731F0828DE80F50
:10031000F11D858D90E008958FEF9FEF0895FC010A
:10032000918D228D892F90E0805C9F4F821B9109D7
:100330008F739927089583EF91E00E948F0121E048
:10034000892B09F420E0822F089580E090E0892B2A
:1003500029F00E949B0181110C9400000895FC017A
:10036000A48DA80FB92FB11DA35ABF4F2C91848D16
:1003700090E001968F739927848FA689B7892C9373
:10038000A089B1898C91837080648C93938D848DC6
:10039000981306C00288F389E02D80818F7D8083C9
:1003A0000895EF92FF920F931F93CF93DF93EC0189
:1003B00081E0888F9B8D8C8D98131AC0E889F9890C
:1003C000808185FF15C09FB7F894EE89FF8960830F
:1003D000E889F98980818370806480839FBF81E090
:1003E00090E0DF91CF911F910F91FF90EF900895D2
:1003F000F62E0B8D10E00F5F1F4F0F731127E02EAD
:100400008C8D8E110CC00FB607FCFACFE889F989E4
:10041000808185FFF5CFCE010E94AF01F1CFEB8D3A
:10042000EC0FFD2FF11DE35AFF4FF0829FB7F894B8
:100430000B8FEA89FB8980818062CFCFCF93DF93D6
:10044000EC01888D8823B9F0AA89BB89E889F989EC
:100450008C9185FD03C0808186FD0DC00FB607FC21
:10046000F7CF8C9185FFF2CF808185FFEDCFCE0154
:100470000E94AF01E9CFDF91CF910895209149010A
:10048000260F3327331F21323105ECF42091C901A7
:10049000FC0190E080E0243069F082E00895A091B2
:1004A00049012191AC01475D5E4FA40FB52FB11DED
:1004B0002C930196861798F380914901680F6093F9
:1004C000490180E0089581E008951092C90181E01A
:1004D0008093C8011092A30161E082E10E9489002B
:1004E00061E083E10E948900E9EBF0E080818E7F8A
:1004F000808380818D7F808388E48093B80085E449
:100500008093BC000895CF93DF9391E090932801EE
:100510008823B9F0C091B800D091BA008091BC0096
:100520008A7B8093BC0060E082E10E94890060E0E9
:1005300083E10E9489000E946502D093BA00C093B3
:10054000B800DF91CF9108958F929F92AF92BF92A2
:10055000CF92DF92EF92FF920F931F93CF93DF938F
:10056000D091F201D13208F0D7C0182FC091F1011B
:100570000E94D5006B017C018091C90181116BC083
:1005800082E08093C9011093C8018FEF8093C70167
:100590001092C601D093C501A1EDB1E0E5EAF1E00A
:1005A00080E0D81391C01092A4018091A401CC0FD7
:1005B000C82BC093A4018091A301813009F088C0A9
:1005C0001092A3010E94D5006B017C018091A401CF
:1005D0008093BB008091CB019091CC01A091CD0183
:1005E000B091CE01892B8A2B8B2BA1F00E94D500D4
:1005F0000091CB011091CC012091CD013091CE0121
:100600006C197D098E099F090617170728073907F6
:1006100008F442C08091BC0083FDD8CF85EC809364
:10062000BC000E94D5006B017C018091C901823021
:1006300009F450C08091C7018F3F09F46FC08091C9
:10064000C701803209F46CC08091C701803309F47E
:1006500069C084E026C08091CB019091CC01A0912B
:10066000CD01B091CE01892B8A2B8B2B09F484CF3D
:100670000E94D5008090CB019090CC01A090CD013C
:10068000B090CE016C197D098E099F0986169706D8
:10069000A806B90608F070CF8091CA010E948302B3
:1006A00085E01092D0011092F2011092CF01DF91FB
:1006B000CF911F910F91FF90EF90DF90CF90BF905F
:1006C000AF909F908F9008959D9191938F5F69CF88
:1006D00085EEA5CF8091CB019091CC01A091CD0169
:1006E000B091CE01892B8A2B8B2B09F49ECF0E94CF
:1006F000D5000091CB011091CC012091CD0130911A
:10070000CE016C197D098E099F0906171707280766
:10071000390708F08ACFC0CF81E0C3CF80E0C1CFD6
:1007200082E0BFCF83E0BDCFCF92DF92EF92FF9206
:100730000F931F93CF93DF93D82FC62F613208F00A
:1007400098C00E94D5006B017C018091C901811184
:100750006BC081E08093C9018093C8019FEF9093A3
:10076000C7011092C6019C0F9093C5018093A4010C
:100770008091A401DD0FD82BD093A4018091A30117
:10078000813009F078C01092A3010E94D5006B015E
:100790007C018091A4018093BB008091CB0190915A
:1007A000CC01A091CD01B091CE01892B8A2B8B2B4E
:1007B000A1F00E94D5000091CB011091CC012091B5
:1007C000CD013091CE016C197D098E099F09061764
:1007D00017072807390708F448C08091BC0083FD3B
:1007E000D8CF85EC8093BC000E94D5006B017C01C2
:1007F0008091C901813009F440C08091C6018C17F5
:1008000010F4C091C601E5EAF1E0A3E8B1E080E0B0
:100810008C1355C08C2FDF91CF911F910F91FF90BA
:10082000EF90DF90CF9008958091CB019091CC0113
:10083000A091CD01B091CE01892B8A2B8B2B09F48D
:1008400084CF0E94D5000091CB011091CC01209162
:10085000CD013091CE016C197D098E099F090617D3
:1008600017072807390708F070CF8091CA010E9446
:100870008302C0E0CFCF85EEB5CF8091CB019091C0
:10088000CC01A091CD01B091CE01892B8A2B8B2B6D
:1008900009F4AECF0E94D5000091CB011091CC019C
:1008A0002091CD013091CE016C197D098E099F09EF
:1008B000061717072807390708F09ACFD6CF919166
:1008C0009D938F5FA5CF0895E09182018091810172
:1008D000E81730F4F0E0ED57FE4F808190E0089586
:1008E0008FEF9FEF089590918201809181012FEF0A
:1008F0003FEF981748F4E92FF0E0ED57FE4F2081C5
:1009000030E09F5F90938201C9010895CF92DF92FA
:10091000EF92FF920F931F93CF93DF937C01CB0154
:100920008A012091CF01222389F0EB016B01C40ED3
:10093000D51ECC15DD0569F06991D701ED91FC91CB
:100940000190F081E02DC7010995F3CF642F0E943B
:100950003E02C801DF91CF911F910F91FF90EF9060
:10096000DF90CF900895CF93DF931F92CDB7DEB77E
:1009700069832091CF012223F9F02091F2012032E6
:1009800058F021E030E0FC013383228390E080E0E6
:100990000F90DF91CF9108958091D001E82FF0E082
:1009A000EF52FE4F998190838F5F8093D0018093A7
:1009B000F20181E090E0ECCF61E0CE0101960E946F
:1009C0003E02F7CFCF93C82F8091A40291E090937D
:1009D000CF018093F1011092D0011092F20163E0F7
:1009E00080E992E00E94B3046C2F80E992E00E94BB
:1009F000B30481E0CF910C94A40290E080E00895CC
:100A0000CF92DF92EF92FF92CF93DF938091A40277
:100A1000C1E0C093CF018093F1011092D0011092F8
:100A2000F20161E080E992E00E94B30480E00E945C
:100A3000A4028111CDC062E08091A4020E949403BF
:100A40001092820180938101823069F0C9E3D0E382
:100A500081E00E94A402CE01DF91CF91FF90EF9040
:100A6000DF90CF90089580E992E00E947304D82E21
:100A700080E992E00E9473047C018091A402C093FB
:100A8000CF018093F1011092D0011092F20163E046
:100A900080E992E00E94B30480E00E94A402C82F83
:100AA000811111C061E08091A4020E949403109210
:100AB000820180938101813009F058C080E992E081
:100AC0000E947304D82F81E00E94A402C111BECFFE
:100AD00020E03D2D2E293F29032E000C440B550B01
:100AE000D4FF4FC092E055954795379527959A9535
:100AF000D1F7A4E6B0E00E944B0C20E230E040E0E9
:100B000050E00E942C0C283883E13807410551053C
:100B10007CF1CA01B9016858734181099109609358
:100B20009C0270939D0280939E0290939F020E946C
:100B3000FD0A20E030E040E251E40E94530A6B01DC
:100B40007C0120E030E0A9010E94E10B20E030E0D0
:100B500040E05FE387FD35C0C701B6010E94D009C0
:100B60000E94380B0E94C50AEB0172CFC4E0ABCFE4
:100B700068E873E180E090E0621B730B840B950BD7
:100B8000CECF84E055954795379527958A95D1F72F
:100B9000A4E6B0E00E944B0C20E130E040E050E0E1
:100BA0000E942C0CCA01B901605679408109910953
:100BB0006093A0027093A1028093A2029093A3027B
:100BC000B6CFC701B6010E94CF090E943C0ACACF26
:100BD000C9E3D0E340CF8F929F92AF92BF920F9321
:100BE0001F93CF93DF93CDB7DEB7A1970FB6F894DD
:100BF000DEBF0FBECDBF19A2423008F44AE08E011D
:100C00000F5D1F4F842E912CB12CA12CA5019401B6
:100C10000E940A0CE62FB901CA01EA3044F5E05DF2
:100C2000D801EE938D01232B242B252B79F790E00F
:100C300080E0109769F0FD0101900020E9F73197FD
:100C4000AF014A1B5B0BBD0183EF91E00E943101B4
:100C5000A1960FB6F894DEBF0FBECDBFDF91CF9146
:100C60001F910F91BF90AF909F908F900895E95C76
:100C7000D7CFCF92DF92EF92FF92CF93DF936B01AA
:100C80007C016DE283EF91E00E94D101EC016627C7
:100C90007727CB016C197D098E099F094AE00E94D4
:100CA000EB058C0F9D1FDF91CF91FF90EF90DF90B0
:100CB000CF90089585ED8093BC008091CB019091F9
:100CC000CC01A091CD01B091CE010796A11DB11D1F
:100CD00023E0B695A795979587952A95D1F720910A
:100CE000BC0024FD03C01092C90108954091CB01BE
:100CF0005091CC016091CD017091CE01452B462BD6
:100D0000472B69F30097A105B10541F02AE22A9526
:100D1000F1F700C00197A109B109E1CF8091CA01A3
:100D20000C9483021F920F920FB60F9211242F93EF
:100D30003F938F939F93AF93BF938091790190914D
:100D40007A01A0917B01B0917C013091780123E080
:100D5000230F2D3758F50196A11DB11D2093780161
:100D60008093790190937A01A0937B01B0937C01E9
:100D700080917D0190917E01A0917F01B0918001D1
:100D80000196A11DB11D80937D0190937E01A093DA
:100D90007F01B0938001BF91AF919F918F913F915F
:100DA0002F910F900FBE0F901F90189526E8230FDC
:100DB0000296A11DB11DD2CF1F920F920FB60F92B6
:100DC00011242F933F934F935F936F937F938F9350
:100DD0009F93AF93BF93EF93FF9383EF91E00E94B4
:100DE000AF01FF91EF91BF91AF919F918F917F9153
:100DF0006F915F914F913F912F910F900FBE0F9088
:100E00001F9018951F920F920FB60F9211242F93D7
:100E10008F939F93EF93FF93E0910302F09104026D
:100E20008081E0910902F0910A0282FD1BC090814D
:100E300080910C028F5F8F7320910D02821741F019
:100E4000E0910C02F0E0ED50FE4F958F80930C0284
:100E5000FF91EF919F918F912F910F900FBE0F9067
:100E60001F9018958081F4CF1F920F920FB60F92AA
:100E700011242F933F934F935F936F937F938F939F
:100E80009F93AF93BF93EF93FF938091B900887FB7
:100E9000803609F44AC0F0F5883209F4A7C018F585
:100EA000803109F49BC0B8F4882309F4F9C0883074
:100EB00009F494C0FF91EF91BF91AF919F918F91F1
:100EC0007F916F915F914F913F912F910F900FBE46
:100ED0000F901F901895883109F488C0803251F71F
:100EE0008093C70114C0803409F49DC040F480335E
:100EF000B9F38833F9F68093C70185ECB0C080352B
:100F000009F485C0883509F496C0883499F60E94A2
:100F10005A06D0CF883909F48CC038F5883729F0C3
:100F200050F4883611F0803729F683E08093C901A8
:100F300010926B0157C0883809F47BC0803919F0D2
:100F4000803809F0B7CF80916B01803208F071C012
:100F5000E0916B0181E08E0F80936B018091BB006B
:100F6000F0E0E55BFE4F80833DC0803B39F0E0F46C
:100F7000803A09F479C0883A09F09CCF84E08093E4
:100F8000C90110924A0110924901E0916E01F0915D
:100F90006F0109958091490181110FC081E0809313
:100FA00049011092290109C0803C09F4A6CF883C70
:100FB00009F4A3CF883B09F07DCFE0914A0181E09D
:100FC0008E0F80934A01F0E0E75DFE4F80818093B1
:100FD000BB0090914A018091490129C08091A401F0
:100FE0008093BB0085EC8093BC0064CF9091C601D8
:100FF0008091C501981758F5E091C60181E08E0FE8
:101000008093C601F0E0EB55FE4F8081E9CFE0917F
:10101000C60181E08E0F8093C6018091BB00F0E095
:10102000EB55FE4F80839091C6018091C5019817C2
:10103000C8F285E8D8CFE091C60181E08E0F809399
:10104000C6018091BB00F0E0EB55FE4F808380919C
:10105000C80181115CCF81E08093A30184EA809371
:10106000BC001092C90126CF85EC8093BC00109281
:10107000C90180916B01803230F4E0916B01F0E0A6
:10108000E55BFE4F108260916B0170E0E0916C01B6
:10109000F0916D018BE491E0099510926B010ACFFC
:1010A0001092C70134CFE3EFF1E01382128288EE91
:1010B00093E0A0E0B0E084839583A683B78324E027
:1010C00031E03183208325EC30E03587248724EC20
:1010D00030E03787268720EC30E0318B208B21EC05
:1010E00030E0338B228B22EC30E0358B248B26ECE6
:1010F00030E0378B268B118E128E138E148EE0E922
:10110000F2E01382128284839583A683B78386E1FB
:1011100091E091838083ECE9F2E080E4808783E0D2
:1011200099EDA0E0B0E080839183A283B38387E54B
:1011300094E0A0E0B0E084839583A683B78308950C
:10114000789484B5826084BD84B5816084BD85B5A2
:10115000826085BD85B5816085BD80916E008160AE
:1011600080936E0010928100809181008260809354
:101170008100809181008160809381008091800056
:101180008160809380008091B10084608093B10081
:101190008091B00081608093B00080917A0084607B
:1011A00080937A0080917A00826080937A008091A7
:1011B0007A00816080937A0080917A0080688093C1
:1011C0007A001092C100E0910302F091040282E0E3
:1011D0008083E091FF01F09100021082E091010212
:1011E000F09102028FEC808310920B02E0910702D3
:1011F000F091080286E08083E0910502F0910602FA
:10120000808180618083E0910502F09106028081F7
:1012100088608083E0910502F091060280818068F9
:101220008083E0910502F091060280818F7D8083AA
:1012300010928201109281011092D0011092F2015D
:101240000E9465028FE291E090936F0180936E019E
:1012500080E391E090936D0180936C01C0E0D0E059
:101260002FB7F8948091790190917A01A0917B0138
:10127000B0917C012FBF4091740150917501609134
:10128000760170917701841B950BA60BB70B893EF5
:101290009340A105B10508F46FC02FB7F894809171
:1012A000790190917A01A0917B01B0917C012FBFCF
:1012B0008093740190937501A0937601B0937701A8
:1012C00081E10E94E2040E94FA000E940005609100
:1012D0009C0270919D0280919E0290919F020E94BB
:1012E000FD0A20E030E048EC52E40E94530A0E94DC
:1012F000C50A6B01709373016093720181E00E94D3
:10130000E2040E94FA000E9400056091A002709120
:10131000A1028091A2029091A3020E94FD0A20E006
:1013200030E048EC52E40E94530A0E94C50A7093D0
:10133000710160937001B601DD0C880B990B97FF6A
:1013400026C00E9439066CE283EF91E00E94D10131
:101350006091700170917101072E000C880B990B40
:1013600097FF19C00E94390642E050E064E271E044
:1013700083EF91E00E943101209709F471CF0E9420
:101380009B01882309F46CCF0E94000069CF4AE0DA
:101390000E94EB05D8CF4AE00E94EB05E5CF5058FC
:1013A000BB27AA270E94E7090C948F0B0E94810B90
:1013B00038F00E94880B20F039F49F3F19F426F48E
:1013C0000C947E0B0EF4E095E7FB0C944F0BE92F89
:1013D0000E94A00B58F3BA1762077307840795079A
:1013E00020F079F4A6F50C94DA0B0EF4E0950B2EB0
:1013F000BA2FA02D0B01B90190010C01CA01A00167
:101400001124FF27591B99F0593F50F4503E68F1C1
:101410001A16F040A22F232F342F4427585FF3CF02
:10142000469537952795A795F0405395C9F77EF4D3
:101430001F16BA0B620B730B840BBAF09150A1F01C
:10144000FF0FBB1F661F771F881FC2F70EC0BA0FA2
:10145000621F731F841F48F4879577956795B7952A
:10146000F7959E3F08F0B0CF9395880F08F0992725
:10147000EE0F9795879508950E94C20B90F09F37C5
:1014800048F4911116F40C94DB0B60E070E080E8F6
:101490009FE3089526F01B16611D711D811D0C949C
:1014A000550B0C94700B0E94670A0C948F0B0E94D2
:1014B000880B58F00E94810B40F029F45F3F29F01F
:1014C0000C944F0B51110C94DB0B0C947E0B0E946F
:1014D000A00B68F39923B1F3552391F3951B550B9A
:1014E000BB27AA2762177307840738F09F5F5F4FF7
:1014F000220F331F441FAA1FA9F335D00E2E3AF036
:10150000E0E832D091505040E695001CCAF72BD04D
:10151000FE2F29D0660F771F881FBB1F261737079E
:101520004807AB07B0E809F0BB0B802DBF01FF27D0
:1015300093585F4F3AF09E3F510578F00C944F0B53
:101540000C94DB0B5F3FE4F3983ED4F386957795DC
:101550006795B795F7959F5FC9F7880F911D969589
:10156000879597F90895E1E0660F771F881FBB1FE5
:10157000621773078407BA0720F0621B730B840B92
:10158000BA0BEE1F88F7E09508950E94CC0A689484
:10159000B1110C94DB0B08950E94A80B88F09F57A3
:1015A00098F0B92F9927B751B0F0E1F0660F771F87
:1015B000881F991F1AF0BA95C9F714C0B13091F07D
:1015C0000E94DA0BB1E008950C94DA0B672F782FA4
:1015D0008827B85F39F0B93FCCF386957795679542
:1015E000B395D9F73EF490958095709561957F4FAE
:1015F0008F4F9F4F0895E89409C097FB3EF4909554
:101600008095709561957F4F8F4F9F4F9923A9F0DB
:10161000F92F96E9BB279395F6958795779567956A
:10162000B795F111F8CFFAF4BB0F11F460FF1BC0AE
:101630006F5F7F4F8F4F9F4F16C0882311F096E941
:1016400011C0772321F09EE8872F762F05C06623EF
:1016500071F096E8862F70E060E02AF09A95660FA8
:10166000771F881FDAF7880F9695879597F9089561
:101670000E94C20B90F09F3748F4911116F00C9421
:10168000DB0B60E070E080E89FEB089526F41B160A
:10169000611D711D811D0C94550B0C94700B97F9F5
:1016A0009F6780E870E060E00895882371F47723F5
:1016B00021F09850872B762F07C0662311F49927C5
:1016C0000DC09051862B70E060E02AF09A95660F6D
:1016D000771F881FDAF7880F9695879597F90895F1
:1016E0009F3F31F0915020F4879577956795B79596
:1016F000880F911D9695879597F908959FEF80EC37
:10170000089500240A941616170618060906089567
:1017100000240A9412161306140605060895092ECD
:101720000394000C11F4882352F0BB0F40F4BF2B3C
:1017300011F460FF04C06F5F7F4F8F4F9F4F08957C
:1017400057FD9058440F551F59F05F3F71F0479572
:10175000880F97FB991F61F09F3F79F08795089557
:10176000121613061406551FF2CF4695F1DF08C076
:10177000161617061806991FF1CF86957105610593
:10178000089408950E94A80BA0F0BEE7B91788F44A
:10179000BB279F3860F41616B11D672F782F882756
:1017A000985FF7CF869577956795B11D9395963994
:1017B000C8F30895E894BB2766277727CB0197F9EC
:1017C00008950E94E60B08F48FEF0895990F000822
:1017D000550FAA0BE0E8FEEF16161706E807F90703
:1017E000C0F012161306E407F50798F0621B730B9E
:1017F000840B950B39F40A2661F0232B242B252B1F
:1018000021F408950A2609F4A140A6958FEF811DC1
:10181000811D0895A1E21A2EAA1BBB1BFD010DC05C
:10182000AA1FBB1FEE1FFF1FA217B307E407F50790
:1018300020F0A21BB30BE40BF50B661F771F881F6C
:10184000991F1A9469F760957095809590959B0102
:10185000AC01BD01CF010895052E97FB1EF4009445
:101860000E94430C57FD07D00E940A0C07FC03D0CE
:101870004EF40C94430C50954095309521953F4F74
:101880004F4F5F4F089590958095709561957F4F6C
:101890008F4F9F4F08950E945C0CA59F900DB49FA1
:1018A000900DA49F800D911D11240895EE0FFF1F30
:1018B0000590F491E02D0994A29FB001B39FC0015F
:1018C000A39F700D811D1124911DB29F700D811D6C
:0A18D0001124911D0895F894FFCF34
:1018DA0000000000D10131015E011E028F016D017D
:1018EA00810100000000B3048604FD046304820041
:0818FA00730464040D0A0000F0
:00000001FF
